{
  "_format": "hh-sol-artifact-1",
  "contractName": "GCW3MinterWave0V2",
  "sourceName": "contracts/GCW3MinterWave0V2.sol",
  "abi": [
    {
      "inputs": [],
      "stateMutability": "nonpayable",
      "type": "constructor"
    },
    {
      "anonymous": false,
      "inputs": [
        {
          "indexed": true,
          "internalType": "address",
          "name": "owner",
          "type": "address"
        },
        {
          "indexed": true,
          "internalType": "address",
          "name": "approved",
          "type": "address"
        },
        {
          "indexed": true,
          "internalType": "uint256",
          "name": "tokenId",
          "type": "uint256"
        }
      ],
      "name": "Approval",
      "type": "event"
    },
    {
      "anonymous": false,
      "inputs": [
        {
          "indexed": true,
          "internalType": "address",
          "name": "owner",
          "type": "address"
        },
        {
          "indexed": true,
          "internalType": "address",
          "name": "operator",
          "type": "address"
        },
        {
          "indexed": false,
          "internalType": "bool",
          "name": "approved",
          "type": "bool"
        }
      ],
      "name": "ApprovalForAll",
      "type": "event"
    },
    {
      "anonymous": false,
      "inputs": [
        {
          "indexed": true,
          "internalType": "address",
          "name": "previousOwner",
          "type": "address"
        },
        {
          "indexed": true,
          "internalType": "address",
          "name": "newOwner",
          "type": "address"
        }
      ],
      "name": "OwnershipTransferred",
      "type": "event"
    },
    {
      "anonymous": false,
      "inputs": [
        {
          "indexed": true,
          "internalType": "address",
          "name": "from",
          "type": "address"
        },
        {
          "indexed": true,
          "internalType": "address",
          "name": "to",
          "type": "address"
        },
        {
          "indexed": true,
          "internalType": "uint256",
          "name": "tokenId",
          "type": "uint256"
        }
      ],
      "name": "Transfer",
      "type": "event"
    },
    {
      "inputs": [
        {
          "internalType": "address",
          "name": "a",
          "type": "address"
        }
      ],
      "name": "DeOpAddress",
      "outputs": [],
      "stateMutability": "nonpayable",
      "type": "function"
    },
    {
      "inputs": [
        {
          "internalType": "address",
          "name": "a",
          "type": "address"
        }
      ],
      "name": "OpAddress",
      "outputs": [],
      "stateMutability": "nonpayable",
      "type": "function"
    },
    {
      "inputs": [],
      "name": "TOTAL_SUPPLY",
      "outputs": [
        {
          "internalType": "uint256",
          "name": "",
          "type": "uint256"
        }
      ],
      "stateMutability": "view",
      "type": "function"
    },
    {
      "inputs": [
        {
          "internalType": "address",
          "name": "to",
          "type": "address"
        },
        {
          "internalType": "uint256",
          "name": "tokenId",
          "type": "uint256"
        }
      ],
      "name": "approve",
      "outputs": [],
      "stateMutability": "nonpayable",
      "type": "function"
    },
    {
      "inputs": [
        {
          "internalType": "address",
          "name": "owner",
          "type": "address"
        }
      ],
      "name": "balanceOf",
      "outputs": [
        {
          "internalType": "uint256",
          "name": "",
          "type": "uint256"
        }
      ],
      "stateMutability": "view",
      "type": "function"
    },
    {
      "inputs": [],
      "name": "baseTokenURI",
      "outputs": [
        {
          "internalType": "string",
          "name": "",
          "type": "string"
        }
      ],
      "stateMutability": "view",
      "type": "function"
    },
    {
      "inputs": [],
      "name": "contractURI",
      "outputs": [
        {
          "internalType": "string",
          "name": "",
          "type": "string"
        }
      ],
      "stateMutability": "pure",
      "type": "function"
    },
    {
      "inputs": [
        {
          "internalType": "uint256",
          "name": "tokenId",
          "type": "uint256"
        }
      ],
      "name": "getApproved",
      "outputs": [
        {
          "internalType": "address",
          "name": "",
          "type": "address"
        }
      ],
      "stateMutability": "view",
      "type": "function"
    },
    {
      "inputs": [],
      "name": "getSupply",
      "outputs": [
        {
          "internalType": "uint256",
          "name": "",
          "type": "uint256"
        }
      ],
      "stateMutability": "pure",
      "type": "function"
    },
    {
      "inputs": [
        {
          "internalType": "address",
          "name": "owner",
          "type": "address"
        },
        {
          "internalType": "address",
          "name": "operator",
          "type": "address"
        }
      ],
      "name": "isApprovedForAll",
      "outputs": [
        {
          "internalType": "bool",
          "name": "",
          "type": "bool"
        }
      ],
      "stateMutability": "view",
      "type": "function"
    },
    {
      "inputs": [
        {
          "internalType": "address",
          "name": "recipient",
          "type": "address"
        }
      ],
      "name": "mintTo",
      "outputs": [
        {
          "internalType": "uint256",
          "name": "",
          "type": "uint256"
        }
      ],
      "stateMutability": "nonpayable",
      "type": "function"
    },
    {
      "inputs": [],
      "name": "name",
      "outputs": [
        {
          "internalType": "string",
          "name": "",
          "type": "string"
        }
      ],
      "stateMutability": "view",
      "type": "function"
    },
    {
      "inputs": [],
      "name": "owner",
      "outputs": [
        {
          "internalType": "address",
          "name": "",
          "type": "address"
        }
      ],
      "stateMutability": "view",
      "type": "function"
    },
    {
      "inputs": [
        {
          "internalType": "uint256",
          "name": "tokenId",
          "type": "uint256"
        }
      ],
      "name": "ownerOf",
      "outputs": [
        {
          "internalType": "address",
          "name": "",
          "type": "address"
        }
      ],
      "stateMutability": "view",
      "type": "function"
    },
    {
      "inputs": [],
      "name": "renounceOwnership",
      "outputs": [],
      "stateMutability": "nonpayable",
      "type": "function"
    },
    {
      "inputs": [
        {
          "internalType": "address",
          "name": "from",
          "type": "address"
        },
        {
          "internalType": "address",
          "name": "to",
          "type": "address"
        },
        {
          "internalType": "uint256",
          "name": "tokenId",
          "type": "uint256"
        }
      ],
      "name": "safeTransferFrom",
      "outputs": [],
      "stateMutability": "nonpayable",
      "type": "function"
    },
    {
      "inputs": [
        {
          "internalType": "address",
          "name": "from",
          "type": "address"
        },
        {
          "internalType": "address",
          "name": "to",
          "type": "address"
        },
        {
          "internalType": "uint256",
          "name": "tokenId",
          "type": "uint256"
        },
        {
          "internalType": "bytes",
          "name": "data",
          "type": "bytes"
        }
      ],
      "name": "safeTransferFrom",
      "outputs": [],
      "stateMutability": "nonpayable",
      "type": "function"
    },
    {
      "inputs": [
        {
          "internalType": "address",
          "name": "operator",
          "type": "address"
        },
        {
          "internalType": "bool",
          "name": "approved",
          "type": "bool"
        }
      ],
      "name": "setApprovalForAll",
      "outputs": [],
      "stateMutability": "nonpayable",
      "type": "function"
    },
    {
      "inputs": [
        {
          "internalType": "bytes4",
          "name": "interfaceId",
          "type": "bytes4"
        }
      ],
      "name": "supportsInterface",
      "outputs": [
        {
          "internalType": "bool",
          "name": "",
          "type": "bool"
        }
      ],
      "stateMutability": "view",
      "type": "function"
    },
    {
      "inputs": [],
      "name": "symbol",
      "outputs": [
        {
          "internalType": "string",
          "name": "",
          "type": "string"
        }
      ],
      "stateMutability": "view",
      "type": "function"
    },
    {
      "inputs": [
        {
          "internalType": "uint256",
          "name": "tokenId",
          "type": "uint256"
        }
      ],
      "name": "tokenURI",
      "outputs": [
        {
          "internalType": "string",
          "name": "",
          "type": "string"
        }
      ],
      "stateMutability": "view",
      "type": "function"
    },
    {
      "inputs": [
        {
          "internalType": "address",
          "name": "from",
          "type": "address"
        },
        {
          "internalType": "address",
          "name": "to",
          "type": "address"
        },
        {
          "internalType": "uint256",
          "name": "tokenId",
          "type": "uint256"
        }
      ],
      "name": "transferFrom",
      "outputs": [],
      "stateMutability": "nonpayable",
      "type": "function"
    },
    {
      "inputs": [
        {
          "internalType": "address",
          "name": "newOwner",
          "type": "address"
        }
      ],
      "name": "transferOwnership",
      "outputs": [],
      "stateMutability": "nonpayable",
      "type": "function"
    }
  ],
  "bytecode": "0x60806040523480156200001157600080fd5b506040518060400160405280600781526020017f43616368654d65000000000000000000000000000000000000000000000000008152506040518060400160405280600381526020017f434d33000000000000000000000000000000000000000000000000000000000081525081600090816200008f91906200043d565b508060019081620000a191906200043d565b505050620000c4620000b8620000f560201b60201c565b620000fd60201b60201c565b60405180608001604052806045815260200162003a506045913960099081620000ee91906200043d565b5062000524565b600033905090565b6000600660009054906101000a900473ffffffffffffffffffffffffffffffffffffffff16905081600660006101000a81548173ffffffffffffffffffffffffffffffffffffffff021916908373ffffffffffffffffffffffffffffffffffffffff1602179055508173ffffffffffffffffffffffffffffffffffffffff168173ffffffffffffffffffffffffffffffffffffffff167f8be0079c531659141344cd1fd0a4f28419497f9722a3daafe3b4186f6b6457e060405160405180910390a35050565b600081519050919050565b7f4e487b7100000000000000000000000000000000000000000000000000000000600052604160045260246000fd5b7f4e487b7100000000000000000000000000000000000000000000000000000000600052602260045260246000fd5b600060028204905060018216806200024557607f821691505b6020821081036200025b576200025a620001fd565b5b50919050565b60008190508160005260206000209050919050565b60006020601f8301049050919050565b600082821b905092915050565b600060088302620002c57fffffffffffffffffffffffffffffffffffffffffffffffffffffffffffffffff8262000286565b620002d1868362000286565b95508019841693508086168417925050509392505050565b6000819050919050565b6000819050919050565b60006200031e620003186200031284620002e9565b620002f3565b620002e9565b9050919050565b6000819050919050565b6200033a83620002fd565b62000352620003498262000325565b84845462000293565b825550505050565b600090565b620003696200035a565b620003768184846200032f565b505050565b5b818110156200039e57620003926000826200035f565b6001810190506200037c565b5050565b601f821115620003ed57620003b78162000261565b620003c28462000276565b81016020851015620003d2578190505b620003ea620003e18562000276565b8301826200037b565b50505b505050565b600082821c905092915050565b60006200041260001984600802620003f2565b1980831691505092915050565b60006200042d8383620003ff565b9150826002028217905092915050565b6200044882620001c3565b67ffffffffffffffff811115620004645762000463620001ce565b5b6200047082546200022c565b6200047d828285620003a2565b600060209050601f831160018114620004b55760008415620004a0578287015190505b620004ac85826200041f565b8655506200051c565b601f198416620004c58662000261565b60005b82811015620004ef57848901518255600182019150602085019450602081019050620004c8565b868310156200050f57848901516200050b601f891682620003ff565b8355505b6001600288020188555050505b505050505050565b61351c80620005346000396000f3fe608060405234801561001057600080fd5b506004361061014d5760003560e01c8063755edd17116100c3578063bed0a13f1161007c578063bed0a13f1461038a578063c87b56dd146103a6578063d547cfb7146103d6578063e8a3d485146103f4578063e985e9c514610412578063f2fde38b146104425761014d565b8063755edd17146102c85780638da5cb5b146102f8578063902d55a51461031657806395d89b4114610334578063a22cb46514610352578063b88d4fde1461036e5761014d565b80632977dc73116101155780632977dc731461020857806342842e0e146102245780636352211e146102405780636c9c2faf1461027057806370a082311461028e578063715018a6146102be5761014d565b806301ffc9a71461015257806306fdde0314610182578063081812fc146101a0578063095ea7b3146101d057806323b872dd146101ec575b600080fd5b61016c600480360381019061016791906123c9565b61045e565b6040516101799190612411565b60405180910390f35b61018a610540565b60405161019791906124bc565b60405180910390f35b6101ba60048036038101906101b59190612514565b6105d2565b6040516101c79190612582565b60405180910390f35b6101ea60048036038101906101e591906125c9565b610618565b005b61020660048036038101906102019190612609565b61072f565b005b610222600480360381019061021d919061265c565b61078f565b005b61023e60048036038101906102399190612609565b6107a3565b005b61025a60048036038101906102559190612514565b6107c3565b6040516102679190612582565b60405180910390f35b610278610849565b6040516102859190612698565b60405180910390f35b6102a860048036038101906102a3919061265c565b610852565b6040516102b59190612698565b60405180910390f35b6102c6610909565b005b6102e260048036038101906102dd919061265c565b61091d565b6040516102ef9190612698565b60405180910390f35b610300610aaa565b60405161030d9190612582565b60405180910390f35b61031e610ad4565b60405161032b9190612698565b60405180910390f35b61033c610ad9565b60405161034991906124bc565b60405180910390f35b61036c600480360381019061036791906126df565b610b6b565b005b61038860048036038101906103839190612854565b610b81565b005b6103a4600480360381019061039f919061265c565b610be3565b005b6103c060048036038101906103bb9190612514565b610bf7565b6040516103cd91906124bc565b60405180910390f35b6103de610c5f565b6040516103eb91906124bc565b60405180910390f35b6103fc610ced565b60405161040991906124bc565b60405180910390f35b61042c600480360381019061042791906128d7565b610d0d565b6040516104399190612411565b60405180910390f35b61045c6004803603810190610457919061265c565b610da1565b005b60007f80ac58cd000000000000000000000000000000000000000000000000000000007bffffffffffffffffffffffffffffffffffffffffffffffffffffffff1916827bffffffffffffffffffffffffffffffffffffffffffffffffffffffff1916148061052957507f5b5e139f000000000000000000000000000000000000000000000000000000007bffffffffffffffffffffffffffffffffffffffffffffffffffffffff1916827bffffffffffffffffffffffffffffffffffffffffffffffffffffffff1916145b80610539575061053882610e24565b5b9050919050565b60606000805461054f90612946565b80601f016020809104026020016040519081016040528092919081815260200182805461057b90612946565b80156105c85780601f1061059d576101008083540402835291602001916105c8565b820191906000526020600020905b8154815290600101906020018083116105ab57829003601f168201915b5050505050905090565b60006105dd82610e8e565b6004600083815260200190815260200160002060009054906101000a900473ffffffffffffffffffffffffffffffffffffffff169050919050565b6000610623826107c3565b90508073ffffffffffffffffffffffffffffffffffffffff168373ffffffffffffffffffffffffffffffffffffffff1603610693576040517f08c379a000000000000000000000000000000000000000000000000000000000815260040161068a906129e9565b60405180910390fd5b8073ffffffffffffffffffffffffffffffffffffffff166106b2610ed9565b73ffffffffffffffffffffffffffffffffffffffff1614806106e157506106e0816106db610ed9565b610d0d565b5b610720576040517f08c379a000000000000000000000000000000000000000000000000000000000815260040161071790612a7b565b60405180910390fd5b61072a8383610ee1565b505050565b61074061073a610ed9565b82610f9a565b61077f576040517f08c379a000000000000000000000000000000000000000000000000000000000815260040161077690612b0d565b60405180910390fd5b61078a83838361102f565b505050565b610797611328565b6107a0816113a6565b50565b6107be83838360405180602001604052806000815250610b81565b505050565b6000806107cf83611538565b9050600073ffffffffffffffffffffffffffffffffffffffff168173ffffffffffffffffffffffffffffffffffffffff1603610840576040517f08c379a000000000000000000000000000000000000000000000000000000000815260040161083790612b79565b60405180910390fd5b80915050919050565b60006005905090565b60008073ffffffffffffffffffffffffffffffffffffffff168273ffffffffffffffffffffffffffffffffffffffff16036108c2576040517f08c379a00000000000000000000000000000000000000000000000000000000081526004016108b990612c0b565b60405180910390fd5b600360008373ffffffffffffffffffffffffffffffffffffffff1673ffffffffffffffffffffffffffffffffffffffff168152602001908152602001600020549050919050565b610911611328565b61091b6000611575565b565b60008073ffffffffffffffffffffffffffffffffffffffff16600760003373ffffffffffffffffffffffffffffffffffffffff1673ffffffffffffffffffffffffffffffffffffffff16815260200190815260200160002060000160009054906101000a900473ffffffffffffffffffffffffffffffffffffffff1673ffffffffffffffffffffffffffffffffffffffff161415806109ee57503373ffffffffffffffffffffffffffffffffffffffff166109d6610aaa565b73ffffffffffffffffffffffffffffffffffffffff16145b610a2d576040517f08c379a0000000000000000000000000000000000000000000000000000000008152600401610a2490612c77565b60405180910390fd5b6000610a39600861163b565b905060058110610a7e576040517f08c379a0000000000000000000000000000000000000000000000000000000008152600401610a7590612ce3565b60405180910390fd5b610a886008611649565b6000610a94600861163b565b9050610aa0848261165f565b8092505050919050565b6000600660009054906101000a900473ffffffffffffffffffffffffffffffffffffffff16905090565b600581565b606060018054610ae890612946565b80601f0160208091040260200160405190810160405280929190818152602001828054610b1490612946565b8015610b615780601f10610b3657610100808354040283529160200191610b61565b820191906000526020600020905b815481529060010190602001808311610b4457829003601f168201915b5050505050905090565b610b7d610b76610ed9565b838361167d565b5050565b610b92610b8c610ed9565b83610f9a565b610bd1576040517f08c379a0000000000000000000000000000000000000000000000000000000008152600401610bc890612b0d565b60405180910390fd5b610bdd848484846117e9565b50505050565b610beb611328565b610bf481611845565b50565b6060610c0282610e8e565b6000610c0c6119b8565b90506000815111610c2c5760405180602001604052806000815250610c57565b80610c3684611a4a565b604051602001610c47929190612d3f565b6040516020818303038152906040525b915050919050565b60098054610c6c90612946565b80601f0160208091040260200160405190810160405280929190818152602001828054610c9890612946565b8015610ce55780601f10610cba57610100808354040283529160200191610ce5565b820191906000526020600020905b815481529060010190602001808311610cc857829003601f168201915b505050505081565b606060405180608001604052806052815260200161349560529139905090565b6000600560008473ffffffffffffffffffffffffffffffffffffffff1673ffffffffffffffffffffffffffffffffffffffff16815260200190815260200160002060008373ffffffffffffffffffffffffffffffffffffffff1673ffffffffffffffffffffffffffffffffffffffff16815260200190815260200160002060009054906101000a900460ff16905092915050565b610da9611328565b600073ffffffffffffffffffffffffffffffffffffffff168173ffffffffffffffffffffffffffffffffffffffff1603610e18576040517f08c379a0000000000000000000000000000000000000000000000000000000008152600401610e0f90612dd5565b60405180910390fd5b610e2181611575565b50565b60007f01ffc9a7000000000000000000000000000000000000000000000000000000007bffffffffffffffffffffffffffffffffffffffffffffffffffffffff1916827bffffffffffffffffffffffffffffffffffffffffffffffffffffffff1916149050919050565b610e9781611b18565b610ed6576040517f08c379a0000000000000000000000000000000000000000000000000000000008152600401610ecd90612b79565b60405180910390fd5b50565b600033905090565b816004600083815260200190815260200160002060006101000a81548173ffffffffffffffffffffffffffffffffffffffff021916908373ffffffffffffffffffffffffffffffffffffffff160217905550808273ffffffffffffffffffffffffffffffffffffffff16610f54836107c3565b73ffffffffffffffffffffffffffffffffffffffff167f8c5be1e5ebec7d5bd14f71427d1e84f3dd0314c0f7b2291e5b200ac8c7c3b92560405160405180910390a45050565b600080610fa6836107c3565b90508073ffffffffffffffffffffffffffffffffffffffff168473ffffffffffffffffffffffffffffffffffffffff161480610fe85750610fe78185610d0d565b5b8061102657508373ffffffffffffffffffffffffffffffffffffffff1661100e846105d2565b73ffffffffffffffffffffffffffffffffffffffff16145b91505092915050565b8273ffffffffffffffffffffffffffffffffffffffff1661104f826107c3565b73ffffffffffffffffffffffffffffffffffffffff16146110a5576040517f08c379a000000000000000000000000000000000000000000000000000000000815260040161109c90612e67565b60405180910390fd5b600073ffffffffffffffffffffffffffffffffffffffff168273ffffffffffffffffffffffffffffffffffffffff1603611114576040517f08c379a000000000000000000000000000000000000000000000000000000000815260040161110b90612ef9565b60405180910390fd5b6111218383836001611b59565b8273ffffffffffffffffffffffffffffffffffffffff16611141826107c3565b73ffffffffffffffffffffffffffffffffffffffff1614611197576040517f08c379a000000000000000000000000000000000000000000000000000000000815260040161118e90612e67565b60405180910390fd5b6004600082815260200190815260200160002060006101000a81549073ffffffffffffffffffffffffffffffffffffffff02191690556001600360008573ffffffffffffffffffffffffffffffffffffffff1673ffffffffffffffffffffffffffffffffffffffff168152602001908152602001600020600082825403925050819055506001600360008473ffffffffffffffffffffffffffffffffffffffff1673ffffffffffffffffffffffffffffffffffffffff16815260200190815260200160002060008282540192505081905550816002600083815260200190815260200160002060006101000a81548173ffffffffffffffffffffffffffffffffffffffff021916908373ffffffffffffffffffffffffffffffffffffffff160217905550808273ffffffffffffffffffffffffffffffffffffffff168473ffffffffffffffffffffffffffffffffffffffff167fddf252ad1be2c89b69c2b068fc378daa952ba7f163c4a11628f55a4df523b3ef60405160405180910390a46113238383836001611c7f565b505050565b611330610ed9565b73ffffffffffffffffffffffffffffffffffffffff1661134e610aaa565b73ffffffffffffffffffffffffffffffffffffffff16146113a4576040517f08c379a000000000000000000000000000000000000000000000000000000000815260040161139b90612f65565b60405180910390fd5b565b6113ae611328565b80600073ffffffffffffffffffffffffffffffffffffffff168173ffffffffffffffffffffffffffffffffffffffff160361141e576040517f08c379a000000000000000000000000000000000000000000000000000000000815260040161141590612fd1565b60405180910390fd5b61142782611c85565b611466576040517f08c379a000000000000000000000000000000000000000000000000000000000815260040161145d90613063565b60405180910390fd5b600760008373ffffffffffffffffffffffffffffffffffffffff1673ffffffffffffffffffffffffffffffffffffffff16815260200190815260200160002060000160006101000a81549073ffffffffffffffffffffffffffffffffffffffff0219169055600760008373ffffffffffffffffffffffffffffffffffffffff1673ffffffffffffffffffffffffffffffffffffffff168152602001908152602001600020600080820160006101000a81549073ffffffffffffffffffffffffffffffffffffffff021916905550505050565b60006002600083815260200190815260200160002060009054906101000a900473ffffffffffffffffffffffffffffffffffffffff169050919050565b6000600660009054906101000a900473ffffffffffffffffffffffffffffffffffffffff16905081600660006101000a81548173ffffffffffffffffffffffffffffffffffffffff021916908373ffffffffffffffffffffffffffffffffffffffff1602179055508173ffffffffffffffffffffffffffffffffffffffff168173ffffffffffffffffffffffffffffffffffffffff167f8be0079c531659141344cd1fd0a4f28419497f9722a3daafe3b4186f6b6457e060405160405180910390a35050565b600081600001549050919050565b6001816000016000828254019250508190555050565b611679828260405180602001604052806000815250611de8565b5050565b8173ffffffffffffffffffffffffffffffffffffffff168373ffffffffffffffffffffffffffffffffffffffff16036116eb576040517f08c379a00000000000000000000000000000000000000000000000000000000081526004016116e2906130cf565b60405180910390fd5b80600560008573ffffffffffffffffffffffffffffffffffffffff1673ffffffffffffffffffffffffffffffffffffffff16815260200190815260200160002060008473ffffffffffffffffffffffffffffffffffffffff1673ffffffffffffffffffffffffffffffffffffffff16815260200190815260200160002060006101000a81548160ff0219169083151502179055508173ffffffffffffffffffffffffffffffffffffffff168373ffffffffffffffffffffffffffffffffffffffff167f17307eab39ab6107e8899845ad3d59bd9653f200f220920489ca2b5937696c31836040516117dc9190612411565b60405180910390a3505050565b6117f484848461102f565b61180084848484611e43565b61183f576040517f08c379a000000000000000000000000000000000000000000000000000000000815260040161183690613161565b60405180910390fd5b50505050565b61184d611328565b80600073ffffffffffffffffffffffffffffffffffffffff168173ffffffffffffffffffffffffffffffffffffffff16036118bd576040517f08c379a00000000000000000000000000000000000000000000000000000000081526004016118b490612fd1565b60405180910390fd5b6118c682611c85565b15611906576040517f08c379a00000000000000000000000000000000000000000000000000000000081526004016118fd906131f3565b60405180910390fd5b60405180602001604052808373ffffffffffffffffffffffffffffffffffffffff16815250600760008473ffffffffffffffffffffffffffffffffffffffff1673ffffffffffffffffffffffffffffffffffffffff16815260200190815260200160002060008201518160000160006101000a81548173ffffffffffffffffffffffffffffffffffffffff021916908373ffffffffffffffffffffffffffffffffffffffff1602179055509050505050565b6060600980546119c790612946565b80601f01602080910402602001604051908101604052809291908181526020018280546119f390612946565b8015611a405780601f10611a1557610100808354040283529160200191611a40565b820191906000526020600020905b815481529060010190602001808311611a2357829003601f168201915b5050505050905090565b606060006001611a5984611fca565b01905060008167ffffffffffffffff811115611a7857611a77612729565b5b6040519080825280601f01601f191660200182016040528015611aaa5781602001600182028036833780820191505090505b509050600082602001820190505b600115611b0d578080600190039150507f3031323334353637383961626364656600000000000000000000000000000000600a86061a8153600a8581611b0157611b00613213565b5b04945060008503611ab8575b819350505050919050565b60008073ffffffffffffffffffffffffffffffffffffffff16611b3a83611538565b73ffffffffffffffffffffffffffffffffffffffff1614159050919050565b6001811115611c7957600073ffffffffffffffffffffffffffffffffffffffff168473ffffffffffffffffffffffffffffffffffffffff1614611bed5780600360008673ffffffffffffffffffffffffffffffffffffffff1673ffffffffffffffffffffffffffffffffffffffff1681526020019081526020016000206000828254611be59190613271565b925050819055505b600073ffffffffffffffffffffffffffffffffffffffff168373ffffffffffffffffffffffffffffffffffffffff1614611c785780600360008573ffffffffffffffffffffffffffffffffffffffff1673ffffffffffffffffffffffffffffffffffffffff1681526020019081526020016000206000828254611c7091906132a5565b925050819055505b5b50505050565b50505050565b6000611c8f611328565b81600073ffffffffffffffffffffffffffffffffffffffff168173ffffffffffffffffffffffffffffffffffffffff1603611cff576040517f08c379a0000000000000000000000000000000000000000000000000000000008152600401611cf690612fd1565b60405180910390fd5b600073ffffffffffffffffffffffffffffffffffffffff16600760008573ffffffffffffffffffffffffffffffffffffffff1673ffffffffffffffffffffffffffffffffffffffff16815260200190815260200160002060000160009054906101000a900473ffffffffffffffffffffffffffffffffffffffff1673ffffffffffffffffffffffffffffffffffffffff16141580611dcf57508273ffffffffffffffffffffffffffffffffffffffff16611db7610aaa565b73ffffffffffffffffffffffffffffffffffffffff16145b15611ddd5760019150611de2565b600091505b50919050565b611df2838361211d565b611dff6000848484611e43565b611e3e576040517f08c379a0000000000000000000000000000000000000000000000000000000008152600401611e3590613161565b60405180910390fd5b505050565b6000611e648473ffffffffffffffffffffffffffffffffffffffff1661233a565b15611fbd578373ffffffffffffffffffffffffffffffffffffffff1663150b7a02611e8d610ed9565b8786866040518563ffffffff1660e01b8152600401611eaf949392919061332e565b6020604051808303816000875af1925050508015611eeb57506040513d601f19601f82011682018060405250810190611ee8919061338f565b60015b611f6d573d8060008114611f1b576040519150601f19603f3d011682016040523d82523d6000602084013e611f20565b606091505b506000815103611f65576040517f08c379a0000000000000000000000000000000000000000000000000000000008152600401611f5c90613161565b60405180910390fd5b805181602001fd5b63150b7a0260e01b7bffffffffffffffffffffffffffffffffffffffffffffffffffffffff1916817bffffffffffffffffffffffffffffffffffffffffffffffffffffffff191614915050611fc2565b600190505b949350505050565b600080600090507a184f03e93ff9f4daa797ed6e38ed64bf6a1f0100000000000000008310612028577a184f03e93ff9f4daa797ed6e38ed64bf6a1f010000000000000000838161201e5761201d613213565b5b0492506040810190505b6d04ee2d6d415b85acef81000000008310612065576d04ee2d6d415b85acef8100000000838161205b5761205a613213565b5b0492506020810190505b662386f26fc10000831061209457662386f26fc10000838161208a57612089613213565b5b0492506010810190505b6305f5e10083106120bd576305f5e10083816120b3576120b2613213565b5b0492506008810190505b61271083106120e25761271083816120d8576120d7613213565b5b0492506004810190505b6064831061210557606483816120fb576120fa613213565b5b0492506002810190505b600a8310612114576001810190505b80915050919050565b600073ffffffffffffffffffffffffffffffffffffffff168273ffffffffffffffffffffffffffffffffffffffff160361218c576040517f08c379a000000000000000000000000000000000000000000000000000000000815260040161218390613408565b60405180910390fd5b61219581611b18565b156121d5576040517f08c379a00000000000000000000000000000000000000000000000000000000081526004016121cc90613474565b60405180910390fd5b6121e3600083836001611b59565b6121ec81611b18565b1561222c576040517f08c379a000000000000000000000000000000000000000000000000000000000815260040161222390613474565b60405180910390fd5b6001600360008473ffffffffffffffffffffffffffffffffffffffff1673ffffffffffffffffffffffffffffffffffffffff16815260200190815260200160002060008282540192505081905550816002600083815260200190815260200160002060006101000a81548173ffffffffffffffffffffffffffffffffffffffff021916908373ffffffffffffffffffffffffffffffffffffffff160217905550808273ffffffffffffffffffffffffffffffffffffffff16600073ffffffffffffffffffffffffffffffffffffffff167fddf252ad1be2c89b69c2b068fc378daa952ba7f163c4a11628f55a4df523b3ef60405160405180910390a4612336600083836001611c7f565b5050565b6000808273ffffffffffffffffffffffffffffffffffffffff163b119050919050565b6000604051905090565b600080fd5b600080fd5b60007fffffffff0000000000000000000000000000000000000000000000000000000082169050919050565b6123a681612371565b81146123b157600080fd5b50565b6000813590506123c38161239d565b92915050565b6000602082840312156123df576123de612367565b5b60006123ed848285016123b4565b91505092915050565b60008115159050919050565b61240b816123f6565b82525050565b60006020820190506124266000830184612402565b92915050565b600081519050919050565b600082825260208201905092915050565b60005b8381101561246657808201518184015260208101905061244b565b60008484015250505050565b6000601f19601f8301169050919050565b600061248e8261242c565b6124988185612437565b93506124a8818560208601612448565b6124b181612472565b840191505092915050565b600060208201905081810360008301526124d68184612483565b905092915050565b6000819050919050565b6124f1816124de565b81146124fc57600080fd5b50565b60008135905061250e816124e8565b92915050565b60006020828403121561252a57612529612367565b5b6000612538848285016124ff565b91505092915050565b600073ffffffffffffffffffffffffffffffffffffffff82169050919050565b600061256c82612541565b9050919050565b61257c81612561565b82525050565b60006020820190506125976000830184612573565b92915050565b6125a681612561565b81146125b157600080fd5b50565b6000813590506125c38161259d565b92915050565b600080604083850312156125e0576125df612367565b5b60006125ee858286016125b4565b92505060206125ff858286016124ff565b9150509250929050565b60008060006060848603121561262257612621612367565b5b6000612630868287016125b4565b9350506020612641868287016125b4565b9250506040612652868287016124ff565b9150509250925092565b60006020828403121561267257612671612367565b5b6000612680848285016125b4565b91505092915050565b612692816124de565b82525050565b60006020820190506126ad6000830184612689565b92915050565b6126bc816123f6565b81146126c757600080fd5b50565b6000813590506126d9816126b3565b92915050565b600080604083850312156126f6576126f5612367565b5b6000612704858286016125b4565b9250506020612715858286016126ca565b9150509250929050565b600080fd5b600080fd5b7f4e487b7100000000000000000000000000000000000000000000000000000000600052604160045260246000fd5b61276182612472565b810181811067ffffffffffffffff821117156127805761277f612729565b5b80604052505050565b600061279361235d565b905061279f8282612758565b919050565b600067ffffffffffffffff8211156127bf576127be612729565b5b6127c882612472565b9050602081019050919050565b82818337600083830152505050565b60006127f76127f2846127a4565b612789565b90508281526020810184848401111561281357612812612724565b5b61281e8482856127d5565b509392505050565b600082601f83011261283b5761283a61271f565b5b813561284b8482602086016127e4565b91505092915050565b6000806000806080858703121561286e5761286d612367565b5b600061287c878288016125b4565b945050602061288d878288016125b4565b935050604061289e878288016124ff565b925050606085013567ffffffffffffffff8111156128bf576128be61236c565b5b6128cb87828801612826565b91505092959194509250565b600080604083850312156128ee576128ed612367565b5b60006128fc858286016125b4565b925050602061290d858286016125b4565b9150509250929050565b7f4e487b7100000000000000000000000000000000000000000000000000000000600052602260045260246000fd5b6000600282049050600182168061295e57607f821691505b60208210810361297157612970612917565b5b50919050565b7f4552433732313a20617070726f76616c20746f2063757272656e74206f776e6560008201527f7200000000000000000000000000000000000000000000000000000000000000602082015250565b60006129d3602183612437565b91506129de82612977565b604082019050919050565b60006020820190508181036000830152612a02816129c6565b9050919050565b7f4552433732313a20617070726f76652063616c6c6572206973206e6f7420746f60008201527f6b656e206f776e6572206f7220617070726f76656420666f7220616c6c000000602082015250565b6000612a65603d83612437565b9150612a7082612a09565b604082019050919050565b60006020820190508181036000830152612a9481612a58565b9050919050565b7f4552433732313a2063616c6c6572206973206e6f7420746f6b656e206f776e6560008201527f72206f7220617070726f76656400000000000000000000000000000000000000602082015250565b6000612af7602d83612437565b9150612b0282612a9b565b604082019050919050565b60006020820190508181036000830152612b2681612aea565b9050919050565b7f4552433732313a20696e76616c696420746f6b656e2049440000000000000000600082015250565b6000612b63601883612437565b9150612b6e82612b2d565b602082019050919050565b60006020820190508181036000830152612b9281612b56565b9050919050565b7f4552433732313a2061646472657373207a65726f206973206e6f74206120766160008201527f6c6964206f776e65720000000000000000000000000000000000000000000000602082015250565b6000612bf5602983612437565b9150612c0082612b99565b604082019050919050565b60006020820190508181036000830152612c2481612be8565b9050919050565b7f596f7520617265206e6f7420616e2061646d696e206f72206f776e65722e0000600082015250565b6000612c61601e83612437565b9150612c6c82612c2b565b602082019050919050565b60006020820190508181036000830152612c9081612c54565b9050919050565b7f4d617820737570706c7920726561636865640000000000000000000000000000600082015250565b6000612ccd601283612437565b9150612cd882612c97565b602082019050919050565b60006020820190508181036000830152612cfc81612cc0565b9050919050565b600081905092915050565b6000612d198261242c565b612d238185612d03565b9350612d33818560208601612448565b80840191505092915050565b6000612d4b8285612d0e565b9150612d578284612d0e565b91508190509392505050565b7f4f776e61626c653a206e6577206f776e657220697320746865207a65726f206160008201527f6464726573730000000000000000000000000000000000000000000000000000602082015250565b6000612dbf602683612437565b9150612dca82612d63565b604082019050919050565b60006020820190508181036000830152612dee81612db2565b9050919050565b7f4552433732313a207472616e736665722066726f6d20696e636f72726563742060008201527f6f776e6572000000000000000000000000000000000000000000000000000000602082015250565b6000612e51602583612437565b9150612e5c82612df5565b604082019050919050565b60006020820190508181036000830152612e8081612e44565b9050919050565b7f4552433732313a207472616e7366657220746f20746865207a65726f2061646460008201527f7265737300000000000000000000000000000000000000000000000000000000602082015250565b6000612ee3602483612437565b9150612eee82612e87565b604082019050919050565b60006020820190508181036000830152612f1281612ed6565b9050919050565b7f4f776e61626c653a2063616c6c6572206973206e6f7420746865206f776e6572600082015250565b6000612f4f602083612437565b9150612f5a82612f19565b602082019050919050565b60006020820190508181036000830152612f7e81612f42565b9050919050565b7f496e76616c696420416464726573732e00000000000000000000000000000000600082015250565b6000612fbb601083612437565b9150612fc682612f85565b602082019050919050565b60006020820190508181036000830152612fea81612fae565b9050919050565b7f4572726f723a2041646472657373206973206e6f7420616e2061646d696e737460008201527f7261746f722e0000000000000000000000000000000000000000000000000000602082015250565b600061304d602683612437565b915061305882612ff1565b604082019050919050565b6000602082019050818103600083015261307c81613040565b9050919050565b7f4552433732313a20617070726f766520746f2063616c6c657200000000000000600082015250565b60006130b9601983612437565b91506130c482613083565b602082019050919050565b600060208201905081810360008301526130e8816130ac565b9050919050565b7f4552433732313a207472616e7366657220746f206e6f6e20455243373231526560008201527f63656976657220696d706c656d656e7465720000000000000000000000000000602082015250565b600061314b603283612437565b9150613156826130ef565b604082019050919050565b6000602082019050818103600083015261317a8161313e565b9050919050565b7f4572726f723a204164647265737320697320616c726561647920616e2061646d60008201527f696e73747261746f722e00000000000000000000000000000000000000000000602082015250565b60006131dd602a83612437565b91506131e882613181565b604082019050919050565b6000602082019050818103600083015261320c816131d0565b9050919050565b7f4e487b7100000000000000000000000000000000000000000000000000000000600052601260045260246000fd5b7f4e487b7100000000000000000000000000000000000000000000000000000000600052601160045260246000fd5b600061327c826124de565b9150613287836124de565b925082820390508181111561329f5761329e613242565b5b92915050565b60006132b0826124de565b91506132bb836124de565b92508282019050808211156132d3576132d2613242565b5b92915050565b600081519050919050565b600082825260208201905092915050565b6000613300826132d9565b61330a81856132e4565b935061331a818560208601612448565b61332381612472565b840191505092915050565b60006080820190506133436000830187612573565b6133506020830186612573565b61335d6040830185612689565b818103606083015261336f81846132f5565b905095945050505050565b6000815190506133898161239d565b92915050565b6000602082840312156133a5576133a4612367565b5b60006133b38482850161337a565b91505092915050565b7f4552433732313a206d696e7420746f20746865207a65726f2061646472657373600082015250565b60006133f2602083612437565b91506133fd826133bc565b602082019050919050565b60006020820190508181036000830152613421816133e5565b9050919050565b7f4552433732313a20746f6b656e20616c7265616479206d696e74656400000000600082015250565b600061345e601c83612437565b915061346982613428565b602082019050919050565b6000602082019050818103600083015261348d81613451565b905091905056fe68747470733a2f2f7261772e67697468756275736572636f6e74656e742e636f6d2f49616e536d697468313333372f47656f636f696e576562332f6d6574612f6d6574612f636f6e74726163742e6a736f6ea2646970667358221220c2b70ada7f96e4b0c5536902a49ceb5df495e2611d178d782cb9632b9d0d318464736f6c6343000811003368747470733a2f2f7261772e67697468756275736572636f6e74656e742e636f6d2f49616e536d697468313333372f47656f636f696e576562332f6d6574612f6d6574612f",
  "linkReferences": {},
  "deployedLinkReferences": {}
}