{
    "contractName": "GeoNFT",
    "abi": [
        {
            "inputs": [],
            "stateMutability": "nonpayable",
            "type": "constructor"
        },
        {
            "anonymous": false,
            "inputs": [
                {
                    "indexed": true,
                    "internalType": "address",
                    "name": "owner",
                    "type": "address"
                },
                {
                    "indexed": true,
                    "internalType": "address",
                    "name": "approved",
                    "type": "address"
                },
                {
                    "indexed": true,
                    "internalType": "uint256",
                    "name": "tokenId",
                    "type": "uint256"
                }
            ],
            "name": "Approval",
            "type": "event"
        },
        {
            "anonymous": false,
            "inputs": [
                {
                    "indexed": true,
                    "internalType": "address",
                    "name": "owner",
                    "type": "address"
                },
                {
                    "indexed": true,
                    "internalType": "address",
                    "name": "operator",
                    "type": "address"
                },
                {
                    "indexed": false,
                    "internalType": "bool",
                    "name": "approved",
                    "type": "bool"
                }
            ],
            "name": "ApprovalForAll",
            "type": "event"
        },
        {
            "anonymous": false,
            "inputs": [
                {
                    "indexed": true,
                    "internalType": "address",
                    "name": "previousOwner",
                    "type": "address"
                },
                {
                    "indexed": true,
                    "internalType": "address",
                    "name": "newOwner",
                    "type": "address"
                }
            ],
            "name": "OwnershipTransferred",
            "type": "event"
        },
        {
            "anonymous": false,
            "inputs": [
                {
                    "indexed": true,
                    "internalType": "address",
                    "name": "from",
                    "type": "address"
                },
                {
                    "indexed": true,
                    "internalType": "address",
                    "name": "to",
                    "type": "address"
                },
                {
                    "indexed": true,
                    "internalType": "uint256",
                    "name": "tokenId",
                    "type": "uint256"
                }
            ],
            "name": "Transfer",
            "type": "event"
        },
        {
            "inputs": [
                {
                    "internalType": "address",
                    "name": "to",
                    "type": "address"
                },
                {
                    "internalType": "uint256",
                    "name": "tokenId",
                    "type": "uint256"
                }
            ],
            "name": "approve",
            "outputs": [],
            "stateMutability": "nonpayable",
            "type": "function"
        },
        {
            "inputs": [
                {
                    "internalType": "address",
                    "name": "owner",
                    "type": "address"
                }
            ],
            "name": "balanceOf",
            "outputs": [
                {
                    "internalType": "uint256",
                    "name": "",
                    "type": "uint256"
                }
            ],
            "stateMutability": "view",
            "type": "function"
        },
        {
            "inputs": [],
            "name": "baseTokenURI",
            "outputs": [
                {
                    "internalType": "string",
                    "name": "",
                    "type": "string"
                }
            ],
            "stateMutability": "view",
            "type": "function"
        },
        {
            "inputs": [],
            "name": "contractURI",
            "outputs": [
                {
                    "internalType": "string",
                    "name": "",
                    "type": "string"
                }
            ],
            "stateMutability": "pure",
            "type": "function"
        },
        {
            "inputs": [
                {
                    "internalType": "uint256",
                    "name": "tokenId",
                    "type": "uint256"
                }
            ],
            "name": "getApproved",
            "outputs": [
                {
                    "internalType": "address",
                    "name": "",
                    "type": "address"
                }
            ],
            "stateMutability": "view",
            "type": "function"
        },
        {
            "inputs": [
                {
                    "internalType": "address",
                    "name": "owner",
                    "type": "address"
                },
                {
                    "internalType": "address",
                    "name": "operator",
                    "type": "address"
                }
            ],
            "name": "isApprovedForAll",
            "outputs": [
                {
                    "internalType": "bool",
                    "name": "",
                    "type": "bool"
                }
            ],
            "stateMutability": "view",
            "type": "function"
        },
        {
            "inputs": [
                {
                    "internalType": "address",
                    "name": "recipient",
                    "type": "address"
                }
            ],
            "name": "mintTo",
            "outputs": [
                {
                    "internalType": "uint256",
                    "name": "",
                    "type": "uint256"
                }
            ],
            "stateMutability": "nonpayable",
            "type": "function"
        },
        {
            "inputs": [],
            "name": "name",
            "outputs": [
                {
                    "internalType": "string",
                    "name": "",
                    "type": "string"
                }
            ],
            "stateMutability": "view",
            "type": "function"
        },
        {
            "inputs": [],
            "name": "owner",
            "outputs": [
                {
                    "internalType": "address",
                    "name": "",
                    "type": "address"
                }
            ],
            "stateMutability": "view",
            "type": "function"
        },
        {
            "inputs": [
                {
                    "internalType": "uint256",
                    "name": "tokenId",
                    "type": "uint256"
                }
            ],
            "name": "ownerOf",
            "outputs": [
                {
                    "internalType": "address",
                    "name": "",
                    "type": "address"
                }
            ],
            "stateMutability": "view",
            "type": "function"
        },
        {
            "inputs": [],
            "name": "renounceOwnership",
            "outputs": [],
            "stateMutability": "nonpayable",
            "type": "function"
        },
        {
            "inputs": [
                {
                    "internalType": "address",
                    "name": "from",
                    "type": "address"
                },
                {
                    "internalType": "address",
                    "name": "to",
                    "type": "address"
                },
                {
                    "internalType": "uint256",
                    "name": "tokenId",
                    "type": "uint256"
                }
            ],
            "name": "safeTransferFrom",
            "outputs": [],
            "stateMutability": "nonpayable",
            "type": "function"
        },
        {
            "inputs": [
                {
                    "internalType": "address",
                    "name": "from",
                    "type": "address"
                },
                {
                    "internalType": "address",
                    "name": "to",
                    "type": "address"
                },
                {
                    "internalType": "uint256",
                    "name": "tokenId",
                    "type": "uint256"
                },
                {
                    "internalType": "bytes",
                    "name": "data",
                    "type": "bytes"
                }
            ],
            "name": "safeTransferFrom",
            "outputs": [],
            "stateMutability": "nonpayable",
            "type": "function"
        },
        {
            "inputs": [
                {
                    "internalType": "address",
                    "name": "operator",
                    "type": "address"
                },
                {
                    "internalType": "bool",
                    "name": "approved",
                    "type": "bool"
                }
            ],
            "name": "setApprovalForAll",
            "outputs": [],
            "stateMutability": "nonpayable",
            "type": "function"
        },
        {
            "inputs": [
                {
                    "internalType": "string",
                    "name": "_baseTokenURI",
                    "type": "string"
                }
            ],
            "name": "setBaseTokenURI",
            "outputs": [],
            "stateMutability": "nonpayable",
            "type": "function"
        },
        {
            "inputs": [
                {
                    "internalType": "bytes4",
                    "name": "interfaceId",
                    "type": "bytes4"
                }
            ],
            "name": "supportsInterface",
            "outputs": [
                {
                    "internalType": "bool",
                    "name": "",
                    "type": "bool"
                }
            ],
            "stateMutability": "view",
            "type": "function"
        },
        {
            "inputs": [],
            "name": "symbol",
            "outputs": [
                {
                    "internalType": "string",
                    "name": "",
                    "type": "string"
                }
            ],
            "stateMutability": "view",
            "type": "function"
        },
        {
            "inputs": [
                {
                    "internalType": "uint256",
                    "name": "tokenId",
                    "type": "uint256"
                }
            ],
            "name": "tokenURI",
            "outputs": [
                {
                    "internalType": "string",
                    "name": "",
                    "type": "string"
                }
            ],
            "stateMutability": "view",
            "type": "function"
        },
        {
            "inputs": [
                {
                    "internalType": "address",
                    "name": "from",
                    "type": "address"
                },
                {
                    "internalType": "address",
                    "name": "to",
                    "type": "address"
                },
                {
                    "internalType": "uint256",
                    "name": "tokenId",
                    "type": "uint256"
                }
            ],
            "name": "transferFrom",
            "outputs": [],
            "stateMutability": "nonpayable",
            "type": "function"
        },
        {
            "inputs": [
                {
                    "internalType": "address",
                    "name": "newOwner",
                    "type": "address"
                }
            ],
            "name": "transferOwnership",
            "outputs": [],
            "stateMutability": "nonpayable",
            "type": "function"
        }
    ],
    "bytecode": "60806040523480156200001157600080fd5b506040518060400160405280600a81526020016911d95bd8dbda5b93919560b21b8152506040518060400160405280600481526020016311d3919560e21b8152508160009081620000639190620001af565b506001620000728282620001af565b5050506200008f62000089620000b460201b60201c565b620000b8565b604080516020810190915260008152600890620000ad9082620001af565b506200027b565b3390565b600680546001600160a01b038381166001600160a01b0319831681179093556040519116919082907f8be0079c531659141344cd1fd0a4f28419497f9722a3daafe3b4186f6b6457e090600090a35050565b634e487b7160e01b600052604160045260246000fd5b600181811c908216806200013557607f821691505b6020821081036200015657634e487b7160e01b600052602260045260246000fd5b50919050565b601f821115620001aa57600081815260208120601f850160051c81016020861015620001855750805b601f850160051c820191505b81811015620001a65782815560010162000191565b5050505b505050565b81516001600160401b03811115620001cb57620001cb6200010a565b620001e381620001dc845462000120565b846200015c565b602080601f8311600181146200021b5760008415620002025750858301515b600019600386901b1c1916600185901b178555620001a6565b600085815260208120601f198616915b828110156200024c578886015182559484019460019091019084016200022b565b50858210156200026b5787850151600019600388901b60f8161c191681555b5050505050600190811b01905550565b611836806200028b6000396000f3fe608060405234801561001057600080fd5b506004361061012c5760003560e01c8063755edd17116100ad578063c87b56dd11610071578063c87b56dd14610275578063d547cfb714610288578063e8a3d48514610290578063e985e9c514610298578063f2fde38b146102ab57600080fd5b8063755edd17146102235780638da5cb5b1461023657806395d89b4114610247578063a22cb4651461024f578063b88d4fde1461026257600080fd5b806330176e13116100f457806330176e13146101c157806342842e0e146101d45780636352211e146101e757806370a08231146101fa578063715018a61461021b57600080fd5b806301ffc9a71461013157806306fdde0314610159578063081812fc1461016e578063095ea7b31461019957806323b872dd146101ae575b600080fd5b61014461013f3660046111cc565b6102be565b60405190151581526020015b60405180910390f35b610161610310565b6040516101509190611239565b61018161017c36600461124c565b6103a2565b6040516001600160a01b039091168152602001610150565b6101ac6101a736600461127c565b6103c9565b005b6101ac6101bc3660046112a6565b6104e3565b6101ac6101cf36600461136e565b610514565b6101ac6101e23660046112a6565b61052c565b6101816101f536600461124c565b610547565b61020d6102083660046113b7565b6105a7565b604051908152602001610150565b6101ac61062d565b61020d6102313660046113b7565b610641565b6006546001600160a01b0316610181565b610161610675565b6101ac61025d3660046113d2565b610684565b6101ac61027036600461140e565b61068f565b61016161028336600461124c565b6106c7565b61016161072e565b6101616107bc565b6101446102a636600461148a565b6107dc565b6101ac6102b93660046113b7565b61080a565b60006001600160e01b031982166380ac58cd60e01b14806102ef57506001600160e01b03198216635b5e139f60e01b145b8061030a57506301ffc9a760e01b6001600160e01b03198316145b92915050565b60606000805461031f906114bd565b80601f016020809104026020016040519081016040528092919081815260200182805461034b906114bd565b80156103985780601f1061036d57610100808354040283529160200191610398565b820191906000526020600020905b81548152906001019060200180831161037b57829003601f168201915b5050505050905090565b60006103ad82610883565b506000908152600460205260409020546001600160a01b031690565b60006103d482610547565b9050806001600160a01b0316836001600160a01b0316036104465760405162461bcd60e51b815260206004820152602160248201527f4552433732313a20617070726f76616c20746f2063757272656e74206f776e656044820152603960f91b60648201526084015b60405180910390fd5b336001600160a01b0382161480610462575061046281336107dc565b6104d45760405162461bcd60e51b815260206004820152603d60248201527f4552433732313a20617070726f76652063616c6c6572206973206e6f7420746f60448201527f6b656e206f776e6572206f7220617070726f76656420666f7220616c6c000000606482015260840161043d565b6104de83836108e2565b505050565b6104ed3382610950565b6105095760405162461bcd60e51b815260040161043d906114f7565b6104de8383836109af565b61051c610b20565b60086105288282611592565b5050565b6104de8383836040518060200160405280600081525061068f565b6000818152600260205260408120546001600160a01b03168061030a5760405162461bcd60e51b8152602060048201526018602482015277115490cdcc8c4e881a5b9d985b1a59081d1bdad95b88125160421b604482015260640161043d565b60006001600160a01b0382166106115760405162461bcd60e51b815260206004820152602960248201527f4552433732313a2061646472657373207a65726f206973206e6f7420612076616044820152683634b21037bbb732b960b91b606482015260840161043d565b506001600160a01b031660009081526003602052604090205490565b610635610b20565b61063f6000610b7a565b565b600061064b610b20565b610659600780546001019055565b600061066460075490565b905061030a8382610bcc565b919050565b60606001805461031f906114bd565b610528338383610be6565b6106993383610950565b6106b55760405162461bcd60e51b815260040161043d906114f7565b6106c184848484610cb4565b50505050565b60606106d282610883565b60006106dc610ce7565b905060008151116106fc5760405180602001604052806000815250610727565b8061070684610cf6565b604051602001610717929190611652565b6040516020818303038152906040525b9392505050565b6008805461073b906114bd565b80601f0160208091040260200160405190810160405280929190818152602001828054610767906114bd565b80156107b45780601f10610789576101008083540402835291602001916107b4565b820191906000526020600020905b81548152906001019060200180831161079757829003601f168201915b505050505081565b60606040518060800160405280605281526020016117af60529139905090565b6001600160a01b03918216600090815260056020908152604080832093909416825291909152205460ff1690565b610812610b20565b6001600160a01b0381166108775760405162461bcd60e51b815260206004820152602660248201527f4f776e61626c653a206e6577206f776e657220697320746865207a65726f206160448201526564647265737360d01b606482015260840161043d565b61088081610b7a565b50565b6000818152600260205260409020546001600160a01b03166108805760405162461bcd60e51b8152602060048201526018602482015277115490cdcc8c4e881a5b9d985b1a59081d1bdad95b88125160421b604482015260640161043d565b600081815260046020526040902080546001600160a01b0319166001600160a01b038416908117909155819061091782610547565b6001600160a01b03167f8c5be1e5ebec7d5bd14f71427d1e84f3dd0314c0f7b2291e5b200ac8c7c3b92560405160405180910390a45050565b60008061095c83610547565b9050806001600160a01b0316846001600160a01b03161480610983575061098381856107dc565b806109a75750836001600160a01b031661099c846103a2565b6001600160a01b0316145b949350505050565b826001600160a01b03166109c282610547565b6001600160a01b0316146109e85760405162461bcd60e51b815260040161043d90611681565b6001600160a01b038216610a4a5760405162461bcd60e51b8152602060048201526024808201527f4552433732313a207472616e7366657220746f20746865207a65726f206164646044820152637265737360e01b606482015260840161043d565b610a578383836001610d89565b826001600160a01b0316610a6a82610547565b6001600160a01b031614610a905760405162461bcd60e51b815260040161043d90611681565b600081815260046020908152604080832080546001600160a01b03199081169091556001600160a01b0387811680865260038552838620805460001901905590871680865283862080546001019055868652600290945282852080549092168417909155905184937fddf252ad1be2c89b69c2b068fc378daa952ba7f163c4a11628f55a4df523b3ef91a4505050565b6006546001600160a01b0316331461063f5760405162461bcd60e51b815260206004820181905260248201527f4f776e61626c653a2063616c6c6572206973206e6f7420746865206f776e6572604482015260640161043d565b600680546001600160a01b038381166001600160a01b0319831681179093556040519116919082907f8be0079c531659141344cd1fd0a4f28419497f9722a3daafe3b4186f6b6457e090600090a35050565b610528828260405180602001604052806000815250610e11565b816001600160a01b0316836001600160a01b031603610c475760405162461bcd60e51b815260206004820152601960248201527f4552433732313a20617070726f766520746f2063616c6c657200000000000000604482015260640161043d565b6001600160a01b03838116600081815260056020908152604080832094871680845294825291829020805460ff191686151590811790915591519182527f17307eab39ab6107e8899845ad3d59bd9653f200f220920489ca2b5937696c31910160405180910390a3505050565b610cbf8484846109af565b610ccb84848484610e44565b6106c15760405162461bcd60e51b815260040161043d906116c6565b60606008805461031f906114bd565b60606000610d0383610f45565b600101905060008167ffffffffffffffff811115610d2357610d236112e2565b6040519080825280601f01601f191660200182016040528015610d4d576020820181803683370190505b5090508181016020015b600019016f181899199a1a9b1b9c1cb0b131b232b360811b600a86061a8153600a8504945084610d5757509392505050565b60018111156106c1576001600160a01b03841615610dcf576001600160a01b03841660009081526003602052604081208054839290610dc990849061172e565b90915550505b6001600160a01b038316156106c1576001600160a01b03831660009081526003602052604081208054839290610e06908490611741565b909155505050505050565b610e1b838361101d565b610e286000848484610e44565b6104de5760405162461bcd60e51b815260040161043d906116c6565b60006001600160a01b0384163b15610f3a57604051630a85bd0160e11b81526001600160a01b0385169063150b7a0290610e88903390899088908890600401611754565b6020604051808303816000875af1925050508015610ec3575060408051601f3d908101601f19168201909252610ec091810190611791565b60015b610f20573d808015610ef1576040519150601f19603f3d011682016040523d82523d6000602084013e610ef6565b606091505b508051600003610f185760405162461bcd60e51b815260040161043d906116c6565b805181602001fd5b6001600160e01b031916630a85bd0160e11b1490506109a7565b506001949350505050565b60008072184f03e93ff9f4daa797ed6e38ed64bf6a1f0160401b8310610f845772184f03e93ff9f4daa797ed6e38ed64bf6a1f0160401b830492506040015b6d04ee2d6d415b85acef81000000008310610fb0576d04ee2d6d415b85acef8100000000830492506020015b662386f26fc100008310610fce57662386f26fc10000830492506010015b6305f5e1008310610fe6576305f5e100830492506008015b6127108310610ffa57612710830492506004015b6064831061100c576064830492506002015b600a831061030a5760010192915050565b6001600160a01b0382166110735760405162461bcd60e51b815260206004820181905260248201527f4552433732313a206d696e7420746f20746865207a65726f2061646472657373604482015260640161043d565b6000818152600260205260409020546001600160a01b0316156110d85760405162461bcd60e51b815260206004820152601c60248201527f4552433732313a20746f6b656e20616c7265616479206d696e74656400000000604482015260640161043d565b6110e6600083836001610d89565b6000818152600260205260409020546001600160a01b03161561114b5760405162461bcd60e51b815260206004820152601c60248201527f4552433732313a20746f6b656e20616c7265616479206d696e74656400000000604482015260640161043d565b6001600160a01b038216600081815260036020908152604080832080546001019055848352600290915280822080546001600160a01b0319168417905551839291907fddf252ad1be2c89b69c2b068fc378daa952ba7f163c4a11628f55a4df523b3ef908290a45050565b6001600160e01b03198116811461088057600080fd5b6000602082840312156111de57600080fd5b8135610727816111b6565b60005b838110156112045781810151838201526020016111ec565b50506000910152565b600081518084526112258160208601602086016111e9565b601f01601f19169290920160200192915050565b602081526000610727602083018461120d565b60006020828403121561125e57600080fd5b5035919050565b80356001600160a01b038116811461067057600080fd5b6000806040838503121561128f57600080fd5b61129883611265565b946020939093013593505050565b6000806000606084860312156112bb57600080fd5b6112c484611265565b92506112d260208501611265565b9150604084013590509250925092565b634e487b7160e01b600052604160045260246000fd5b600067ffffffffffffffff80841115611313576113136112e2565b604051601f8501601f19908116603f0116810190828211818310171561133b5761133b6112e2565b8160405280935085815286868601111561135457600080fd5b858560208301376000602087830101525050509392505050565b60006020828403121561138057600080fd5b813567ffffffffffffffff81111561139757600080fd5b8201601f810184136113a857600080fd5b6109a7848235602084016112f8565b6000602082840312156113c957600080fd5b61072782611265565b600080604083850312156113e557600080fd5b6113ee83611265565b91506020830135801515811461140357600080fd5b809150509250929050565b6000806000806080858703121561142457600080fd5b61142d85611265565b935061143b60208601611265565b925060408501359150606085013567ffffffffffffffff81111561145e57600080fd5b8501601f8101871361146f57600080fd5b61147e878235602084016112f8565b91505092959194509250565b6000806040838503121561149d57600080fd5b6114a683611265565b91506114b460208401611265565b90509250929050565b600181811c908216806114d157607f821691505b6020821081036114f157634e487b7160e01b600052602260045260246000fd5b50919050565b6020808252602d908201527f4552433732313a2063616c6c6572206973206e6f7420746f6b656e206f776e6560408201526c1c881bdc88185c1c1c9bdd9959609a1b606082015260800190565b601f8211156104de57600081815260208120601f850160051c8101602086101561156b5750805b601f850160051c820191505b8181101561158a57828155600101611577565b505050505050565b815167ffffffffffffffff8111156115ac576115ac6112e2565b6115c0816115ba84546114bd565b84611544565b602080601f8311600181146115f557600084156115dd5750858301515b600019600386901b1c1916600185901b17855561158a565b600085815260208120601f198616915b8281101561162457888601518255948401946001909101908401611605565b50858210156116425787850151600019600388901b60f8161c191681555b5050505050600190811b01905550565b600083516116648184602088016111e9565b8351908301906116788183602088016111e9565b01949350505050565b60208082526025908201527f4552433732313a207472616e736665722066726f6d20696e636f72726563742060408201526437bbb732b960d91b606082015260800190565b60208082526032908201527f4552433732313a207472616e7366657220746f206e6f6e20455243373231526560408201527131b2b4bb32b91034b6b83632b6b2b73a32b960711b606082015260800190565b634e487b7160e01b600052601160045260246000fd5b8181038181111561030a5761030a611718565b8082018082111561030a5761030a611718565b6001600160a01b03858116825284166020820152604081018390526080606082018190526000906117879083018461120d565b9695505050505050565b6000602082840312156117a357600080fd5b8151610727816111b656fe68747470733a2f2f7261772e67697468756275736572636f6e74656e742e636f6d2f49616e536d697468313333372f47656f636f696e576562332f6d6574612f6d6574612f636f6e74726163742e6a736f6ea2646970667358221220879aa5783c3be9bc52820a9208fde701192f1f6d81e2a4b965b2a4288b1a6a4864736f6c63430008110033",
    "sourcePath": "/Users/trian/Documents/Programs/GeocoinWeb3/GeocoinWeb3/contracts/minter.sol",
    "compiler": {
        "name": "solc",
        "version": "0.8.17+commit.8df45f5f"
    },
    "functionHashes": {
        "approve(address,uint256)": "095ea7b3",
        "balanceOf(address)": "70a08231",
        "baseTokenURI()": "d547cfb7",
        "contractURI()": "e8a3d485",
        "getApproved(uint256)": "081812fc",
        "isApprovedForAll(address,address)": "e985e9c5",
        "mintTo(address)": "755edd17",
        "name()": "06fdde03",
        "owner()": "8da5cb5b",
        "ownerOf(uint256)": "6352211e",
        "renounceOwnership()": "715018a6",
        "safeTransferFrom(address,address,uint256)": "42842e0e",
        "safeTransferFrom(address,address,uint256,bytes)": "b88d4fde",
        "setApprovalForAll(address,bool)": "a22cb465",
        "setBaseTokenURI(string)": "30176e13",
        "supportsInterface(bytes4)": "01ffc9a7",
        "symbol()": "95d89b41",
        "tokenURI(uint256)": "c87b56dd",
        "transferFrom(address,address,uint256)": "23b872dd",
        "transferOwnership(address)": "f2fde38b"
    },
    "gasEstimates": {
        "creation": {
            "codeDepositCost": "1239600",
            "executionCost": "infinite",
            "totalCost": "infinite"
        },
        "external": {
            "approve(address,uint256)": "infinite",
            "balanceOf(address)": "2678",
            "baseTokenURI()": "infinite",
            "contractURI()": "infinite",
            "getApproved(uint256)": "4792",
            "isApprovedForAll(address,address)": "infinite",
            "mintTo(address)": "infinite",
            "name()": "infinite",
            "owner()": "2376",
            "ownerOf(uint256)": "2605",
            "renounceOwnership()": "infinite",
            "safeTransferFrom(address,address,uint256)": "infinite",
            "safeTransferFrom(address,address,uint256,bytes)": "infinite",
            "setApprovalForAll(address,bool)": "26772",
            "setBaseTokenURI(string)": "infinite",
            "supportsInterface(bytes4)": "534",
            "symbol()": "infinite",
            "tokenURI(uint256)": "infinite",
            "transferFrom(address,address,uint256)": "infinite",
            "transferOwnership(address)": "28446"
        },
        "internal": {
            "_baseURI()": "infinite"
        }
    }
}