{
    "contractName": "Raffle",
    "abi": [
        {
            "inputs": [],
            "stateMutability": "nonpayable",
            "type": "constructor"
        },
        {
            "inputs": [
                {
                    "internalType": "address",
                    "name": "addr",
                    "type": "address"
                }
            ],
            "name": "InvalidAddress",
            "type": "error"
        },
        {
            "inputs": [
                {
                    "internalType": "uint256",
                    "name": "tickets",
                    "type": "uint256"
                },
                {
                    "internalType": "uint256",
                    "name": "raffleCost",
                    "type": "uint256"
                }
            ],
            "name": "UnevenPayment",
            "type": "error"
        },
        {
            "inputs": [
                {
                    "internalType": "address",
                    "name": "addr",
                    "type": "address"
                }
            ],
            "name": "duplicateWinner",
            "type": "error"
        },
        {
            "anonymous": false,
            "inputs": [
                {
                    "indexed": true,
                    "internalType": "address",
                    "name": "previousOwner",
                    "type": "address"
                },
                {
                    "indexed": true,
                    "internalType": "address",
                    "name": "newOwner",
                    "type": "address"
                }
            ],
            "name": "OwnershipTransferred",
            "type": "event"
        },
        {
            "inputs": [],
            "name": "addUser",
            "outputs": [],
            "stateMutability": "nonpayable",
            "type": "function"
        },
        {
            "inputs": [
                {
                    "internalType": "uint256",
                    "name": "",
                    "type": "uint256"
                }
            ],
            "name": "awardedUsers",
            "outputs": [
                {
                    "internalType": "address",
                    "name": "",
                    "type": "address"
                }
            ],
            "stateMutability": "view",
            "type": "function"
        },
        {
            "inputs": [
                {
                    "internalType": "uint256",
                    "name": "t",
                    "type": "uint256"
                }
            ],
            "name": "buyTickets",
            "outputs": [],
            "stateMutability": "payable",
            "type": "function"
        },
        {
            "inputs": [],
            "name": "getWeightedFromRaffle",
            "outputs": [
                {
                    "internalType": "address[]",
                    "name": "",
                    "type": "address[]"
                }
            ],
            "stateMutability": "view",
            "type": "function"
        },
        {
            "inputs": [],
            "name": "getWinnersFromRaffle",
            "outputs": [
                {
                    "internalType": "address[]",
                    "name": "",
                    "type": "address[]"
                }
            ],
            "stateMutability": "view",
            "type": "function"
        },
        {
            "inputs": [],
            "name": "owner",
            "outputs": [
                {
                    "internalType": "address",
                    "name": "",
                    "type": "address"
                }
            ],
            "stateMutability": "view",
            "type": "function"
        },
        {
            "inputs": [
                {
                    "internalType": "address",
                    "name": "dest",
                    "type": "address"
                }
            ],
            "name": "payments",
            "outputs": [
                {
                    "internalType": "uint256",
                    "name": "",
                    "type": "uint256"
                }
            ],
            "stateMutability": "view",
            "type": "function"
        },
        {
            "inputs": [
                {
                    "internalType": "uint256",
                    "name": "",
                    "type": "uint256"
                }
            ],
            "name": "registeredUsers",
            "outputs": [
                {
                    "internalType": "address",
                    "name": "",
                    "type": "address"
                }
            ],
            "stateMutability": "view",
            "type": "function"
        },
        {
            "inputs": [],
            "name": "renounceOwnership",
            "outputs": [],
            "stateMutability": "nonpayable",
            "type": "function"
        },
        {
            "inputs": [
                {
                    "internalType": "address",
                    "name": "user",
                    "type": "address"
                }
            ],
            "name": "setWinnersFromRaffle",
            "outputs": [],
            "stateMutability": "nonpayable",
            "type": "function"
        },
        {
            "inputs": [
                {
                    "internalType": "address",
                    "name": "newOwner",
                    "type": "address"
                }
            ],
            "name": "transferOwnership",
            "outputs": [],
            "stateMutability": "nonpayable",
            "type": "function"
        },
        {
            "inputs": [
                {
                    "internalType": "address payable",
                    "name": "payee",
                    "type": "address"
                }
            ],
            "name": "withdrawPayments",
            "outputs": [],
            "stateMutability": "nonpayable",
            "type": "function"
        }
    ],
    "bytecode": "60a0604052662386f26fc1000060025534801561001b57600080fd5b506100253361005f565b604051610031906100af565b604051809103906000f08015801561004d573d6000803e3d6000fd5b506001600160a01b03166080526100bc565b600080546001600160a01b038381166001600160a01b0319831681178455604051919092169283917f8be0079c531659141344cd1fd0a4f28419497f9722a3daafe3b4186f6b6457e09190a35050565b61058c80610b8283390190565b608051610aa46100de600039600081816105d3015261088d0152610aa46000f3fe6080604052600436106100a75760003560e01c80637259e0f8116100645780637259e0f81461016e5780638da5cb5b1461018e578063c94e1965146101ac578063e2982c21146101c1578063f066888a146101ef578063f2fde38b1461020f57600080fd5b8063102b8cdf146100ac5780632c56f497146100d75780632f3666371461010f57806331b3eb9414610124578063455c928c14610144578063715018a614610159575b600080fd5b3480156100b857600080fd5b506100c161022f565b6040516100ce919061093c565b60405180910390f35b3480156100e357600080fd5b506100f76100f2366004610989565b610299565b6040516001600160a01b0390911681526020016100ce565b61012261011d366004610989565b6102c3565b005b34801561013057600080fd5b5061012261013f3660046109b7565b610461565b34801561015057600080fd5b50610122610475565b34801561016557600080fd5b50610122610525565b34801561017a57600080fd5b506100f7610189366004610989565b610539565b34801561019a57600080fd5b506000546001600160a01b03166100f7565b3480156101b857600080fd5b506100c1610549565b3480156101cd57600080fd5b506101e16101dc3660046109b7565b6105b1565b6040519081526020016100ce565b3480156101fb57600080fd5b5061012261020a3660046109b7565b610646565b34801561021b57600080fd5b5061012261022a3660046109b7565b610716565b606061023961078c565b600480548060200260200160405190810160405280929190818152602001828054801561028f57602002820191906000526020600020905b81546001600160a01b03168152600190910190602001808311610271575b5050505050905090565b600481815481106102a957600080fd5b6000918252602090912001546001600160a01b0316905081565b6102cb6107e6565b61031c5760405162461bcd60e51b815260206004820152601e60248201527f4572726f723a205573657220646f65736e2774206578697374207965742e000060448201526064015b60405180910390fd5b33600090815260016020819052604082200180549183919061033e83856109f1565b925050819055116103915760405162461bcd60e51b815260206004820152601760248201527f4572726f723a205469636b6574206f766572666c6f772e0000000000000000006044820152606401610313565b6000600254346103a19190610a04565b11156103ce576002546040516313424b8560e11b8152610313918391600401918252602082015260400190565b6103d6610810565b156104085733600090815260016020819052604082200180548392906103fd9084906109f1565b9091555061044b9050565b600380546001810182556000919091527fc2575a0e9e593c00f959f8c92f12db2869c3395a3b0502d05e2516446f71f85b0180546001600160a01b031916331790555b3360009081526001602081905260409091200155565b61046961078c565b6104728161086e565b50565b61047d6107e6565b156104e05760405162461bcd60e51b815260206004820152602d60248201527f4572726f723a2043616e6e6f7420616464206475706c6963617465207573657260448201526c103a379031b7b73a3930b1ba1760991b6064820152608401610313565b6040805180820182523380825260006020808401828152928252600190819052939020915182546001600160a01b0319166001600160a01b0390911617825551910155565b61052d61078c565b61053760006108ec565b565b600381815481106102a957600080fd5b606061055361078c565b600580548060200260200160405190810160405280929190818152602001828054801561028f576020028201919060005260206000209081546001600160a01b03168152600190910190602001808311610271575050505050905090565b6040516371d4ed8d60e11b81526001600160a01b0382811660048301526000917f00000000000000000000000000000000000000000000000000000000000000009091169063e3a9db1a90602401602060405180830381865afa15801561061c573d6000803e3d6000fd5b505050506040513d601f19601f820116820180604052508101906106409190610a26565b92915050565b61064e61078c565b60005b6004548110156106c3576004818154811061066e5761066e610a3f565b6000918252602090912001546001600160a01b03908116908316036106b157604051636fc9bcc560e11b81526001600160a01b0383166004820152602401610313565b806106bb81610a55565b915050610651565b50600480546001810182556000919091527f8a35acfbc15ff81a39ae7d344fd709f28e8600b4aa8c65c6b64bfe7fe36bd19b0180546001600160a01b0319166001600160a01b0392909216919091179055565b61071e61078c565b6001600160a01b0381166107835760405162461bcd60e51b815260206004820152602660248201527f4f776e61626c653a206e6577206f776e657220697320746865207a65726f206160448201526564647265737360d01b6064820152608401610313565b610472816108ec565b6000546001600160a01b031633146105375760405162461bcd60e51b815260206004820181905260248201527f4f776e61626c653a2063616c6c6572206973206e6f7420746865206f776e65726044820152606401610313565b336000908152600160205260408120546001600160a01b03161561080a5750600190565b50600090565b6000805b600354811015610866576003818154811061083157610831610a3f565b6000918252602090912001546001600160a01b0316330361085457600191505090565b8061085e81610a55565b915050610814565b506000905090565b6040516351cff8d960e01b81526001600160a01b0382811660048301527f000000000000000000000000000000000000000000000000000000000000000016906351cff8d990602401600060405180830381600087803b1580156108d157600080fd5b505af11580156108e5573d6000803e3d6000fd5b5050505050565b600080546001600160a01b038381166001600160a01b0319831681178455604051919092169283917f8be0079c531659141344cd1fd0a4f28419497f9722a3daafe3b4186f6b6457e09190a35050565b6020808252825182820181905260009190848201906040850190845b8181101561097d5783516001600160a01b031683529284019291840191600101610958565b50909695505050505050565b60006020828403121561099b57600080fd5b5035919050565b6001600160a01b038116811461047257600080fd5b6000602082840312156109c957600080fd5b81356109d4816109a2565b9392505050565b634e487b7160e01b600052601160045260246000fd5b80820180821115610640576106406109db565b600082610a2157634e487b7160e01b600052601260045260246000fd5b500690565b600060208284031215610a3857600080fd5b5051919050565b634e487b7160e01b600052603260045260246000fd5b600060018201610a6757610a676109db565b506001019056fea264697066735822122003bb59481704974dcd4099e04cf168fce0e80bf3b4c84b360e57b7081e39ab6264736f6c63430008110033608060405234801561001057600080fd5b5061001a3361001f565b61006f565b600080546001600160a01b038381166001600160a01b0319831681178455604051919092169283917f8be0079c531659141344cd1fd0a4f28419497f9722a3daafe3b4186f6b6457e09190a35050565b61050e8061007e6000396000f3fe6080604052600436106100555760003560e01c806351cff8d91461005a578063715018a61461007c5780638da5cb5b14610091578063e3a9db1a146100be578063f2fde38b14610102578063f340fa0114610122575b600080fd5b34801561006657600080fd5b5061007a61007536600461048d565b610135565b005b34801561008857600080fd5b5061007a6101ac565b34801561009d57600080fd5b506000546040516001600160a01b0390911681526020015b60405180910390f35b3480156100ca57600080fd5b506100f46100d936600461048d565b6001600160a01b031660009081526001602052604090205490565b6040519081526020016100b5565b34801561010e57600080fd5b5061007a61011d36600461048d565b6101c0565b61007a61013036600461048d565b61023e565b61013d6102b0565b6001600160a01b0381166000818152600160205260408120805491905590610165908261030a565b816001600160a01b03167f7084f5476618d8e60b11ef0d7d3f06914655adb8793e28ff7f018d4c76d505d5826040516101a091815260200190565b60405180910390a25050565b6101b46102b0565b6101be6000610428565b565b6101c86102b0565b6001600160a01b0381166102325760405162461bcd60e51b815260206004820152602660248201527f4f776e61626c653a206e6577206f776e657220697320746865207a65726f206160448201526564647265737360d01b60648201526084015b60405180910390fd5b61023b81610428565b50565b6102466102b0565b6001600160a01b0381166000908152600160205260408120805434928392916102709084906104b1565b90915550506040518181526001600160a01b038316907f2da466a7b24304f47e87fa2e1e5a81b9831ce54fec19055ce277ca2f39ba42c4906020016101a0565b6000546001600160a01b031633146101be5760405162461bcd60e51b815260206004820181905260248201527f4f776e61626c653a2063616c6c6572206973206e6f7420746865206f776e65726044820152606401610229565b8047101561035a5760405162461bcd60e51b815260206004820152601d60248201527f416464726573733a20696e73756666696369656e742062616c616e63650000006044820152606401610229565b6000826001600160a01b03168260405160006040518083038185875af1925050503d80600081146103a7576040519150601f19603f3d011682016040523d82523d6000602084013e6103ac565b606091505b50509050806104235760405162461bcd60e51b815260206004820152603a60248201527f416464726573733a20756e61626c6520746f2073656e642076616c75652c207260448201527f6563697069656e74206d617920686176652072657665727465640000000000006064820152608401610229565b505050565b600080546001600160a01b038381166001600160a01b0319831681178455604051919092169283917f8be0079c531659141344cd1fd0a4f28419497f9722a3daafe3b4186f6b6457e09190a35050565b6001600160a01b038116811461023b57600080fd5b60006020828403121561049f57600080fd5b81356104aa81610478565b9392505050565b808201808211156104d257634e487b7160e01b600052601160045260246000fd5b9291505056fea264697066735822122024e28f56beb9d917548616a7f60e3402c8f22303ffca3cca834231fddf73a62064736f6c63430008110033",
    "sourcePath": "/Users/trian/Documents/Programs/GeocoinWeb3/GeocoinWeb3/contracts/raffle.sol",
    "compiler": {
        "name": "solc",
        "version": "0.8.17+commit.8df45f5f"
    },
    "functionHashes": {
        "addUser()": "455c928c",
        "awardedUsers(uint256)": "2c56f497",
        "buyTickets(uint256)": "2f366637",
        "getWeightedFromRaffle()": "c94e1965",
        "getWinnersFromRaffle()": "102b8cdf",
        "owner()": "8da5cb5b",
        "payments(address)": "e2982c21",
        "registeredUsers(uint256)": "7259e0f8",
        "renounceOwnership()": "715018a6",
        "setWinnersFromRaffle(address)": "f066888a",
        "transferOwnership(address)": "f2fde38b",
        "withdrawPayments(address)": "31b3eb94"
    },
    "gasEstimates": {
        "creation": {
            "codeDepositCost": "544800",
            "executionCost": "infinite",
            "totalCost": "infinite"
        },
        "external": {
            "addUser()": "31897",
            "awardedUsers(uint256)": "4637",
            "buyTickets(uint256)": "2590",
            "getWeightedFromRaffle()": "infinite",
            "getWinnersFromRaffle()": "infinite",
            "owner()": "2353",
            "payments(address)": "infinite",
            "registeredUsers(uint256)": "4614",
            "renounceOwnership()": "infinite",
            "setWinnersFromRaffle(address)": "infinite",
            "transferOwnership(address)": "infinite",
            "withdrawPayments(address)": "infinite"
        },
        "internal": {
            "calcWeightedArrayFromRaffle()": "infinite",
            "checkIfUserExists()": "2229",
            "checkIfUserIsRegistered()": "infinite",
            "reset()": "infinite"
        }
    }
}