{
  "_format": "hh-sol-artifact-1",
  "contractName": "GeoNFT",
  "sourceName": "contracts/minter.sol",
  "abi": [
    {
      "inputs": [],
      "stateMutability": "nonpayable",
      "type": "constructor"
    },
    {
      "anonymous": false,
      "inputs": [
        {
          "indexed": true,
          "internalType": "address",
          "name": "owner",
          "type": "address"
        },
        {
          "indexed": true,
          "internalType": "address",
          "name": "approved",
          "type": "address"
        },
        {
          "indexed": true,
          "internalType": "uint256",
          "name": "tokenId",
          "type": "uint256"
        }
      ],
      "name": "Approval",
      "type": "event"
    },
    {
      "anonymous": false,
      "inputs": [
        {
          "indexed": true,
          "internalType": "address",
          "name": "owner",
          "type": "address"
        },
        {
          "indexed": true,
          "internalType": "address",
          "name": "operator",
          "type": "address"
        },
        {
          "indexed": false,
          "internalType": "bool",
          "name": "approved",
          "type": "bool"
        }
      ],
      "name": "ApprovalForAll",
      "type": "event"
    },
    {
      "anonymous": false,
      "inputs": [
        {
          "indexed": true,
          "internalType": "address",
          "name": "previousOwner",
          "type": "address"
        },
        {
          "indexed": true,
          "internalType": "address",
          "name": "newOwner",
          "type": "address"
        }
      ],
      "name": "OwnershipTransferred",
      "type": "event"
    },
    {
      "anonymous": false,
      "inputs": [
        {
          "indexed": true,
          "internalType": "address",
          "name": "from",
          "type": "address"
        },
        {
          "indexed": true,
          "internalType": "address",
          "name": "to",
          "type": "address"
        },
        {
          "indexed": true,
          "internalType": "uint256",
          "name": "tokenId",
          "type": "uint256"
        }
      ],
      "name": "Transfer",
      "type": "event"
    },
    {
      "inputs": [
        {
          "internalType": "address",
          "name": "to",
          "type": "address"
        },
        {
          "internalType": "uint256",
          "name": "tokenId",
          "type": "uint256"
        }
      ],
      "name": "approve",
      "outputs": [],
      "stateMutability": "nonpayable",
      "type": "function"
    },
    {
      "inputs": [
        {
          "internalType": "address",
          "name": "owner",
          "type": "address"
        }
      ],
      "name": "balanceOf",
      "outputs": [
        {
          "internalType": "uint256",
          "name": "",
          "type": "uint256"
        }
      ],
      "stateMutability": "view",
      "type": "function"
    },
    {
      "inputs": [],
      "name": "baseTokenURI",
      "outputs": [
        {
          "internalType": "string",
          "name": "",
          "type": "string"
        }
      ],
      "stateMutability": "view",
      "type": "function"
    },
    {
      "inputs": [],
      "name": "contractURI",
      "outputs": [
        {
          "internalType": "string",
          "name": "",
          "type": "string"
        }
      ],
      "stateMutability": "pure",
      "type": "function"
    },
    {
      "inputs": [
        {
          "internalType": "uint256",
          "name": "tokenId",
          "type": "uint256"
        }
      ],
      "name": "getApproved",
      "outputs": [
        {
          "internalType": "address",
          "name": "",
          "type": "address"
        }
      ],
      "stateMutability": "view",
      "type": "function"
    },
    {
      "inputs": [
        {
          "internalType": "address",
          "name": "owner",
          "type": "address"
        },
        {
          "internalType": "address",
          "name": "operator",
          "type": "address"
        }
      ],
      "name": "isApprovedForAll",
      "outputs": [
        {
          "internalType": "bool",
          "name": "",
          "type": "bool"
        }
      ],
      "stateMutability": "view",
      "type": "function"
    },
    {
      "inputs": [
        {
          "internalType": "address",
          "name": "recipient",
          "type": "address"
        }
      ],
      "name": "mintTo",
      "outputs": [
        {
          "internalType": "uint256",
          "name": "",
          "type": "uint256"
        }
      ],
      "stateMutability": "nonpayable",
      "type": "function"
    },
    {
      "inputs": [],
      "name": "name",
      "outputs": [
        {
          "internalType": "string",
          "name": "",
          "type": "string"
        }
      ],
      "stateMutability": "view",
      "type": "function"
    },
    {
      "inputs": [],
      "name": "owner",
      "outputs": [
        {
          "internalType": "address",
          "name": "",
          "type": "address"
        }
      ],
      "stateMutability": "view",
      "type": "function"
    },
    {
      "inputs": [
        {
          "internalType": "uint256",
          "name": "tokenId",
          "type": "uint256"
        }
      ],
      "name": "ownerOf",
      "outputs": [
        {
          "internalType": "address",
          "name": "",
          "type": "address"
        }
      ],
      "stateMutability": "view",
      "type": "function"
    },
    {
      "inputs": [],
      "name": "renounceOwnership",
      "outputs": [],
      "stateMutability": "nonpayable",
      "type": "function"
    },
    {
      "inputs": [
        {
          "internalType": "address",
          "name": "from",
          "type": "address"
        },
        {
          "internalType": "address",
          "name": "to",
          "type": "address"
        },
        {
          "internalType": "uint256",
          "name": "tokenId",
          "type": "uint256"
        }
      ],
      "name": "safeTransferFrom",
      "outputs": [],
      "stateMutability": "nonpayable",
      "type": "function"
    },
    {
      "inputs": [
        {
          "internalType": "address",
          "name": "from",
          "type": "address"
        },
        {
          "internalType": "address",
          "name": "to",
          "type": "address"
        },
        {
          "internalType": "uint256",
          "name": "tokenId",
          "type": "uint256"
        },
        {
          "internalType": "bytes",
          "name": "data",
          "type": "bytes"
        }
      ],
      "name": "safeTransferFrom",
      "outputs": [],
      "stateMutability": "nonpayable",
      "type": "function"
    },
    {
      "inputs": [
        {
          "internalType": "address",
          "name": "operator",
          "type": "address"
        },
        {
          "internalType": "bool",
          "name": "approved",
          "type": "bool"
        }
      ],
      "name": "setApprovalForAll",
      "outputs": [],
      "stateMutability": "nonpayable",
      "type": "function"
    },
    {
      "inputs": [
        {
          "internalType": "string",
          "name": "_baseTokenURI",
          "type": "string"
        }
      ],
      "name": "setBaseTokenURI",
      "outputs": [],
      "stateMutability": "nonpayable",
      "type": "function"
    },
    {
      "inputs": [
        {
          "internalType": "bytes4",
          "name": "interfaceId",
          "type": "bytes4"
        }
      ],
      "name": "supportsInterface",
      "outputs": [
        {
          "internalType": "bool",
          "name": "",
          "type": "bool"
        }
      ],
      "stateMutability": "view",
      "type": "function"
    },
    {
      "inputs": [],
      "name": "symbol",
      "outputs": [
        {
          "internalType": "string",
          "name": "",
          "type": "string"
        }
      ],
      "stateMutability": "view",
      "type": "function"
    },
    {
      "inputs": [
        {
          "internalType": "uint256",
          "name": "tokenId",
          "type": "uint256"
        }
      ],
      "name": "tokenURI",
      "outputs": [
        {
          "internalType": "string",
          "name": "",
          "type": "string"
        }
      ],
      "stateMutability": "view",
      "type": "function"
    },
    {
      "inputs": [
        {
          "internalType": "address",
          "name": "from",
          "type": "address"
        },
        {
          "internalType": "address",
          "name": "to",
          "type": "address"
        },
        {
          "internalType": "uint256",
          "name": "tokenId",
          "type": "uint256"
        }
      ],
      "name": "transferFrom",
      "outputs": [],
      "stateMutability": "nonpayable",
      "type": "function"
    },
    {
      "inputs": [
        {
          "internalType": "address",
          "name": "newOwner",
          "type": "address"
        }
      ],
      "name": "transferOwnership",
      "outputs": [],
      "stateMutability": "nonpayable",
      "type": "function"
    }
  ],
  "bytecode": "0x60806040523480156200001157600080fd5b506040518060400160405280600a81526020017f47656f636f696e4e4654000000000000000000000000000000000000000000008152506040518060400160405280600481526020017f474e46540000000000000000000000000000000000000000000000000000000081525081600090816200008f919062000433565b508060019081620000a1919062000433565b505050620000c4620000b8620000eb60201b60201c565b620000f360201b60201c565b6040518060200160405280600081525060089081620000e4919062000433565b506200051a565b600033905090565b6000600660009054906101000a900473ffffffffffffffffffffffffffffffffffffffff16905081600660006101000a81548173ffffffffffffffffffffffffffffffffffffffff021916908373ffffffffffffffffffffffffffffffffffffffff1602179055508173ffffffffffffffffffffffffffffffffffffffff168173ffffffffffffffffffffffffffffffffffffffff167f8be0079c531659141344cd1fd0a4f28419497f9722a3daafe3b4186f6b6457e060405160405180910390a35050565b600081519050919050565b7f4e487b7100000000000000000000000000000000000000000000000000000000600052604160045260246000fd5b7f4e487b7100000000000000000000000000000000000000000000000000000000600052602260045260246000fd5b600060028204905060018216806200023b57607f821691505b602082108103620002515762000250620001f3565b5b50919050565b60008190508160005260206000209050919050565b60006020601f8301049050919050565b600082821b905092915050565b600060088302620002bb7fffffffffffffffffffffffffffffffffffffffffffffffffffffffffffffffff826200027c565b620002c786836200027c565b95508019841693508086168417925050509392505050565b6000819050919050565b6000819050919050565b6000620003146200030e6200030884620002df565b620002e9565b620002df565b9050919050565b6000819050919050565b6200033083620002f3565b620003486200033f826200031b565b84845462000289565b825550505050565b600090565b6200035f62000350565b6200036c81848462000325565b505050565b5b8181101562000394576200038860008262000355565b60018101905062000372565b5050565b601f821115620003e357620003ad8162000257565b620003b8846200026c565b81016020851015620003c8578190505b620003e0620003d7856200026c565b83018262000371565b50505b505050565b600082821c905092915050565b60006200040860001984600802620003e8565b1980831691505092915050565b6000620004238383620003f5565b9150826002028217905092915050565b6200043e82620001b9565b67ffffffffffffffff8111156200045a5762000459620001c4565b5b62000466825462000222565b6200047382828562000398565b600060209050601f831160018114620004ab576000841562000496578287015190505b620004a2858262000415565b86555062000512565b601f198416620004bb8662000257565b60005b82811015620004e557848901518255600182019150602085019450602081019050620004be565b8683101562000505578489015162000501601f891682620003f5565b8355505b6001600288020188555050505b505050505050565b612fc8806200052a6000396000f3fe608060405234801561001057600080fd5b506004361061012c5760003560e01c8063755edd17116100ad578063c87b56dd11610071578063c87b56dd1461032d578063d547cfb71461035d578063e8a3d4851461037b578063e985e9c514610399578063f2fde38b146103c95761012c565b8063755edd17146102895780638da5cb5b146102b957806395d89b41146102d7578063a22cb465146102f5578063b88d4fde146103115761012c565b806330176e13116100f457806330176e13146101e757806342842e0e146102035780636352211e1461021f57806370a082311461024f578063715018a61461027f5761012c565b806301ffc9a71461013157806306fdde0314610161578063081812fc1461017f578063095ea7b3146101af57806323b872dd146101cb575b600080fd5b61014b60048036038101906101469190611d75565b6103e5565b6040516101589190611dbd565b60405180910390f35b6101696104c7565b6040516101769190611e68565b60405180910390f35b61019960048036038101906101949190611ec0565b610559565b6040516101a69190611f2e565b60405180910390f35b6101c960048036038101906101c49190611f75565b61059f565b005b6101e560048036038101906101e09190611fb5565b6106b6565b005b61020160048036038101906101fc919061213d565b610716565b005b61021d60048036038101906102189190611fb5565b610731565b005b61023960048036038101906102349190611ec0565b610751565b6040516102469190611f2e565b60405180910390f35b61026960048036038101906102649190612186565b6107d7565b60405161027691906121c2565b60405180910390f35b61028761088e565b005b6102a3600480360381019061029e9190612186565b6108a2565b6040516102b091906121c2565b60405180910390f35b6102c16108d7565b6040516102ce9190611f2e565b60405180910390f35b6102df610901565b6040516102ec9190611e68565b60405180910390f35b61030f600480360381019061030a9190612209565b610993565b005b61032b600480360381019061032691906122ea565b6109a9565b005b61034760048036038101906103429190611ec0565b610a0b565b6040516103549190611e68565b60405180910390f35b610365610a73565b6040516103729190611e68565b60405180910390f35b610383610b01565b6040516103909190611e68565b60405180910390f35b6103b360048036038101906103ae919061236d565b610b21565b6040516103c09190611dbd565b60405180910390f35b6103e360048036038101906103de9190612186565b610bb5565b005b60007f80ac58cd000000000000000000000000000000000000000000000000000000007bffffffffffffffffffffffffffffffffffffffffffffffffffffffff1916827bffffffffffffffffffffffffffffffffffffffffffffffffffffffff191614806104b057507f5b5e139f000000000000000000000000000000000000000000000000000000007bffffffffffffffffffffffffffffffffffffffffffffffffffffffff1916827bffffffffffffffffffffffffffffffffffffffffffffffffffffffff1916145b806104c057506104bf82610c38565b5b9050919050565b6060600080546104d6906123dc565b80601f0160208091040260200160405190810160405280929190818152602001828054610502906123dc565b801561054f5780601f106105245761010080835404028352916020019161054f565b820191906000526020600020905b81548152906001019060200180831161053257829003601f168201915b5050505050905090565b600061056482610ca2565b6004600083815260200190815260200160002060009054906101000a900473ffffffffffffffffffffffffffffffffffffffff169050919050565b60006105aa82610751565b90508073ffffffffffffffffffffffffffffffffffffffff168373ffffffffffffffffffffffffffffffffffffffff160361061a576040517f08c379a00000000000000000000000000000000000000000000000000000000081526004016106119061247f565b60405180910390fd5b8073ffffffffffffffffffffffffffffffffffffffff16610639610ced565b73ffffffffffffffffffffffffffffffffffffffff161480610668575061066781610662610ced565b610b21565b5b6106a7576040517f08c379a000000000000000000000000000000000000000000000000000000000815260040161069e90612511565b60405180910390fd5b6106b18383610cf5565b505050565b6106c76106c1610ced565b82610dae565b610706576040517f08c379a00000000000000000000000000000000000000000000000000000000081526004016106fd906125a3565b60405180910390fd5b610711838383610e43565b505050565b61071e61113c565b806008908161072d919061276f565b5050565b61074c838383604051806020016040528060008152506109a9565b505050565b60008061075d836111ba565b9050600073ffffffffffffffffffffffffffffffffffffffff168173ffffffffffffffffffffffffffffffffffffffff16036107ce576040517f08c379a00000000000000000000000000000000000000000000000000000000081526004016107c59061288d565b60405180910390fd5b80915050919050565b60008073ffffffffffffffffffffffffffffffffffffffff168273ffffffffffffffffffffffffffffffffffffffff1603610847576040517f08c379a000000000000000000000000000000000000000000000000000000000815260040161083e9061291f565b60405180910390fd5b600360008373ffffffffffffffffffffffffffffffffffffffff1673ffffffffffffffffffffffffffffffffffffffff168152602001908152602001600020549050919050565b61089661113c565b6108a060006111f7565b565b60006108ac61113c565b6108b660076112bd565b60006108c260076112d3565b90506108ce83826112e1565b80915050919050565b6000600660009054906101000a900473ffffffffffffffffffffffffffffffffffffffff16905090565b606060018054610910906123dc565b80601f016020809104026020016040519081016040528092919081815260200182805461093c906123dc565b80156109895780601f1061095e57610100808354040283529160200191610989565b820191906000526020600020905b81548152906001019060200180831161096c57829003601f168201915b5050505050905090565b6109a561099e610ced565b83836112ff565b5050565b6109ba6109b4610ced565b83610dae565b6109f9576040517f08c379a00000000000000000000000000000000000000000000000000000000081526004016109f0906125a3565b60405180910390fd5b610a058484848461146b565b50505050565b6060610a1682610ca2565b6000610a206114c7565b90506000815111610a405760405180602001604052806000815250610a6b565b80610a4a84611559565b604051602001610a5b92919061297b565b6040516020818303038152906040525b915050919050565b60088054610a80906123dc565b80601f0160208091040260200160405190810160405280929190818152602001828054610aac906123dc565b8015610af95780601f10610ace57610100808354040283529160200191610af9565b820191906000526020600020905b815481529060010190602001808311610adc57829003601f168201915b505050505081565b6060604051806080016040528060528152602001612f4160529139905090565b6000600560008473ffffffffffffffffffffffffffffffffffffffff1673ffffffffffffffffffffffffffffffffffffffff16815260200190815260200160002060008373ffffffffffffffffffffffffffffffffffffffff1673ffffffffffffffffffffffffffffffffffffffff16815260200190815260200160002060009054906101000a900460ff16905092915050565b610bbd61113c565b600073ffffffffffffffffffffffffffffffffffffffff168173ffffffffffffffffffffffffffffffffffffffff1603610c2c576040517f08c379a0000000000000000000000000000000000000000000000000000000008152600401610c2390612a11565b60405180910390fd5b610c35816111f7565b50565b60007f01ffc9a7000000000000000000000000000000000000000000000000000000007bffffffffffffffffffffffffffffffffffffffffffffffffffffffff1916827bffffffffffffffffffffffffffffffffffffffffffffffffffffffff1916149050919050565b610cab81611627565b610cea576040517f08c379a0000000000000000000000000000000000000000000000000000000008152600401610ce19061288d565b60405180910390fd5b50565b600033905090565b816004600083815260200190815260200160002060006101000a81548173ffffffffffffffffffffffffffffffffffffffff021916908373ffffffffffffffffffffffffffffffffffffffff160217905550808273ffffffffffffffffffffffffffffffffffffffff16610d6883610751565b73ffffffffffffffffffffffffffffffffffffffff167f8c5be1e5ebec7d5bd14f71427d1e84f3dd0314c0f7b2291e5b200ac8c7c3b92560405160405180910390a45050565b600080610dba83610751565b90508073ffffffffffffffffffffffffffffffffffffffff168473ffffffffffffffffffffffffffffffffffffffff161480610dfc5750610dfb8185610b21565b5b80610e3a57508373ffffffffffffffffffffffffffffffffffffffff16610e2284610559565b73ffffffffffffffffffffffffffffffffffffffff16145b91505092915050565b8273ffffffffffffffffffffffffffffffffffffffff16610e6382610751565b73ffffffffffffffffffffffffffffffffffffffff1614610eb9576040517f08c379a0000000000000000000000000000000000000000000000000000000008152600401610eb090612aa3565b60405180910390fd5b600073ffffffffffffffffffffffffffffffffffffffff168273ffffffffffffffffffffffffffffffffffffffff1603610f28576040517f08c379a0000000000000000000000000000000000000000000000000000000008152600401610f1f90612b35565b60405180910390fd5b610f358383836001611668565b8273ffffffffffffffffffffffffffffffffffffffff16610f5582610751565b73ffffffffffffffffffffffffffffffffffffffff1614610fab576040517f08c379a0000000000000000000000000000000000000000000000000000000008152600401610fa290612aa3565b60405180910390fd5b6004600082815260200190815260200160002060006101000a81549073ffffffffffffffffffffffffffffffffffffffff02191690556001600360008573ffffffffffffffffffffffffffffffffffffffff1673ffffffffffffffffffffffffffffffffffffffff168152602001908152602001600020600082825403925050819055506001600360008473ffffffffffffffffffffffffffffffffffffffff1673ffffffffffffffffffffffffffffffffffffffff16815260200190815260200160002060008282540192505081905550816002600083815260200190815260200160002060006101000a81548173ffffffffffffffffffffffffffffffffffffffff021916908373ffffffffffffffffffffffffffffffffffffffff160217905550808273ffffffffffffffffffffffffffffffffffffffff168473ffffffffffffffffffffffffffffffffffffffff167fddf252ad1be2c89b69c2b068fc378daa952ba7f163c4a11628f55a4df523b3ef60405160405180910390a4611137838383600161178e565b505050565b611144610ced565b73ffffffffffffffffffffffffffffffffffffffff166111626108d7565b73ffffffffffffffffffffffffffffffffffffffff16146111b8576040517f08c379a00000000000000000000000000000000000000000000000000000000081526004016111af90612ba1565b60405180910390fd5b565b60006002600083815260200190815260200160002060009054906101000a900473ffffffffffffffffffffffffffffffffffffffff169050919050565b6000600660009054906101000a900473ffffffffffffffffffffffffffffffffffffffff16905081600660006101000a81548173ffffffffffffffffffffffffffffffffffffffff021916908373ffffffffffffffffffffffffffffffffffffffff1602179055508173ffffffffffffffffffffffffffffffffffffffff168173ffffffffffffffffffffffffffffffffffffffff167f8be0079c531659141344cd1fd0a4f28419497f9722a3daafe3b4186f6b6457e060405160405180910390a35050565b6001816000016000828254019250508190555050565b600081600001549050919050565b6112fb828260405180602001604052806000815250611794565b5050565b8173ffffffffffffffffffffffffffffffffffffffff168373ffffffffffffffffffffffffffffffffffffffff160361136d576040517f08c379a000000000000000000000000000000000000000000000000000000000815260040161136490612c0d565b60405180910390fd5b80600560008573ffffffffffffffffffffffffffffffffffffffff1673ffffffffffffffffffffffffffffffffffffffff16815260200190815260200160002060008473ffffffffffffffffffffffffffffffffffffffff1673ffffffffffffffffffffffffffffffffffffffff16815260200190815260200160002060006101000a81548160ff0219169083151502179055508173ffffffffffffffffffffffffffffffffffffffff168373ffffffffffffffffffffffffffffffffffffffff167f17307eab39ab6107e8899845ad3d59bd9653f200f220920489ca2b5937696c318360405161145e9190611dbd565b60405180910390a3505050565b611476848484610e43565b611482848484846117ef565b6114c1576040517f08c379a00000000000000000000000000000000000000000000000000000000081526004016114b890612c9f565b60405180910390fd5b50505050565b6060600880546114d6906123dc565b80601f0160208091040260200160405190810160405280929190818152602001828054611502906123dc565b801561154f5780601f106115245761010080835404028352916020019161154f565b820191906000526020600020905b81548152906001019060200180831161153257829003601f168201915b5050505050905090565b60606000600161156884611976565b01905060008167ffffffffffffffff81111561158757611586612012565b5b6040519080825280601f01601f1916602001820160405280156115b95781602001600182028036833780820191505090505b509050600082602001820190505b60011561161c578080600190039150507f3031323334353637383961626364656600000000000000000000000000000000600a86061a8153600a85816116105761160f612cbf565b5b049450600085036115c7575b819350505050919050565b60008073ffffffffffffffffffffffffffffffffffffffff16611649836111ba565b73ffffffffffffffffffffffffffffffffffffffff1614159050919050565b600181111561178857600073ffffffffffffffffffffffffffffffffffffffff168473ffffffffffffffffffffffffffffffffffffffff16146116fc5780600360008673ffffffffffffffffffffffffffffffffffffffff1673ffffffffffffffffffffffffffffffffffffffff16815260200190815260200160002060008282546116f49190612d1d565b925050819055505b600073ffffffffffffffffffffffffffffffffffffffff168373ffffffffffffffffffffffffffffffffffffffff16146117875780600360008573ffffffffffffffffffffffffffffffffffffffff1673ffffffffffffffffffffffffffffffffffffffff168152602001908152602001600020600082825461177f9190612d51565b925050819055505b5b50505050565b50505050565b61179e8383611ac9565b6117ab60008484846117ef565b6117ea576040517f08c379a00000000000000000000000000000000000000000000000000000000081526004016117e190612c9f565b60405180910390fd5b505050565b60006118108473ffffffffffffffffffffffffffffffffffffffff16611ce6565b15611969578373ffffffffffffffffffffffffffffffffffffffff1663150b7a02611839610ced565b8786866040518563ffffffff1660e01b815260040161185b9493929190612dda565b6020604051808303816000875af192505050801561189757506040513d601f19601f820116820180604052508101906118949190612e3b565b60015b611919573d80600081146118c7576040519150601f19603f3d011682016040523d82523d6000602084013e6118cc565b606091505b506000815103611911576040517f08c379a000000000000000000000000000000000000000000000000000000000815260040161190890612c9f565b60405180910390fd5b805181602001fd5b63150b7a0260e01b7bffffffffffffffffffffffffffffffffffffffffffffffffffffffff1916817bffffffffffffffffffffffffffffffffffffffffffffffffffffffff19161491505061196e565b600190505b949350505050565b600080600090507a184f03e93ff9f4daa797ed6e38ed64bf6a1f01000000000000000083106119d4577a184f03e93ff9f4daa797ed6e38ed64bf6a1f01000000000000000083816119ca576119c9612cbf565b5b0492506040810190505b6d04ee2d6d415b85acef81000000008310611a11576d04ee2d6d415b85acef81000000008381611a0757611a06612cbf565b5b0492506020810190505b662386f26fc100008310611a4057662386f26fc100008381611a3657611a35612cbf565b5b0492506010810190505b6305f5e1008310611a69576305f5e1008381611a5f57611a5e612cbf565b5b0492506008810190505b6127108310611a8e576127108381611a8457611a83612cbf565b5b0492506004810190505b60648310611ab15760648381611aa757611aa6612cbf565b5b0492506002810190505b600a8310611ac0576001810190505b80915050919050565b600073ffffffffffffffffffffffffffffffffffffffff168273ffffffffffffffffffffffffffffffffffffffff1603611b38576040517f08c379a0000000000000000000000000000000000000000000000000000000008152600401611b2f90612eb4565b60405180910390fd5b611b4181611627565b15611b81576040517f08c379a0000000000000000000000000000000000000000000000000000000008152600401611b7890612f20565b60405180910390fd5b611b8f600083836001611668565b611b9881611627565b15611bd8576040517f08c379a0000000000000000000000000000000000000000000000000000000008152600401611bcf90612f20565b60405180910390fd5b6001600360008473ffffffffffffffffffffffffffffffffffffffff1673ffffffffffffffffffffffffffffffffffffffff16815260200190815260200160002060008282540192505081905550816002600083815260200190815260200160002060006101000a81548173ffffffffffffffffffffffffffffffffffffffff021916908373ffffffffffffffffffffffffffffffffffffffff160217905550808273ffffffffffffffffffffffffffffffffffffffff16600073ffffffffffffffffffffffffffffffffffffffff167fddf252ad1be2c89b69c2b068fc378daa952ba7f163c4a11628f55a4df523b3ef60405160405180910390a4611ce260008383600161178e565b5050565b6000808273ffffffffffffffffffffffffffffffffffffffff163b119050919050565b6000604051905090565b600080fd5b600080fd5b60007fffffffff0000000000000000000000000000000000000000000000000000000082169050919050565b611d5281611d1d565b8114611d5d57600080fd5b50565b600081359050611d6f81611d49565b92915050565b600060208284031215611d8b57611d8a611d13565b5b6000611d9984828501611d60565b91505092915050565b60008115159050919050565b611db781611da2565b82525050565b6000602082019050611dd26000830184611dae565b92915050565b600081519050919050565b600082825260208201905092915050565b60005b83811015611e12578082015181840152602081019050611df7565b60008484015250505050565b6000601f19601f8301169050919050565b6000611e3a82611dd8565b611e448185611de3565b9350611e54818560208601611df4565b611e5d81611e1e565b840191505092915050565b60006020820190508181036000830152611e828184611e2f565b905092915050565b6000819050919050565b611e9d81611e8a565b8114611ea857600080fd5b50565b600081359050611eba81611e94565b92915050565b600060208284031215611ed657611ed5611d13565b5b6000611ee484828501611eab565b91505092915050565b600073ffffffffffffffffffffffffffffffffffffffff82169050919050565b6000611f1882611eed565b9050919050565b611f2881611f0d565b82525050565b6000602082019050611f436000830184611f1f565b92915050565b611f5281611f0d565b8114611f5d57600080fd5b50565b600081359050611f6f81611f49565b92915050565b60008060408385031215611f8c57611f8b611d13565b5b6000611f9a85828601611f60565b9250506020611fab85828601611eab565b9150509250929050565b600080600060608486031215611fce57611fcd611d13565b5b6000611fdc86828701611f60565b9350506020611fed86828701611f60565b9250506040611ffe86828701611eab565b9150509250925092565b600080fd5b600080fd5b7f4e487b7100000000000000000000000000000000000000000000000000000000600052604160045260246000fd5b61204a82611e1e565b810181811067ffffffffffffffff8211171561206957612068612012565b5b80604052505050565b600061207c611d09565b90506120888282612041565b919050565b600067ffffffffffffffff8211156120a8576120a7612012565b5b6120b182611e1e565b9050602081019050919050565b82818337600083830152505050565b60006120e06120db8461208d565b612072565b9050828152602081018484840111156120fc576120fb61200d565b5b6121078482856120be565b509392505050565b600082601f83011261212457612123612008565b5b81356121348482602086016120cd565b91505092915050565b60006020828403121561215357612152611d13565b5b600082013567ffffffffffffffff81111561217157612170611d18565b5b61217d8482850161210f565b91505092915050565b60006020828403121561219c5761219b611d13565b5b60006121aa84828501611f60565b91505092915050565b6121bc81611e8a565b82525050565b60006020820190506121d760008301846121b3565b92915050565b6121e681611da2565b81146121f157600080fd5b50565b600081359050612203816121dd565b92915050565b600080604083850312156122205761221f611d13565b5b600061222e85828601611f60565b925050602061223f858286016121f4565b9150509250929050565b600067ffffffffffffffff82111561226457612263612012565b5b61226d82611e1e565b9050602081019050919050565b600061228d61228884612249565b612072565b9050828152602081018484840111156122a9576122a861200d565b5b6122b48482856120be565b509392505050565b600082601f8301126122d1576122d0612008565b5b81356122e184826020860161227a565b91505092915050565b6000806000806080858703121561230457612303611d13565b5b600061231287828801611f60565b945050602061232387828801611f60565b935050604061233487828801611eab565b925050606085013567ffffffffffffffff81111561235557612354611d18565b5b612361878288016122bc565b91505092959194509250565b6000806040838503121561238457612383611d13565b5b600061239285828601611f60565b92505060206123a385828601611f60565b9150509250929050565b7f4e487b7100000000000000000000000000000000000000000000000000000000600052602260045260246000fd5b600060028204905060018216806123f457607f821691505b602082108103612407576124066123ad565b5b50919050565b7f4552433732313a20617070726f76616c20746f2063757272656e74206f776e6560008201527f7200000000000000000000000000000000000000000000000000000000000000602082015250565b6000612469602183611de3565b91506124748261240d565b604082019050919050565b600060208201905081810360008301526124988161245c565b9050919050565b7f4552433732313a20617070726f76652063616c6c6572206973206e6f7420746f60008201527f6b656e206f776e6572206f7220617070726f76656420666f7220616c6c000000602082015250565b60006124fb603d83611de3565b91506125068261249f565b604082019050919050565b6000602082019050818103600083015261252a816124ee565b9050919050565b7f4552433732313a2063616c6c6572206973206e6f7420746f6b656e206f776e6560008201527f72206f7220617070726f76656400000000000000000000000000000000000000602082015250565b600061258d602d83611de3565b915061259882612531565b604082019050919050565b600060208201905081810360008301526125bc81612580565b9050919050565b60008190508160005260206000209050919050565b60006020601f8301049050919050565b600082821b905092915050565b6000600883026126257fffffffffffffffffffffffffffffffffffffffffffffffffffffffffffffffff826125e8565b61262f86836125e8565b95508019841693508086168417925050509392505050565b6000819050919050565b600061266c61266761266284611e8a565b612647565b611e8a565b9050919050565b6000819050919050565b61268683612651565b61269a61269282612673565b8484546125f5565b825550505050565b600090565b6126af6126a2565b6126ba81848461267d565b505050565b5b818110156126de576126d36000826126a7565b6001810190506126c0565b5050565b601f821115612723576126f4816125c3565b6126fd846125d8565b8101602085101561270c578190505b612720612718856125d8565b8301826126bf565b50505b505050565b600082821c905092915050565b600061274660001984600802612728565b1980831691505092915050565b600061275f8383612735565b9150826002028217905092915050565b61277882611dd8565b67ffffffffffffffff81111561279157612790612012565b5b61279b82546123dc565b6127a68282856126e2565b600060209050601f8311600181146127d957600084156127c7578287015190505b6127d18582612753565b865550612839565b601f1984166127e7866125c3565b60005b8281101561280f578489015182556001820191506020850194506020810190506127ea565b8683101561282c5784890151612828601f891682612735565b8355505b6001600288020188555050505b505050505050565b7f4552433732313a20696e76616c696420746f6b656e2049440000000000000000600082015250565b6000612877601883611de3565b915061288282612841565b602082019050919050565b600060208201905081810360008301526128a68161286a565b9050919050565b7f4552433732313a2061646472657373207a65726f206973206e6f74206120766160008201527f6c6964206f776e65720000000000000000000000000000000000000000000000602082015250565b6000612909602983611de3565b9150612914826128ad565b604082019050919050565b60006020820190508181036000830152612938816128fc565b9050919050565b600081905092915050565b600061295582611dd8565b61295f818561293f565b935061296f818560208601611df4565b80840191505092915050565b6000612987828561294a565b9150612993828461294a565b91508190509392505050565b7f4f776e61626c653a206e6577206f776e657220697320746865207a65726f206160008201527f6464726573730000000000000000000000000000000000000000000000000000602082015250565b60006129fb602683611de3565b9150612a068261299f565b604082019050919050565b60006020820190508181036000830152612a2a816129ee565b9050919050565b7f4552433732313a207472616e736665722066726f6d20696e636f72726563742060008201527f6f776e6572000000000000000000000000000000000000000000000000000000602082015250565b6000612a8d602583611de3565b9150612a9882612a31565b604082019050919050565b60006020820190508181036000830152612abc81612a80565b9050919050565b7f4552433732313a207472616e7366657220746f20746865207a65726f2061646460008201527f7265737300000000000000000000000000000000000000000000000000000000602082015250565b6000612b1f602483611de3565b9150612b2a82612ac3565b604082019050919050565b60006020820190508181036000830152612b4e81612b12565b9050919050565b7f4f776e61626c653a2063616c6c6572206973206e6f7420746865206f776e6572600082015250565b6000612b8b602083611de3565b9150612b9682612b55565b602082019050919050565b60006020820190508181036000830152612bba81612b7e565b9050919050565b7f4552433732313a20617070726f766520746f2063616c6c657200000000000000600082015250565b6000612bf7601983611de3565b9150612c0282612bc1565b602082019050919050565b60006020820190508181036000830152612c2681612bea565b9050919050565b7f4552433732313a207472616e7366657220746f206e6f6e20455243373231526560008201527f63656976657220696d706c656d656e7465720000000000000000000000000000602082015250565b6000612c89603283611de3565b9150612c9482612c2d565b604082019050919050565b60006020820190508181036000830152612cb881612c7c565b9050919050565b7f4e487b7100000000000000000000000000000000000000000000000000000000600052601260045260246000fd5b7f4e487b7100000000000000000000000000000000000000000000000000000000600052601160045260246000fd5b6000612d2882611e8a565b9150612d3383611e8a565b9250828203905081811115612d4b57612d4a612cee565b5b92915050565b6000612d5c82611e8a565b9150612d6783611e8a565b9250828201905080821115612d7f57612d7e612cee565b5b92915050565b600081519050919050565b600082825260208201905092915050565b6000612dac82612d85565b612db68185612d90565b9350612dc6818560208601611df4565b612dcf81611e1e565b840191505092915050565b6000608082019050612def6000830187611f1f565b612dfc6020830186611f1f565b612e0960408301856121b3565b8181036060830152612e1b8184612da1565b905095945050505050565b600081519050612e3581611d49565b92915050565b600060208284031215612e5157612e50611d13565b5b6000612e5f84828501612e26565b91505092915050565b7f4552433732313a206d696e7420746f20746865207a65726f2061646472657373600082015250565b6000612e9e602083611de3565b9150612ea982612e68565b602082019050919050565b60006020820190508181036000830152612ecd81612e91565b9050919050565b7f4552433732313a20746f6b656e20616c7265616479206d696e74656400000000600082015250565b6000612f0a601c83611de3565b9150612f1582612ed4565b602082019050919050565b60006020820190508181036000830152612f3981612efd565b905091905056fe68747470733a2f2f7261772e67697468756275736572636f6e74656e742e636f6d2f49616e536d697468313333372f47656f636f696e576562332f6d6574612f6d6574612f636f6e74726163742e6a736f6ea26469706673582212208d134e34c254133b6d3e4ad4aa18a7563d1753314eb76190c65e5c651d97495164736f6c63430008110033",
  "linkReferences": {},
  "deployedLinkReferences": {}
}