{
  "_format": "hh-sol-artifact-1",
  "contractName": "GCW3Raffle",
  "sourceName": "contracts/GCW3raffle.sol",
  "abi": [
    {
      "inputs": [],
      "stateMutability": "nonpayable",
      "type": "constructor"
    },
    {
      "inputs": [
        {
          "internalType": "address",
          "name": "addr",
          "type": "address"
        }
      ],
      "name": "InvalidAddress",
      "type": "error"
    },
    {
      "inputs": [
        {
          "internalType": "uint256",
          "name": "sent",
          "type": "uint256"
        },
        {
          "internalType": "uint256",
          "name": "tickets",
          "type": "uint256"
        },
        {
          "internalType": "uint256",
          "name": "ticketCost",
          "type": "uint256"
        }
      ],
      "name": "UnevenPayment",
      "type": "error"
    },
    {
      "inputs": [
        {
          "internalType": "address",
          "name": "addr",
          "type": "address"
        }
      ],
      "name": "duplicateWinner",
      "type": "error"
    },
    {
      "anonymous": false,
      "inputs": [
        {
          "indexed": true,
          "internalType": "address",
          "name": "previousOwner",
          "type": "address"
        },
        {
          "indexed": true,
          "internalType": "address",
          "name": "newOwner",
          "type": "address"
        }
      ],
      "name": "OwnershipTransferred",
      "type": "event"
    },
    {
      "inputs": [],
      "name": "addUser",
      "outputs": [],
      "stateMutability": "nonpayable",
      "type": "function"
    },
    {
      "inputs": [
        {
          "internalType": "uint256",
          "name": "",
          "type": "uint256"
        }
      ],
      "name": "awardedUsers",
      "outputs": [
        {
          "internalType": "address",
          "name": "",
          "type": "address"
        }
      ],
      "stateMutability": "view",
      "type": "function"
    },
    {
      "inputs": [
        {
          "internalType": "uint256",
          "name": "t",
          "type": "uint256"
        }
      ],
      "name": "buyTickets",
      "outputs": [],
      "stateMutability": "payable",
      "type": "function"
    },
    {
      "inputs": [],
      "name": "calcWeightedArrayFromRaffle",
      "outputs": [],
      "stateMutability": "nonpayable",
      "type": "function"
    },
    {
      "inputs": [],
      "name": "getTicketCount",
      "outputs": [
        {
          "internalType": "uint256",
          "name": "",
          "type": "uint256"
        }
      ],
      "stateMutability": "view",
      "type": "function"
    },
    {
      "inputs": [],
      "name": "getWeightedFromRaffle",
      "outputs": [
        {
          "internalType": "address[]",
          "name": "",
          "type": "address[]"
        }
      ],
      "stateMutability": "view",
      "type": "function"
    },
    {
      "inputs": [],
      "name": "getWinnersFromRaffle",
      "outputs": [
        {
          "internalType": "address[]",
          "name": "",
          "type": "address[]"
        }
      ],
      "stateMutability": "view",
      "type": "function"
    },
    {
      "inputs": [],
      "name": "owner",
      "outputs": [
        {
          "internalType": "address",
          "name": "",
          "type": "address"
        }
      ],
      "stateMutability": "view",
      "type": "function"
    },
    {
      "inputs": [
        {
          "internalType": "address",
          "name": "dest",
          "type": "address"
        }
      ],
      "name": "payments",
      "outputs": [
        {
          "internalType": "uint256",
          "name": "",
          "type": "uint256"
        }
      ],
      "stateMutability": "view",
      "type": "function"
    },
    {
      "inputs": [
        {
          "internalType": "uint256",
          "name": "",
          "type": "uint256"
        }
      ],
      "name": "registeredUsers",
      "outputs": [
        {
          "internalType": "address",
          "name": "",
          "type": "address"
        }
      ],
      "stateMutability": "view",
      "type": "function"
    },
    {
      "inputs": [],
      "name": "renounceOwnership",
      "outputs": [],
      "stateMutability": "nonpayable",
      "type": "function"
    },
    {
      "inputs": [],
      "name": "reset",
      "outputs": [],
      "stateMutability": "nonpayable",
      "type": "function"
    },
    {
      "inputs": [
        {
          "internalType": "address",
          "name": "user",
          "type": "address"
        }
      ],
      "name": "setWinnersFromRaffle",
      "outputs": [],
      "stateMutability": "nonpayable",
      "type": "function"
    },
    {
      "inputs": [
        {
          "internalType": "address",
          "name": "newOwner",
          "type": "address"
        }
      ],
      "name": "transferOwnership",
      "outputs": [],
      "stateMutability": "nonpayable",
      "type": "function"
    },
    {
      "inputs": [
        {
          "internalType": "address payable",
          "name": "payee",
          "type": "address"
        }
      ],
      "name": "withdrawPayments",
      "outputs": [],
      "stateMutability": "nonpayable",
      "type": "function"
    }
  ],
  "bytecode": "0x60a0604052662386f26fc100006002553480156200001c57600080fd5b506200003d62000031620000a260201b60201c565b620000aa60201b60201c565b6040516200004b906200016e565b604051809103906000f08015801562000068573d6000803e3d6000fd5b5073ffffffffffffffffffffffffffffffffffffffff1660808173ffffffffffffffffffffffffffffffffffffffff16815250506200017c565b600033905090565b60008060009054906101000a900473ffffffffffffffffffffffffffffffffffffffff169050816000806101000a81548173ffffffffffffffffffffffffffffffffffffffff021916908373ffffffffffffffffffffffffffffffffffffffff1602179055508173ffffffffffffffffffffffffffffffffffffffff168173ffffffffffffffffffffffffffffffffffffffff167f8be0079c531659141344cd1fd0a4f28419497f9722a3daafe3b4186f6b6457e060405160405180910390a35050565b610ba18062001aac83390190565b60805161190d6200019f60003960008181610a840152611028015261190d6000f3fe6080604052600436106100e85760003560e01c80637259e0f81161008a578063e2982c2111610059578063e2982c211461029d578063f066888a146102da578063f2fde38b14610303578063f335520a1461032c576100e8565b80637259e0f8146101f35780638da5cb5b14610230578063c94e19651461025b578063d826f88f14610286576100e8565b80632f366637116100c65780632f3666371461018057806331b3eb941461019c578063455c928c146101c5578063715018a6146101dc576100e8565b8063102b8cdf146100ed57806321c63a47146101185780632c56f49714610143575b600080fd5b3480156100f957600080fd5b50610102610343565b60405161010f91906112ae565b60405180910390f35b34801561012457600080fd5b5061012d6103d9565b60405161013a91906112e9565b60405180910390f35b34801561014f57600080fd5b5061016a60048036038101906101659190611335565b610488565b6040516101779190611371565b60405180910390f35b61019a60048036038101906101959190611335565b6104c7565b005b3480156101a857600080fd5b506101c360048036038101906101be91906113ca565b610773565b005b3480156101d157600080fd5b506101da610787565b005b3480156101e857600080fd5b506101f1610890565b005b3480156101ff57600080fd5b5061021a60048036038101906102159190611335565b6108a4565b6040516102279190611371565b60405180910390f35b34801561023c57600080fd5b506102456108e3565b6040516102529190611371565b60405180910390f35b34801561026757600080fd5b5061027061090c565b60405161027d91906112ae565b60405180910390f35b34801561029257600080fd5b5061029b6109a2565b005b3480156102a957600080fd5b506102c460048036038101906102bf9190611423565b610a80565b6040516102d191906112e9565b60405180910390f35b3480156102e657600080fd5b5061030160048036038101906102fc9190611423565b610b23565b005b34801561030f57600080fd5b5061032a60048036038101906103259190611423565b610c63565b005b34801561033857600080fd5b50610341610ce6565b005b606061034d610e54565b60048054806020026020016040519081016040528092919081815260200182805480156103cf57602002820191906000526020600020905b8160009054906101000a900473ffffffffffffffffffffffffffffffffffffffff1673ffffffffffffffffffffffffffffffffffffffff1681526020019060010190808311610385575b5050505050905090565b60006103e3610e54565b6103eb610ed2565b61042a576040517f08c379a0000000000000000000000000000000000000000000000000000000008152600401610421906114ad565b60405180910390fd5b610432610f7a565b61043f5760009050610485565b600160003373ffffffffffffffffffffffffffffffffffffffff1673ffffffffffffffffffffffffffffffffffffffff1681526020019081526020016000206001015490505b90565b6004818154811061049857600080fd5b906000526020600020016000915054906101000a900473ffffffffffffffffffffffffffffffffffffffff1681565b6104cf610ed2565b61050e576040517f08c379a0000000000000000000000000000000000000000000000000000000008152600401610505906114ad565b60405180910390fd5b600160003373ffffffffffffffffffffffffffffffffffffffff1673ffffffffffffffffffffffffffffffffffffffff1681526020019081526020016000206001015481600160003373ffffffffffffffffffffffffffffffffffffffff1673ffffffffffffffffffffffffffffffffffffffff16815260200190815260200160002060010160008282546105a391906114fc565b925050819055116105e9576040517f08c379a00000000000000000000000000000000000000000000000000000000081526004016105e09061157c565b60405180910390fd5b6000600254346105f991906115cb565b11806106125750806002543461060f91906115fc565b14155b1561065a5734816002546040517f942a81e60000000000000000000000000000000000000000000000000000000081526004016106519392919061162d565b60405180910390fd5b610662610f7a565b156106c55780600160003373ffffffffffffffffffffffffffffffffffffffff1673ffffffffffffffffffffffffffffffffffffffff16815260200190815260200160002060010160008282546106b991906114fc565b92505081905550610729565b6003339080600181540180825580915050600190039060005260206000200160009091909190916101000a81548173ffffffffffffffffffffffffffffffffffffffff021916908373ffffffffffffffffffffffffffffffffffffffff1602179055505b80600160003373ffffffffffffffffffffffffffffffffffffffff1673ffffffffffffffffffffffffffffffffffffffff1681526020019081526020016000206001018190555050565b61077b610e54565b61078481611026565b50565b61078f610ed2565b156107cf576040517f08c379a00000000000000000000000000000000000000000000000000000000081526004016107c6906116d6565b60405180910390fd5b60405180604001604052803373ffffffffffffffffffffffffffffffffffffffff1681526020016000815250600160003373ffffffffffffffffffffffffffffffffffffffff1673ffffffffffffffffffffffffffffffffffffffff16815260200190815260200160002060008201518160000160006101000a81548173ffffffffffffffffffffffffffffffffffffffff021916908373ffffffffffffffffffffffffffffffffffffffff16021790555060208201518160010155905050565b610898610e54565b6108a260006110b4565b565b600381815481106108b457600080fd5b906000526020600020016000915054906101000a900473ffffffffffffffffffffffffffffffffffffffff1681565b60008060009054906101000a900473ffffffffffffffffffffffffffffffffffffffff16905090565b6060610916610e54565b600580548060200260200160405190810160405280929190818152602001828054801561099857602002820191906000526020600020905b8160009054906101000a900473ffffffffffffffffffffffffffffffffffffffff1673ffffffffffffffffffffffffffffffffffffffff168152602001906001019080831161094e575b5050505050905090565b6109aa610e54565b60005b600380549050811015610a5357600060016000600384815481106109d4576109d36116f6565b5b9060005260206000200160009054906101000a900473ffffffffffffffffffffffffffffffffffffffff1673ffffffffffffffffffffffffffffffffffffffff1673ffffffffffffffffffffffffffffffffffffffff168152602001908152602001600020600101819055508080610a4b90611725565b9150506109ad565b5060036000610a629190611180565b60046000610a709190611180565b60056000610a7e9190611180565b565b60007f000000000000000000000000000000000000000000000000000000000000000073ffffffffffffffffffffffffffffffffffffffff1663e3a9db1a836040518263ffffffff1660e01b8152600401610adb9190611371565b602060405180830381865afa158015610af8573d6000803e3d6000fd5b505050506040513d601f19601f82011682018060405250810190610b1c9190611782565b9050919050565b610b2b610e54565b60005b600480549050811015610bfc5760048181548110610b4f57610b4e6116f6565b5b9060005260206000200160009054906101000a900473ffffffffffffffffffffffffffffffffffffffff1673ffffffffffffffffffffffffffffffffffffffff168273ffffffffffffffffffffffffffffffffffffffff1603610be957816040517fdf93798a000000000000000000000000000000000000000000000000000000008152600401610be09190611371565b60405180910390fd5b8080610bf490611725565b915050610b2e565b506004819080600181540180825580915050600190039060005260206000200160009091909190916101000a81548173ffffffffffffffffffffffffffffffffffffffff021916908373ffffffffffffffffffffffffffffffffffffffff16021790555050565b610c6b610e54565b600073ffffffffffffffffffffffffffffffffffffffff168173ffffffffffffffffffffffffffffffffffffffff1603610cda576040517f08c379a0000000000000000000000000000000000000000000000000000000008152600401610cd190611821565b60405180910390fd5b610ce3816110b4565b50565b610cee610e54565b60005b600380549050811015610e515760005b6001600060038481548110610d1957610d186116f6565b5b9060005260206000200160009054906101000a900473ffffffffffffffffffffffffffffffffffffffff1673ffffffffffffffffffffffffffffffffffffffff1673ffffffffffffffffffffffffffffffffffffffff16815260200190815260200160002060010154811015610e3d57600560038381548110610d9f57610d9e6116f6565b5b9060005260206000200160009054906101000a900473ffffffffffffffffffffffffffffffffffffffff169080600181540180825580915050600190039060005260206000200160009091909190916101000a81548173ffffffffffffffffffffffffffffffffffffffff021916908373ffffffffffffffffffffffffffffffffffffffff1602179055508080610e3590611725565b915050610d01565b508080610e4990611725565b915050610cf1565b50565b610e5c611178565b73ffffffffffffffffffffffffffffffffffffffff16610e7a6108e3565b73ffffffffffffffffffffffffffffffffffffffff1614610ed0576040517f08c379a0000000000000000000000000000000000000000000000000000000008152600401610ec79061188d565b60405180910390fd5b565b60008073ffffffffffffffffffffffffffffffffffffffff16600160003373ffffffffffffffffffffffffffffffffffffffff1673ffffffffffffffffffffffffffffffffffffffff16815260200190815260200160002060000160009054906101000a900473ffffffffffffffffffffffffffffffffffffffff1673ffffffffffffffffffffffffffffffffffffffff1614610f725760019050610f77565b600090505b90565b600080600090505b60038054905081101561101d5760038181548110610fa357610fa26116f6565b5b9060005260206000200160009054906101000a900473ffffffffffffffffffffffffffffffffffffffff1673ffffffffffffffffffffffffffffffffffffffff163373ffffffffffffffffffffffffffffffffffffffff160361100a576001915050611023565b808061101590611725565b915050610f82565b50600090505b90565b7f000000000000000000000000000000000000000000000000000000000000000073ffffffffffffffffffffffffffffffffffffffff166351cff8d9826040518263ffffffff1660e01b815260040161107f91906118bc565b600060405180830381600087803b15801561109957600080fd5b505af11580156110ad573d6000803e3d6000fd5b5050505050565b60008060009054906101000a900473ffffffffffffffffffffffffffffffffffffffff169050816000806101000a81548173ffffffffffffffffffffffffffffffffffffffff021916908373ffffffffffffffffffffffffffffffffffffffff1602179055508173ffffffffffffffffffffffffffffffffffffffff168173ffffffffffffffffffffffffffffffffffffffff167f8be0079c531659141344cd1fd0a4f28419497f9722a3daafe3b4186f6b6457e060405160405180910390a35050565b600033905090565b508054600082559060005260206000209081019061119e91906111a1565b50565b5b808211156111ba5760008160009055506001016111a2565b5090565b600081519050919050565b600082825260208201905092915050565b6000819050602082019050919050565b600073ffffffffffffffffffffffffffffffffffffffff82169050919050565b6000611215826111ea565b9050919050565b6112258161120a565b82525050565b6000611237838361121c565b60208301905092915050565b6000602082019050919050565b600061125b826111be565b61126581856111c9565b9350611270836111da565b8060005b838110156112a1578151611288888261122b565b975061129383611243565b925050600181019050611274565b5085935050505092915050565b600060208201905081810360008301526112c88184611250565b905092915050565b6000819050919050565b6112e3816112d0565b82525050565b60006020820190506112fe60008301846112da565b92915050565b600080fd5b611312816112d0565b811461131d57600080fd5b50565b60008135905061132f81611309565b92915050565b60006020828403121561134b5761134a611304565b5b600061135984828501611320565b91505092915050565b61136b8161120a565b82525050565b60006020820190506113866000830184611362565b92915050565b6000611397826111ea565b9050919050565b6113a78161138c565b81146113b257600080fd5b50565b6000813590506113c48161139e565b92915050565b6000602082840312156113e0576113df611304565b5b60006113ee848285016113b5565b91505092915050565b6114008161120a565b811461140b57600080fd5b50565b60008135905061141d816113f7565b92915050565b60006020828403121561143957611438611304565b5b60006114478482850161140e565b91505092915050565b600082825260208201905092915050565b7f4572726f723a205573657220646f65736e2774206578697374207965742e0000600082015250565b6000611497601e83611450565b91506114a282611461565b602082019050919050565b600060208201905081810360008301526114c68161148a565b9050919050565b7f4e487b7100000000000000000000000000000000000000000000000000000000600052601160045260246000fd5b6000611507826112d0565b9150611512836112d0565b925082820190508082111561152a576115296114cd565b5b92915050565b7f4572726f723a205469636b6574206f766572666c6f772e000000000000000000600082015250565b6000611566601783611450565b915061157182611530565b602082019050919050565b6000602082019050818103600083015261159581611559565b9050919050565b7f4e487b7100000000000000000000000000000000000000000000000000000000600052601260045260246000fd5b60006115d6826112d0565b91506115e1836112d0565b9250826115f1576115f061159c565b5b828206905092915050565b6000611607826112d0565b9150611612836112d0565b9250826116225761162161159c565b5b828204905092915050565b600060608201905061164260008301866112da565b61164f60208301856112da565b61165c60408301846112da565b949350505050565b7f4572726f723a2043616e6e6f7420616464206475706c6963617465207573657260008201527f20746f20636f6e74726163742e00000000000000000000000000000000000000602082015250565b60006116c0602d83611450565b91506116cb82611664565b604082019050919050565b600060208201905081810360008301526116ef816116b3565b9050919050565b7f4e487b7100000000000000000000000000000000000000000000000000000000600052603260045260246000fd5b6000611730826112d0565b91507fffffffffffffffffffffffffffffffffffffffffffffffffffffffffffffffff8203611762576117616114cd565b5b600182019050919050565b60008151905061177c81611309565b92915050565b60006020828403121561179857611797611304565b5b60006117a68482850161176d565b91505092915050565b7f4f776e61626c653a206e6577206f776e657220697320746865207a65726f206160008201527f6464726573730000000000000000000000000000000000000000000000000000602082015250565b600061180b602683611450565b9150611816826117af565b604082019050919050565b6000602082019050818103600083015261183a816117fe565b9050919050565b7f4f776e61626c653a2063616c6c6572206973206e6f7420746865206f776e6572600082015250565b6000611877602083611450565b915061188282611841565b602082019050919050565b600060208201905081810360008301526118a68161186a565b9050919050565b6118b68161138c565b82525050565b60006020820190506118d160008301846118ad565b9291505056fea264697066735822122055afa06fab3cbfe0cdbc992dfc247bd54dfcd551c4f2746003a0baea117855f164736f6c63430008110033608060405234801561001057600080fd5b5061002d61002261003260201b60201c565b61003a60201b60201c565b6100fe565b600033905090565b60008060009054906101000a900473ffffffffffffffffffffffffffffffffffffffff169050816000806101000a81548173ffffffffffffffffffffffffffffffffffffffff021916908373ffffffffffffffffffffffffffffffffffffffff1602179055508173ffffffffffffffffffffffffffffffffffffffff168173ffffffffffffffffffffffffffffffffffffffff167f8be0079c531659141344cd1fd0a4f28419497f9722a3daafe3b4186f6b6457e060405160405180910390a35050565b610a948061010d6000396000f3fe6080604052600436106100555760003560e01c806351cff8d91461005a578063715018a6146100835780638da5cb5b1461009a578063e3a9db1a146100c5578063f2fde38b14610102578063f340fa011461012b575b600080fd5b34801561006657600080fd5b50610081600480360381019061007c91906106b2565b610147565b005b34801561008f57600080fd5b50610098610253565b005b3480156100a657600080fd5b506100af610267565b6040516100bc9190610700565b60405180910390f35b3480156100d157600080fd5b506100ec60048036038101906100e79190610747565b610290565b6040516100f9919061078d565b60405180910390f35b34801561010e57600080fd5b5061012960048036038101906101249190610747565b6102d9565b005b61014560048036038101906101409190610747565b61035c565b005b61014f610411565b6000600160008373ffffffffffffffffffffffffffffffffffffffff1673ffffffffffffffffffffffffffffffffffffffff1681526020019081526020016000205490506000600160008473ffffffffffffffffffffffffffffffffffffffff1673ffffffffffffffffffffffffffffffffffffffff16815260200190815260200160002081905550610201818373ffffffffffffffffffffffffffffffffffffffff1661048f90919063ffffffff16565b8173ffffffffffffffffffffffffffffffffffffffff167f7084f5476618d8e60b11ef0d7d3f06914655adb8793e28ff7f018d4c76d505d582604051610247919061078d565b60405180910390a25050565b61025b610411565b6102656000610583565b565b60008060009054906101000a900473ffffffffffffffffffffffffffffffffffffffff16905090565b6000600160008373ffffffffffffffffffffffffffffffffffffffff1673ffffffffffffffffffffffffffffffffffffffff168152602001908152602001600020549050919050565b6102e1610411565b600073ffffffffffffffffffffffffffffffffffffffff168173ffffffffffffffffffffffffffffffffffffffff1603610350576040517f08c379a00000000000000000000000000000000000000000000000000000000081526004016103479061082b565b60405180910390fd5b61035981610583565b50565b610364610411565b600034905080600160008473ffffffffffffffffffffffffffffffffffffffff1673ffffffffffffffffffffffffffffffffffffffff16815260200190815260200160002060008282546103b8919061087a565b925050819055508173ffffffffffffffffffffffffffffffffffffffff167f2da466a7b24304f47e87fa2e1e5a81b9831ce54fec19055ce277ca2f39ba42c482604051610405919061078d565b60405180910390a25050565b610419610647565b73ffffffffffffffffffffffffffffffffffffffff16610437610267565b73ffffffffffffffffffffffffffffffffffffffff161461048d576040517f08c379a0000000000000000000000000000000000000000000000000000000008152600401610484906108fa565b60405180910390fd5b565b804710156104d2576040517f08c379a00000000000000000000000000000000000000000000000000000000081526004016104c990610966565b60405180910390fd5b60008273ffffffffffffffffffffffffffffffffffffffff16826040516104f8906109b7565b60006040518083038185875af1925050503d8060008114610535576040519150601f19603f3d011682016040523d82523d6000602084013e61053a565b606091505b505090508061057e576040517f08c379a000000000000000000000000000000000000000000000000000000000815260040161057590610a3e565b60405180910390fd5b505050565b60008060009054906101000a900473ffffffffffffffffffffffffffffffffffffffff169050816000806101000a81548173ffffffffffffffffffffffffffffffffffffffff021916908373ffffffffffffffffffffffffffffffffffffffff1602179055508173ffffffffffffffffffffffffffffffffffffffff168173ffffffffffffffffffffffffffffffffffffffff167f8be0079c531659141344cd1fd0a4f28419497f9722a3daafe3b4186f6b6457e060405160405180910390a35050565b600033905090565b600080fd5b600073ffffffffffffffffffffffffffffffffffffffff82169050919050565b600061067f82610654565b9050919050565b61068f81610674565b811461069a57600080fd5b50565b6000813590506106ac81610686565b92915050565b6000602082840312156106c8576106c761064f565b5b60006106d68482850161069d565b91505092915050565b60006106ea82610654565b9050919050565b6106fa816106df565b82525050565b600060208201905061071560008301846106f1565b92915050565b610724816106df565b811461072f57600080fd5b50565b6000813590506107418161071b565b92915050565b60006020828403121561075d5761075c61064f565b5b600061076b84828501610732565b91505092915050565b6000819050919050565b61078781610774565b82525050565b60006020820190506107a2600083018461077e565b92915050565b600082825260208201905092915050565b7f4f776e61626c653a206e6577206f776e657220697320746865207a65726f206160008201527f6464726573730000000000000000000000000000000000000000000000000000602082015250565b60006108156026836107a8565b9150610820826107b9565b604082019050919050565b6000602082019050818103600083015261084481610808565b9050919050565b7f4e487b7100000000000000000000000000000000000000000000000000000000600052601160045260246000fd5b600061088582610774565b915061089083610774565b92508282019050808211156108a8576108a761084b565b5b92915050565b7f4f776e61626c653a2063616c6c6572206973206e6f7420746865206f776e6572600082015250565b60006108e46020836107a8565b91506108ef826108ae565b602082019050919050565b60006020820190508181036000830152610913816108d7565b9050919050565b7f416464726573733a20696e73756666696369656e742062616c616e6365000000600082015250565b6000610950601d836107a8565b915061095b8261091a565b602082019050919050565b6000602082019050818103600083015261097f81610943565b9050919050565b600081905092915050565b50565b60006109a1600083610986565b91506109ac82610991565b600082019050919050565b60006109c282610994565b9150819050919050565b7f416464726573733a20756e61626c6520746f2073656e642076616c75652c207260008201527f6563697069656e74206d61792068617665207265766572746564000000000000602082015250565b6000610a28603a836107a8565b9150610a33826109cc565b604082019050919050565b60006020820190508181036000830152610a5781610a1b565b905091905056fea2646970667358221220615cfee549c14d6cc44f5650a219cb79ee6e4e10d5bda4aeb19b6c34868022fc64736f6c63430008110033",
  "linkReferences": {},
  "deployedLinkReferences": {}
}