{
  "_format": "hh-sol-artifact-1",
  "contractName": "GCW3RaffleV2",
  "sourceName": "contracts/GCW3RaffleV2.sol",
  "abi": [
    {
      "inputs": [],
      "stateMutability": "nonpayable",
      "type": "constructor"
    },
    {
      "inputs": [
        {
          "internalType": "address",
          "name": "addr",
          "type": "address"
        }
      ],
      "name": "InvalidAddress",
      "type": "error"
    },
    {
      "inputs": [
        {
          "internalType": "uint256",
          "name": "sent",
          "type": "uint256"
        },
        {
          "internalType": "uint256",
          "name": "tickets",
          "type": "uint256"
        },
        {
          "internalType": "uint256",
          "name": "ticketCost",
          "type": "uint256"
        }
      ],
      "name": "UnevenPayment",
      "type": "error"
    },
    {
      "inputs": [
        {
          "internalType": "address",
          "name": "addr",
          "type": "address"
        }
      ],
      "name": "duplicateWinner",
      "type": "error"
    },
    {
      "anonymous": false,
      "inputs": [
        {
          "indexed": true,
          "internalType": "address",
          "name": "previousOwner",
          "type": "address"
        },
        {
          "indexed": true,
          "internalType": "address",
          "name": "newOwner",
          "type": "address"
        }
      ],
      "name": "OwnershipTransferred",
      "type": "event"
    },
    {
      "inputs": [
        {
          "internalType": "address",
          "name": "a",
          "type": "address"
        }
      ],
      "name": "DeOpAddress",
      "outputs": [],
      "stateMutability": "nonpayable",
      "type": "function"
    },
    {
      "inputs": [
        {
          "internalType": "address",
          "name": "a",
          "type": "address"
        }
      ],
      "name": "OpAddress",
      "outputs": [],
      "stateMutability": "nonpayable",
      "type": "function"
    },
    {
      "inputs": [],
      "name": "addUser",
      "outputs": [],
      "stateMutability": "nonpayable",
      "type": "function"
    },
    {
      "inputs": [
        {
          "internalType": "uint256",
          "name": "",
          "type": "uint256"
        }
      ],
      "name": "awardedUsers",
      "outputs": [
        {
          "internalType": "address",
          "name": "",
          "type": "address"
        }
      ],
      "stateMutability": "view",
      "type": "function"
    },
    {
      "inputs": [
        {
          "internalType": "uint256",
          "name": "t",
          "type": "uint256"
        }
      ],
      "name": "buyTickets",
      "outputs": [],
      "stateMutability": "payable",
      "type": "function"
    },
    {
      "inputs": [],
      "name": "calcWeightedArrayFromRaffle",
      "outputs": [],
      "stateMutability": "nonpayable",
      "type": "function"
    },
    {
      "inputs": [],
      "name": "getAllFromRaffle",
      "outputs": [
        {
          "internalType": "address[]",
          "name": "",
          "type": "address[]"
        }
      ],
      "stateMutability": "view",
      "type": "function"
    },
    {
      "inputs": [],
      "name": "getTicketCount",
      "outputs": [
        {
          "internalType": "uint256",
          "name": "",
          "type": "uint256"
        }
      ],
      "stateMutability": "view",
      "type": "function"
    },
    {
      "inputs": [],
      "name": "getWeightedFromRaffle",
      "outputs": [
        {
          "internalType": "address[]",
          "name": "",
          "type": "address[]"
        }
      ],
      "stateMutability": "view",
      "type": "function"
    },
    {
      "inputs": [],
      "name": "getWinnersFromRaffle",
      "outputs": [
        {
          "internalType": "address[]",
          "name": "",
          "type": "address[]"
        }
      ],
      "stateMutability": "view",
      "type": "function"
    },
    {
      "inputs": [],
      "name": "owner",
      "outputs": [
        {
          "internalType": "address",
          "name": "",
          "type": "address"
        }
      ],
      "stateMutability": "view",
      "type": "function"
    },
    {
      "inputs": [
        {
          "internalType": "address",
          "name": "dest",
          "type": "address"
        }
      ],
      "name": "payments",
      "outputs": [
        {
          "internalType": "uint256",
          "name": "",
          "type": "uint256"
        }
      ],
      "stateMutability": "view",
      "type": "function"
    },
    {
      "inputs": [
        {
          "internalType": "uint256",
          "name": "",
          "type": "uint256"
        }
      ],
      "name": "registeredUsers",
      "outputs": [
        {
          "internalType": "address",
          "name": "",
          "type": "address"
        }
      ],
      "stateMutability": "view",
      "type": "function"
    },
    {
      "inputs": [],
      "name": "renounceOwnership",
      "outputs": [],
      "stateMutability": "nonpayable",
      "type": "function"
    },
    {
      "inputs": [],
      "name": "reset",
      "outputs": [],
      "stateMutability": "nonpayable",
      "type": "function"
    },
    {
      "inputs": [
        {
          "internalType": "address",
          "name": "user",
          "type": "address"
        }
      ],
      "name": "setWinnersFromRaffle",
      "outputs": [],
      "stateMutability": "nonpayable",
      "type": "function"
    },
    {
      "inputs": [
        {
          "internalType": "address",
          "name": "newOwner",
          "type": "address"
        }
      ],
      "name": "transferOwnership",
      "outputs": [],
      "stateMutability": "nonpayable",
      "type": "function"
    },
    {
      "inputs": [
        {
          "internalType": "address payable",
          "name": "payee",
          "type": "address"
        }
      ],
      "name": "withdrawPayments",
      "outputs": [],
      "stateMutability": "nonpayable",
      "type": "function"
    }
  ],
  "bytecode": "0x60a0604052662386f26fc100006003553480156200001c57600080fd5b506200003d62000031620000a260201b60201c565b620000aa60201b60201c565b6040516200004b906200016e565b604051809103906000f08015801562000068573d6000803e3d6000fd5b5073ffffffffffffffffffffffffffffffffffffffff1660808173ffffffffffffffffffffffffffffffffffffffff16815250506200017c565b600033905090565b60008060009054906101000a900473ffffffffffffffffffffffffffffffffffffffff169050816000806101000a81548173ffffffffffffffffffffffffffffffffffffffff021916908373ffffffffffffffffffffffffffffffffffffffff1602179055508173ffffffffffffffffffffffffffffffffffffffff168173ffffffffffffffffffffffffffffffffffffffff167f8be0079c531659141344cd1fd0a4f28419497f9722a3daafe3b4186f6b6457e060405160405180910390a35050565b610ba18062002ba083390190565b6080516129fa620001a66000396000818161122d01528181611b710152611c0101526129fa6000f3fe6080604052600436106101095760003560e01c80637259e0f811610095578063d826f88f11610064578063d826f88f14610324578063e2982c211461033b578063f066888a14610378578063f2fde38b146103a1578063f335520a146103ca57610109565b80637259e0f8146102685780638da5cb5b146102a5578063bed0a13f146102d0578063c94e1965146102f957610109565b80632f366637116100dc5780632f366637146101ca57806331b3eb94146101e6578063455c928c1461020f578063550b58f314610226578063715018a61461025157610109565b8063102b8cdf1461010e57806321c63a47146101395780632977dc73146101645780632c56f4971461018d575b600080fd5b34801561011a57600080fd5b506101236103e1565b604051610130919061215d565b60405180910390f35b34801561014557600080fd5b5061014e61057e565b60405161015b9190612198565b60405180910390f35b34801561017057600080fd5b5061018b600480360381019061018691906121e4565b610733565b005b34801561019957600080fd5b506101b460048036038101906101af919061223d565b610747565b6040516101c19190612279565b60405180910390f35b6101e460048036038101906101df919061223d565b610786565b005b3480156101f257600080fd5b5061020d600480360381019061020891906122d2565b610b5d565b005b34801561021b57600080fd5b50610224610b71565b005b34801561023257600080fd5b5061023b610c7a565b604051610248919061215d565b60405180910390f35b34801561025d57600080fd5b50610266610e17565b005b34801561027457600080fd5b5061028f600480360381019061028a919061223d565b610e2b565b60405161029c9190612279565b60405180910390f35b3480156102b157600080fd5b506102ba610e6a565b6040516102c79190612279565b60405180910390f35b3480156102dc57600080fd5b506102f760048036038101906102f291906121e4565b610e93565b005b34801561030557600080fd5b5061030e610ea7565b60405161031b919061215d565b60405180910390f35b34801561033057600080fd5b50610339611044565b005b34801561034757600080fd5b50610362600480360381019061035d91906121e4565b611229565b60405161036f9190612198565b60405180910390f35b34801561038457600080fd5b5061039f600480360381019061039a91906121e4565b6112cc565b005b3480156103ad57600080fd5b506103c860048036038101906103c391906121e4565b611513565b005b3480156103d657600080fd5b506103df611596565b005b6060600073ffffffffffffffffffffffffffffffffffffffff16600160003373ffffffffffffffffffffffffffffffffffffffff1673ffffffffffffffffffffffffffffffffffffffff16815260200190815260200160002060000160009054906101000a900473ffffffffffffffffffffffffffffffffffffffff1673ffffffffffffffffffffffffffffffffffffffff161415806104b357503373ffffffffffffffffffffffffffffffffffffffff1661049b610e6a565b73ffffffffffffffffffffffffffffffffffffffff16145b6104f2576040517f08c379a00000000000000000000000000000000000000000000000000000000081526004016104e99061235c565b60405180910390fd5b600580548060200260200160405190810160405280929190818152602001828054801561057457602002820191906000526020600020905b8160009054906101000a900473ffffffffffffffffffffffffffffffffffffffff1673ffffffffffffffffffffffffffffffffffffffff168152602001906001019080831161052a575b5050505050905090565b60008073ffffffffffffffffffffffffffffffffffffffff16600160003373ffffffffffffffffffffffffffffffffffffffff1673ffffffffffffffffffffffffffffffffffffffff16815260200190815260200160002060000160009054906101000a900473ffffffffffffffffffffffffffffffffffffffff1673ffffffffffffffffffffffffffffffffffffffff1614158061064f57503373ffffffffffffffffffffffffffffffffffffffff16610637610e6a565b73ffffffffffffffffffffffffffffffffffffffff16145b61068e576040517f08c379a00000000000000000000000000000000000000000000000000000000081526004016106859061235c565b60405180910390fd5b61069661180b565b6106d5576040517f08c379a00000000000000000000000000000000000000000000000000000000081526004016106cc906123c8565b60405180910390fd5b6106dd6118b3565b6106ea5760009050610730565b600260003373ffffffffffffffffffffffffffffffffffffffff1673ffffffffffffffffffffffffffffffffffffffff1681526020019081526020016000206001015490505b90565b61073b61195f565b610744816119dd565b50565b6005818154811061075757600080fd5b906000526020600020016000915054906101000a900473ffffffffffffffffffffffffffffffffffffffff1681565b61078e61180b565b6107cd576040517f08c379a00000000000000000000000000000000000000000000000000000000081526004016107c4906123c8565b60405180910390fd5b600260003373ffffffffffffffffffffffffffffffffffffffff1673ffffffffffffffffffffffffffffffffffffffff1681526020019081526020016000206001015481600260003373ffffffffffffffffffffffffffffffffffffffff1673ffffffffffffffffffffffffffffffffffffffff16815260200190815260200160002060010160008282546108629190612417565b925050819055116108a8576040517f08c379a000000000000000000000000000000000000000000000000000000000815260040161089f90612497565b60405180910390fd5b6000600354346108b891906124e6565b11806108d1575080600354346108ce9190612517565b14155b156109195734816003546040517f942a81e600000000000000000000000000000000000000000000000000000000815260040161091093929190612548565b60405180910390fd5b6109216118b3565b15610a375761099e3073ffffffffffffffffffffffffffffffffffffffff16638da5cb5b6040518163ffffffff1660e01b8152600401602060405180830381865afa158015610974573d6000803e3d6000fd5b505050506040513d601f19601f820116820180604052508101906109989190612594565b34611b6f565b80600260003373ffffffffffffffffffffffffffffffffffffffff1673ffffffffffffffffffffffffffffffffffffffff168152602001908152602001600020600101546109ec9190612417565b600260003373ffffffffffffffffffffffffffffffffffffffff1673ffffffffffffffffffffffffffffffffffffffff16815260200190815260200160002060010181905550610b5a565b610aaf3073ffffffffffffffffffffffffffffffffffffffff16638da5cb5b6040518163ffffffff1660e01b8152600401602060405180830381865afa158015610a85573d6000803e3d6000fd5b505050506040513d601f19601f82011682018060405250810190610aa99190612594565b34611b6f565b6004339080600181540180825580915050600190039060005260206000200160009091909190916101000a81548173ffffffffffffffffffffffffffffffffffffffff021916908373ffffffffffffffffffffffffffffffffffffffff16021790555080600260003373ffffffffffffffffffffffffffffffffffffffff1673ffffffffffffffffffffffffffffffffffffffff168152602001908152602001600020600101819055505b50565b610b6561195f565b610b6e81611bff565b50565b610b7961180b565b15610bb9576040517f08c379a0000000000000000000000000000000000000000000000000000000008152600401610bb090612633565b60405180910390fd5b60405180604001604052803373ffffffffffffffffffffffffffffffffffffffff1681526020016000815250600260003373ffffffffffffffffffffffffffffffffffffffff1673ffffffffffffffffffffffffffffffffffffffff16815260200190815260200160002060008201518160000160006101000a81548173ffffffffffffffffffffffffffffffffffffffff021916908373ffffffffffffffffffffffffffffffffffffffff16021790555060208201518160010155905050565b6060600073ffffffffffffffffffffffffffffffffffffffff16600160003373ffffffffffffffffffffffffffffffffffffffff1673ffffffffffffffffffffffffffffffffffffffff16815260200190815260200160002060000160009054906101000a900473ffffffffffffffffffffffffffffffffffffffff1673ffffffffffffffffffffffffffffffffffffffff16141580610d4c57503373ffffffffffffffffffffffffffffffffffffffff16610d34610e6a565b73ffffffffffffffffffffffffffffffffffffffff16145b610d8b576040517f08c379a0000000000000000000000000000000000000000000000000000000008152600401610d829061235c565b60405180910390fd5b6004805480602002602001604051908101604052809291908181526020018280548015610e0d57602002820191906000526020600020905b8160009054906101000a900473ffffffffffffffffffffffffffffffffffffffff1673ffffffffffffffffffffffffffffffffffffffff1681526020019060010190808311610dc3575b5050505050905090565b610e1f61195f565b610e296000611c8d565b565b60048181548110610e3b57600080fd5b906000526020600020016000915054906101000a900473ffffffffffffffffffffffffffffffffffffffff1681565b60008060009054906101000a900473ffffffffffffffffffffffffffffffffffffffff16905090565b610e9b61195f565b610ea481611d51565b50565b6060600073ffffffffffffffffffffffffffffffffffffffff16600160003373ffffffffffffffffffffffffffffffffffffffff1673ffffffffffffffffffffffffffffffffffffffff16815260200190815260200160002060000160009054906101000a900473ffffffffffffffffffffffffffffffffffffffff1673ffffffffffffffffffffffffffffffffffffffff16141580610f7957503373ffffffffffffffffffffffffffffffffffffffff16610f61610e6a565b73ffffffffffffffffffffffffffffffffffffffff16145b610fb8576040517f08c379a0000000000000000000000000000000000000000000000000000000008152600401610faf9061235c565b60405180910390fd5b600680548060200260200160405190810160405280929190818152602001828054801561103a57602002820191906000526020600020905b8160009054906101000a900473ffffffffffffffffffffffffffffffffffffffff1673ffffffffffffffffffffffffffffffffffffffff1681526020019060010190808311610ff0575b5050505050905090565b600073ffffffffffffffffffffffffffffffffffffffff16600160003373ffffffffffffffffffffffffffffffffffffffff1673ffffffffffffffffffffffffffffffffffffffff16815260200190815260200160002060000160009054906101000a900473ffffffffffffffffffffffffffffffffffffffff1673ffffffffffffffffffffffffffffffffffffffff1614158061111457503373ffffffffffffffffffffffffffffffffffffffff166110fc610e6a565b73ffffffffffffffffffffffffffffffffffffffff16145b611153576040517f08c379a000000000000000000000000000000000000000000000000000000000815260040161114a9061235c565b60405180910390fd5b60005b6004805490508110156111fc576000600260006004848154811061117d5761117c612653565b5b9060005260206000200160009054906101000a900473ffffffffffffffffffffffffffffffffffffffff1673ffffffffffffffffffffffffffffffffffffffff1673ffffffffffffffffffffffffffffffffffffffff1681526020019081526020016000206001018190555080806111f490612682565b915050611156565b506004600061120b919061202f565b60056000611219919061202f565b60066000611227919061202f565b565b60007f000000000000000000000000000000000000000000000000000000000000000073ffffffffffffffffffffffffffffffffffffffff1663e3a9db1a836040518263ffffffff1660e01b81526004016112849190612279565b602060405180830381865afa1580156112a1573d6000803e3d6000fd5b505050506040513d601f19601f820116820180604052508101906112c591906126df565b9050919050565b600073ffffffffffffffffffffffffffffffffffffffff16600160003373ffffffffffffffffffffffffffffffffffffffff1673ffffffffffffffffffffffffffffffffffffffff16815260200190815260200160002060000160009054906101000a900473ffffffffffffffffffffffffffffffffffffffff1673ffffffffffffffffffffffffffffffffffffffff1614158061139c57503373ffffffffffffffffffffffffffffffffffffffff16611384610e6a565b73ffffffffffffffffffffffffffffffffffffffff16145b6113db576040517f08c379a00000000000000000000000000000000000000000000000000000000081526004016113d29061235c565b60405180910390fd5b60005b6005805490508110156114ac57600581815481106113ff576113fe612653565b5b9060005260206000200160009054906101000a900473ffffffffffffffffffffffffffffffffffffffff1673ffffffffffffffffffffffffffffffffffffffff168273ffffffffffffffffffffffffffffffffffffffff160361149957816040517fdf93798a0000000000000000000000000000000000000000000000000000000081526004016114909190612279565b60405180910390fd5b80806114a490612682565b9150506113de565b506005819080600181540180825580915050600190039060005260206000200160009091909190916101000a81548173ffffffffffffffffffffffffffffffffffffffff021916908373ffffffffffffffffffffffffffffffffffffffff16021790555050565b61151b61195f565b600073ffffffffffffffffffffffffffffffffffffffff168173ffffffffffffffffffffffffffffffffffffffff160361158a576040517f08c379a00000000000000000000000000000000000000000000000000000000081526004016115819061277e565b60405180910390fd5b61159381611c8d565b50565b600073ffffffffffffffffffffffffffffffffffffffff16600160003373ffffffffffffffffffffffffffffffffffffffff1673ffffffffffffffffffffffffffffffffffffffff16815260200190815260200160002060000160009054906101000a900473ffffffffffffffffffffffffffffffffffffffff1673ffffffffffffffffffffffffffffffffffffffff1614158061166657503373ffffffffffffffffffffffffffffffffffffffff1661164e610e6a565b73ffffffffffffffffffffffffffffffffffffffff16145b6116a5576040517f08c379a000000000000000000000000000000000000000000000000000000000815260040161169c9061235c565b60405180910390fd5b60005b6004805490508110156118085760005b60026000600484815481106116d0576116cf612653565b5b9060005260206000200160009054906101000a900473ffffffffffffffffffffffffffffffffffffffff1673ffffffffffffffffffffffffffffffffffffffff1673ffffffffffffffffffffffffffffffffffffffff168152602001908152602001600020600101548110156117f45760066004838154811061175657611755612653565b5b9060005260206000200160009054906101000a900473ffffffffffffffffffffffffffffffffffffffff169080600181540180825580915050600190039060005260206000200160009091909190916101000a81548173ffffffffffffffffffffffffffffffffffffffff021916908373ffffffffffffffffffffffffffffffffffffffff16021790555080806117ec90612682565b9150506116b8565b50808061180090612682565b9150506116a8565b50565b60008073ffffffffffffffffffffffffffffffffffffffff16600260003373ffffffffffffffffffffffffffffffffffffffff1673ffffffffffffffffffffffffffffffffffffffff16815260200190815260200160002060000160009054906101000a900473ffffffffffffffffffffffffffffffffffffffff1673ffffffffffffffffffffffffffffffffffffffff16146118ab57600190506118b0565b600090505b90565b600080600090505b60048054905081101561195657600481815481106118dc576118db612653565b5b9060005260206000200160009054906101000a900473ffffffffffffffffffffffffffffffffffffffff1673ffffffffffffffffffffffffffffffffffffffff163373ffffffffffffffffffffffffffffffffffffffff160361194357600191505061195c565b808061194e90612682565b9150506118bb565b50600090505b90565b611967611ec4565b73ffffffffffffffffffffffffffffffffffffffff16611985610e6a565b73ffffffffffffffffffffffffffffffffffffffff16146119db576040517f08c379a00000000000000000000000000000000000000000000000000000000081526004016119d2906127ea565b60405180910390fd5b565b6119e561195f565b80600073ffffffffffffffffffffffffffffffffffffffff168173ffffffffffffffffffffffffffffffffffffffff1603611a55576040517f08c379a0000000000000000000000000000000000000000000000000000000008152600401611a4c90612856565b60405180910390fd5b611a5e82611ecc565b611a9d576040517f08c379a0000000000000000000000000000000000000000000000000000000008152600401611a94906128e8565b60405180910390fd5b600160008373ffffffffffffffffffffffffffffffffffffffff1673ffffffffffffffffffffffffffffffffffffffff16815260200190815260200160002060000160006101000a81549073ffffffffffffffffffffffffffffffffffffffff0219169055600160008373ffffffffffffffffffffffffffffffffffffffff1673ffffffffffffffffffffffffffffffffffffffff168152602001908152602001600020600080820160006101000a81549073ffffffffffffffffffffffffffffffffffffffff021916905550505050565b7f000000000000000000000000000000000000000000000000000000000000000073ffffffffffffffffffffffffffffffffffffffff1663f340fa0182846040518363ffffffff1660e01b8152600401611bc99190612279565b6000604051808303818588803b158015611be257600080fd5b505af1158015611bf6573d6000803e3d6000fd5b50505050505050565b7f000000000000000000000000000000000000000000000000000000000000000073ffffffffffffffffffffffffffffffffffffffff166351cff8d9826040518263ffffffff1660e01b8152600401611c589190612917565b600060405180830381600087803b158015611c7257600080fd5b505af1158015611c86573d6000803e3d6000fd5b5050505050565b60008060009054906101000a900473ffffffffffffffffffffffffffffffffffffffff169050816000806101000a81548173ffffffffffffffffffffffffffffffffffffffff021916908373ffffffffffffffffffffffffffffffffffffffff1602179055508173ffffffffffffffffffffffffffffffffffffffff168173ffffffffffffffffffffffffffffffffffffffff167f8be0079c531659141344cd1fd0a4f28419497f9722a3daafe3b4186f6b6457e060405160405180910390a35050565b611d5961195f565b80600073ffffffffffffffffffffffffffffffffffffffff168173ffffffffffffffffffffffffffffffffffffffff1603611dc9576040517f08c379a0000000000000000000000000000000000000000000000000000000008152600401611dc090612856565b60405180910390fd5b611dd282611ecc565b15611e12576040517f08c379a0000000000000000000000000000000000000000000000000000000008152600401611e09906129a4565b60405180910390fd5b60405180602001604052808373ffffffffffffffffffffffffffffffffffffffff16815250600160008473ffffffffffffffffffffffffffffffffffffffff1673ffffffffffffffffffffffffffffffffffffffff16815260200190815260200160002060008201518160000160006101000a81548173ffffffffffffffffffffffffffffffffffffffff021916908373ffffffffffffffffffffffffffffffffffffffff1602179055509050505050565b600033905090565b6000611ed661195f565b81600073ffffffffffffffffffffffffffffffffffffffff168173ffffffffffffffffffffffffffffffffffffffff1603611f46576040517f08c379a0000000000000000000000000000000000000000000000000000000008152600401611f3d90612856565b60405180910390fd5b600073ffffffffffffffffffffffffffffffffffffffff16600160008573ffffffffffffffffffffffffffffffffffffffff1673ffffffffffffffffffffffffffffffffffffffff16815260200190815260200160002060000160009054906101000a900473ffffffffffffffffffffffffffffffffffffffff1673ffffffffffffffffffffffffffffffffffffffff1614158061201657508273ffffffffffffffffffffffffffffffffffffffff16611ffe610e6a565b73ffffffffffffffffffffffffffffffffffffffff16145b156120245760019150612029565b600091505b50919050565b508054600082559060005260206000209081019061204d9190612050565b50565b5b80821115612069576000816000905550600101612051565b5090565b600081519050919050565b600082825260208201905092915050565b6000819050602082019050919050565b600073ffffffffffffffffffffffffffffffffffffffff82169050919050565b60006120c482612099565b9050919050565b6120d4816120b9565b82525050565b60006120e683836120cb565b60208301905092915050565b6000602082019050919050565b600061210a8261206d565b6121148185612078565b935061211f83612089565b8060005b8381101561215057815161213788826120da565b9750612142836120f2565b925050600181019050612123565b5085935050505092915050565b6000602082019050818103600083015261217781846120ff565b905092915050565b6000819050919050565b6121928161217f565b82525050565b60006020820190506121ad6000830184612189565b92915050565b600080fd5b6121c1816120b9565b81146121cc57600080fd5b50565b6000813590506121de816121b8565b92915050565b6000602082840312156121fa576121f96121b3565b5b6000612208848285016121cf565b91505092915050565b61221a8161217f565b811461222557600080fd5b50565b60008135905061223781612211565b92915050565b600060208284031215612253576122526121b3565b5b600061226184828501612228565b91505092915050565b612273816120b9565b82525050565b600060208201905061228e600083018461226a565b92915050565b600061229f82612099565b9050919050565b6122af81612294565b81146122ba57600080fd5b50565b6000813590506122cc816122a6565b92915050565b6000602082840312156122e8576122e76121b3565b5b60006122f6848285016122bd565b91505092915050565b600082825260208201905092915050565b7f596f7520617265206e6f7420616e2061646d696e206f72206f776e65722e0000600082015250565b6000612346601e836122ff565b915061235182612310565b602082019050919050565b6000602082019050818103600083015261237581612339565b9050919050565b7f4572726f723a205573657220646f65736e2774206578697374207965742e0000600082015250565b60006123b2601e836122ff565b91506123bd8261237c565b602082019050919050565b600060208201905081810360008301526123e1816123a5565b9050919050565b7f4e487b7100000000000000000000000000000000000000000000000000000000600052601160045260246000fd5b60006124228261217f565b915061242d8361217f565b9250828201905080821115612445576124446123e8565b5b92915050565b7f4572726f723a205469636b6574206f766572666c6f772e000000000000000000600082015250565b60006124816017836122ff565b915061248c8261244b565b602082019050919050565b600060208201905081810360008301526124b081612474565b9050919050565b7f4e487b7100000000000000000000000000000000000000000000000000000000600052601260045260246000fd5b60006124f18261217f565b91506124fc8361217f565b92508261250c5761250b6124b7565b5b828206905092915050565b60006125228261217f565b915061252d8361217f565b92508261253d5761253c6124b7565b5b828204905092915050565b600060608201905061255d6000830186612189565b61256a6020830185612189565b6125776040830184612189565b949350505050565b60008151905061258e816121b8565b92915050565b6000602082840312156125aa576125a96121b3565b5b60006125b88482850161257f565b91505092915050565b7f4572726f723a2043616e6e6f7420616464206475706c6963617465207573657260008201527f20746f20636f6e74726163742e00000000000000000000000000000000000000602082015250565b600061261d602d836122ff565b9150612628826125c1565b604082019050919050565b6000602082019050818103600083015261264c81612610565b9050919050565b7f4e487b7100000000000000000000000000000000000000000000000000000000600052603260045260246000fd5b600061268d8261217f565b91507fffffffffffffffffffffffffffffffffffffffffffffffffffffffffffffffff82036126bf576126be6123e8565b5b600182019050919050565b6000815190506126d981612211565b92915050565b6000602082840312156126f5576126f46121b3565b5b6000612703848285016126ca565b91505092915050565b7f4f776e61626c653a206e6577206f776e657220697320746865207a65726f206160008201527f6464726573730000000000000000000000000000000000000000000000000000602082015250565b60006127686026836122ff565b91506127738261270c565b604082019050919050565b600060208201905081810360008301526127978161275b565b9050919050565b7f4f776e61626c653a2063616c6c6572206973206e6f7420746865206f776e6572600082015250565b60006127d46020836122ff565b91506127df8261279e565b602082019050919050565b60006020820190508181036000830152612803816127c7565b9050919050565b7f496e76616c696420416464726573732e00000000000000000000000000000000600082015250565b60006128406010836122ff565b915061284b8261280a565b602082019050919050565b6000602082019050818103600083015261286f81612833565b9050919050565b7f4572726f723a2041646472657373206973206e6f7420616e2061646d696e737460008201527f7261746f722e0000000000000000000000000000000000000000000000000000602082015250565b60006128d26026836122ff565b91506128dd82612876565b604082019050919050565b60006020820190508181036000830152612901816128c5565b9050919050565b61291181612294565b82525050565b600060208201905061292c6000830184612908565b92915050565b7f4572726f723a204164647265737320697320616c726561647920616e2061646d60008201527f696e73747261746f722e00000000000000000000000000000000000000000000602082015250565b600061298e602a836122ff565b915061299982612932565b604082019050919050565b600060208201905081810360008301526129bd81612981565b905091905056fea26469706673582212200b156756537c364b35bfd9d5ec0b5832fcdaba15eefa5740991d33b87482563664736f6c63430008110033608060405234801561001057600080fd5b5061002d61002261003260201b60201c565b61003a60201b60201c565b6100fe565b600033905090565b60008060009054906101000a900473ffffffffffffffffffffffffffffffffffffffff169050816000806101000a81548173ffffffffffffffffffffffffffffffffffffffff021916908373ffffffffffffffffffffffffffffffffffffffff1602179055508173ffffffffffffffffffffffffffffffffffffffff168173ffffffffffffffffffffffffffffffffffffffff167f8be0079c531659141344cd1fd0a4f28419497f9722a3daafe3b4186f6b6457e060405160405180910390a35050565b610a948061010d6000396000f3fe6080604052600436106100555760003560e01c806351cff8d91461005a578063715018a6146100835780638da5cb5b1461009a578063e3a9db1a146100c5578063f2fde38b14610102578063f340fa011461012b575b600080fd5b34801561006657600080fd5b50610081600480360381019061007c91906106b2565b610147565b005b34801561008f57600080fd5b50610098610253565b005b3480156100a657600080fd5b506100af610267565b6040516100bc9190610700565b60405180910390f35b3480156100d157600080fd5b506100ec60048036038101906100e79190610747565b610290565b6040516100f9919061078d565b60405180910390f35b34801561010e57600080fd5b5061012960048036038101906101249190610747565b6102d9565b005b61014560048036038101906101409190610747565b61035c565b005b61014f610411565b6000600160008373ffffffffffffffffffffffffffffffffffffffff1673ffffffffffffffffffffffffffffffffffffffff1681526020019081526020016000205490506000600160008473ffffffffffffffffffffffffffffffffffffffff1673ffffffffffffffffffffffffffffffffffffffff16815260200190815260200160002081905550610201818373ffffffffffffffffffffffffffffffffffffffff1661048f90919063ffffffff16565b8173ffffffffffffffffffffffffffffffffffffffff167f7084f5476618d8e60b11ef0d7d3f06914655adb8793e28ff7f018d4c76d505d582604051610247919061078d565b60405180910390a25050565b61025b610411565b6102656000610583565b565b60008060009054906101000a900473ffffffffffffffffffffffffffffffffffffffff16905090565b6000600160008373ffffffffffffffffffffffffffffffffffffffff1673ffffffffffffffffffffffffffffffffffffffff168152602001908152602001600020549050919050565b6102e1610411565b600073ffffffffffffffffffffffffffffffffffffffff168173ffffffffffffffffffffffffffffffffffffffff1603610350576040517f08c379a00000000000000000000000000000000000000000000000000000000081526004016103479061082b565b60405180910390fd5b61035981610583565b50565b610364610411565b600034905080600160008473ffffffffffffffffffffffffffffffffffffffff1673ffffffffffffffffffffffffffffffffffffffff16815260200190815260200160002060008282546103b8919061087a565b925050819055508173ffffffffffffffffffffffffffffffffffffffff167f2da466a7b24304f47e87fa2e1e5a81b9831ce54fec19055ce277ca2f39ba42c482604051610405919061078d565b60405180910390a25050565b610419610647565b73ffffffffffffffffffffffffffffffffffffffff16610437610267565b73ffffffffffffffffffffffffffffffffffffffff161461048d576040517f08c379a0000000000000000000000000000000000000000000000000000000008152600401610484906108fa565b60405180910390fd5b565b804710156104d2576040517f08c379a00000000000000000000000000000000000000000000000000000000081526004016104c990610966565b60405180910390fd5b60008273ffffffffffffffffffffffffffffffffffffffff16826040516104f8906109b7565b60006040518083038185875af1925050503d8060008114610535576040519150601f19603f3d011682016040523d82523d6000602084013e61053a565b606091505b505090508061057e576040517f08c379a000000000000000000000000000000000000000000000000000000000815260040161057590610a3e565b60405180910390fd5b505050565b60008060009054906101000a900473ffffffffffffffffffffffffffffffffffffffff169050816000806101000a81548173ffffffffffffffffffffffffffffffffffffffff021916908373ffffffffffffffffffffffffffffffffffffffff1602179055508173ffffffffffffffffffffffffffffffffffffffff168173ffffffffffffffffffffffffffffffffffffffff167f8be0079c531659141344cd1fd0a4f28419497f9722a3daafe3b4186f6b6457e060405160405180910390a35050565b600033905090565b600080fd5b600073ffffffffffffffffffffffffffffffffffffffff82169050919050565b600061067f82610654565b9050919050565b61068f81610674565b811461069a57600080fd5b50565b6000813590506106ac81610686565b92915050565b6000602082840312156106c8576106c761064f565b5b60006106d68482850161069d565b91505092915050565b60006106ea82610654565b9050919050565b6106fa816106df565b82525050565b600060208201905061071560008301846106f1565b92915050565b610724816106df565b811461072f57600080fd5b50565b6000813590506107418161071b565b92915050565b60006020828403121561075d5761075c61064f565b5b600061076b84828501610732565b91505092915050565b6000819050919050565b61078781610774565b82525050565b60006020820190506107a2600083018461077e565b92915050565b600082825260208201905092915050565b7f4f776e61626c653a206e6577206f776e657220697320746865207a65726f206160008201527f6464726573730000000000000000000000000000000000000000000000000000602082015250565b60006108156026836107a8565b9150610820826107b9565b604082019050919050565b6000602082019050818103600083015261084481610808565b9050919050565b7f4e487b7100000000000000000000000000000000000000000000000000000000600052601160045260246000fd5b600061088582610774565b915061089083610774565b92508282019050808211156108a8576108a761084b565b5b92915050565b7f4f776e61626c653a2063616c6c6572206973206e6f7420746865206f776e6572600082015250565b60006108e46020836107a8565b91506108ef826108ae565b602082019050919050565b60006020820190508181036000830152610913816108d7565b9050919050565b7f416464726573733a20696e73756666696369656e742062616c616e6365000000600082015250565b6000610950601d836107a8565b915061095b8261091a565b602082019050919050565b6000602082019050818103600083015261097f81610943565b9050919050565b600081905092915050565b50565b60006109a1600083610986565b91506109ac82610991565b600082019050919050565b60006109c282610994565b9150819050919050565b7f416464726573733a20756e61626c6520746f2073656e642076616c75652c207260008201527f6563697069656e74206d61792068617665207265766572746564000000000000602082015250565b6000610a28603a836107a8565b9150610a33826109cc565b604082019050919050565b60006020820190508181036000830152610a5781610a1b565b905091905056fea2646970667358221220615cfee549c14d6cc44f5650a219cb79ee6e4e10d5bda4aeb19b6c34868022fc64736f6c63430008110033",
  "linkReferences": {},
  "deployedLinkReferences": {}
}