{
  "_format": "hh-sol-artifact-1",
  "contractName": "GCW3Minter",
  "sourceName": "contracts/GCW3Minter.sol",
  "abi": [
    {
      "inputs": [],
      "stateMutability": "nonpayable",
      "type": "constructor"
    },
    {
      "anonymous": false,
      "inputs": [
        {
          "indexed": true,
          "internalType": "address",
          "name": "owner",
          "type": "address"
        },
        {
          "indexed": true,
          "internalType": "address",
          "name": "approved",
          "type": "address"
        },
        {
          "indexed": true,
          "internalType": "uint256",
          "name": "tokenId",
          "type": "uint256"
        }
      ],
      "name": "Approval",
      "type": "event"
    },
    {
      "anonymous": false,
      "inputs": [
        {
          "indexed": true,
          "internalType": "address",
          "name": "owner",
          "type": "address"
        },
        {
          "indexed": true,
          "internalType": "address",
          "name": "operator",
          "type": "address"
        },
        {
          "indexed": false,
          "internalType": "bool",
          "name": "approved",
          "type": "bool"
        }
      ],
      "name": "ApprovalForAll",
      "type": "event"
    },
    {
      "anonymous": false,
      "inputs": [
        {
          "indexed": true,
          "internalType": "address",
          "name": "previousOwner",
          "type": "address"
        },
        {
          "indexed": true,
          "internalType": "address",
          "name": "newOwner",
          "type": "address"
        }
      ],
      "name": "OwnershipTransferred",
      "type": "event"
    },
    {
      "anonymous": false,
      "inputs": [
        {
          "indexed": true,
          "internalType": "address",
          "name": "from",
          "type": "address"
        },
        {
          "indexed": true,
          "internalType": "address",
          "name": "to",
          "type": "address"
        },
        {
          "indexed": true,
          "internalType": "uint256",
          "name": "tokenId",
          "type": "uint256"
        }
      ],
      "name": "Transfer",
      "type": "event"
    },
    {
      "inputs": [],
      "name": "TOTAL_SUPPLY",
      "outputs": [
        {
          "internalType": "uint256",
          "name": "",
          "type": "uint256"
        }
      ],
      "stateMutability": "view",
      "type": "function"
    },
    {
      "inputs": [
        {
          "internalType": "address",
          "name": "to",
          "type": "address"
        },
        {
          "internalType": "uint256",
          "name": "tokenId",
          "type": "uint256"
        }
      ],
      "name": "approve",
      "outputs": [],
      "stateMutability": "nonpayable",
      "type": "function"
    },
    {
      "inputs": [
        {
          "internalType": "address",
          "name": "owner",
          "type": "address"
        }
      ],
      "name": "balanceOf",
      "outputs": [
        {
          "internalType": "uint256",
          "name": "",
          "type": "uint256"
        }
      ],
      "stateMutability": "view",
      "type": "function"
    },
    {
      "inputs": [],
      "name": "baseTokenURI",
      "outputs": [
        {
          "internalType": "string",
          "name": "",
          "type": "string"
        }
      ],
      "stateMutability": "view",
      "type": "function"
    },
    {
      "inputs": [],
      "name": "contractURI",
      "outputs": [
        {
          "internalType": "string",
          "name": "",
          "type": "string"
        }
      ],
      "stateMutability": "pure",
      "type": "function"
    },
    {
      "inputs": [
        {
          "internalType": "uint256",
          "name": "tokenId",
          "type": "uint256"
        }
      ],
      "name": "getApproved",
      "outputs": [
        {
          "internalType": "address",
          "name": "",
          "type": "address"
        }
      ],
      "stateMutability": "view",
      "type": "function"
    },
    {
      "inputs": [
        {
          "internalType": "address",
          "name": "owner",
          "type": "address"
        },
        {
          "internalType": "address",
          "name": "operator",
          "type": "address"
        }
      ],
      "name": "isApprovedForAll",
      "outputs": [
        {
          "internalType": "bool",
          "name": "",
          "type": "bool"
        }
      ],
      "stateMutability": "view",
      "type": "function"
    },
    {
      "inputs": [
        {
          "internalType": "address",
          "name": "recipient",
          "type": "address"
        }
      ],
      "name": "mintTo",
      "outputs": [
        {
          "internalType": "uint256",
          "name": "",
          "type": "uint256"
        }
      ],
      "stateMutability": "nonpayable",
      "type": "function"
    },
    {
      "inputs": [],
      "name": "name",
      "outputs": [
        {
          "internalType": "string",
          "name": "",
          "type": "string"
        }
      ],
      "stateMutability": "view",
      "type": "function"
    },
    {
      "inputs": [],
      "name": "owner",
      "outputs": [
        {
          "internalType": "address",
          "name": "",
          "type": "address"
        }
      ],
      "stateMutability": "view",
      "type": "function"
    },
    {
      "inputs": [
        {
          "internalType": "uint256",
          "name": "tokenId",
          "type": "uint256"
        }
      ],
      "name": "ownerOf",
      "outputs": [
        {
          "internalType": "address",
          "name": "",
          "type": "address"
        }
      ],
      "stateMutability": "view",
      "type": "function"
    },
    {
      "inputs": [],
      "name": "renounceOwnership",
      "outputs": [],
      "stateMutability": "nonpayable",
      "type": "function"
    },
    {
      "inputs": [
        {
          "internalType": "address",
          "name": "from",
          "type": "address"
        },
        {
          "internalType": "address",
          "name": "to",
          "type": "address"
        },
        {
          "internalType": "uint256",
          "name": "tokenId",
          "type": "uint256"
        }
      ],
      "name": "safeTransferFrom",
      "outputs": [],
      "stateMutability": "nonpayable",
      "type": "function"
    },
    {
      "inputs": [
        {
          "internalType": "address",
          "name": "from",
          "type": "address"
        },
        {
          "internalType": "address",
          "name": "to",
          "type": "address"
        },
        {
          "internalType": "uint256",
          "name": "tokenId",
          "type": "uint256"
        },
        {
          "internalType": "bytes",
          "name": "data",
          "type": "bytes"
        }
      ],
      "name": "safeTransferFrom",
      "outputs": [],
      "stateMutability": "nonpayable",
      "type": "function"
    },
    {
      "inputs": [
        {
          "internalType": "address",
          "name": "operator",
          "type": "address"
        },
        {
          "internalType": "bool",
          "name": "approved",
          "type": "bool"
        }
      ],
      "name": "setApprovalForAll",
      "outputs": [],
      "stateMutability": "nonpayable",
      "type": "function"
    },
    {
      "inputs": [
        {
          "internalType": "bytes4",
          "name": "interfaceId",
          "type": "bytes4"
        }
      ],
      "name": "supportsInterface",
      "outputs": [
        {
          "internalType": "bool",
          "name": "",
          "type": "bool"
        }
      ],
      "stateMutability": "view",
      "type": "function"
    },
    {
      "inputs": [],
      "name": "symbol",
      "outputs": [
        {
          "internalType": "string",
          "name": "",
          "type": "string"
        }
      ],
      "stateMutability": "view",
      "type": "function"
    },
    {
      "inputs": [
        {
          "internalType": "uint256",
          "name": "tokenId",
          "type": "uint256"
        }
      ],
      "name": "tokenURI",
      "outputs": [
        {
          "internalType": "string",
          "name": "",
          "type": "string"
        }
      ],
      "stateMutability": "view",
      "type": "function"
    },
    {
      "inputs": [
        {
          "internalType": "address",
          "name": "from",
          "type": "address"
        },
        {
          "internalType": "address",
          "name": "to",
          "type": "address"
        },
        {
          "internalType": "uint256",
          "name": "tokenId",
          "type": "uint256"
        }
      ],
      "name": "transferFrom",
      "outputs": [],
      "stateMutability": "nonpayable",
      "type": "function"
    },
    {
      "inputs": [
        {
          "internalType": "address",
          "name": "newOwner",
          "type": "address"
        }
      ],
      "name": "transferOwnership",
      "outputs": [],
      "stateMutability": "nonpayable",
      "type": "function"
    }
  ],
  "bytecode": "0x60806040523480156200001157600080fd5b506040518060400160405280600a81526020017f47656f636f696e4e4654000000000000000000000000000000000000000000008152506040518060400160405280600481526020017f474e46540000000000000000000000000000000000000000000000000000000081525081600090816200008f91906200043d565b508060019081620000a191906200043d565b505050620000c4620000b8620000f560201b60201c565b620000fd60201b60201c565b604051806080016040528060458152602001620033b06045913960099081620000ee91906200043d565b5062000524565b600033905090565b6000600660009054906101000a900473ffffffffffffffffffffffffffffffffffffffff16905081600660006101000a81548173ffffffffffffffffffffffffffffffffffffffff021916908373ffffffffffffffffffffffffffffffffffffffff1602179055508173ffffffffffffffffffffffffffffffffffffffff168173ffffffffffffffffffffffffffffffffffffffff167f8be0079c531659141344cd1fd0a4f28419497f9722a3daafe3b4186f6b6457e060405160405180910390a35050565b600081519050919050565b7f4e487b7100000000000000000000000000000000000000000000000000000000600052604160045260246000fd5b7f4e487b7100000000000000000000000000000000000000000000000000000000600052602260045260246000fd5b600060028204905060018216806200024557607f821691505b6020821081036200025b576200025a620001fd565b5b50919050565b60008190508160005260206000209050919050565b60006020601f8301049050919050565b600082821b905092915050565b600060088302620002c57fffffffffffffffffffffffffffffffffffffffffffffffffffffffffffffffff8262000286565b620002d1868362000286565b95508019841693508086168417925050509392505050565b6000819050919050565b6000819050919050565b60006200031e620003186200031284620002e9565b620002f3565b620002e9565b9050919050565b6000819050919050565b6200033a83620002fd565b62000352620003498262000325565b84845462000293565b825550505050565b600090565b620003696200035a565b620003768184846200032f565b505050565b5b818110156200039e57620003926000826200035f565b6001810190506200037c565b5050565b601f821115620003ed57620003b78162000261565b620003c28462000276565b81016020851015620003d2578190505b620003ea620003e18562000276565b8301826200037b565b50505b505050565b600082821c905092915050565b60006200041260001984600802620003f2565b1980831691505092915050565b60006200042d8383620003ff565b9150826002028217905092915050565b6200044882620001c3565b67ffffffffffffffff811115620004645762000463620001ce565b5b6200047082546200022c565b6200047d828285620003a2565b600060209050601f831160018114620004b55760008415620004a0578287015190505b620004ac85826200041f565b8655506200051c565b601f198416620004c58662000261565b60005b82811015620004ef57848901518255600182019150602085019450602081019050620004c8565b868310156200050f57848901516200050b601f891682620003ff565b8355505b6001600288020188555050505b505050505050565b612e7c80620005346000396000f3fe608060405234801561001057600080fd5b506004361061012c5760003560e01c80638da5cb5b116100ad578063c87b56dd11610071578063c87b56dd1461032f578063d547cfb71461035f578063e8a3d4851461037d578063e985e9c51461039b578063f2fde38b146103cb5761012c565b80638da5cb5b1461029d578063902d55a5146102bb57806395d89b41146102d9578063a22cb465146102f7578063b88d4fde146103135761012c565b806342842e0e116100f457806342842e0e146101e75780636352211e1461020357806370a0823114610233578063715018a614610263578063755edd171461026d5761012c565b806301ffc9a71461013157806306fdde0314610161578063081812fc1461017f578063095ea7b3146101af57806323b872dd146101cb575b600080fd5b61014b60048036038101906101469190611eb9565b6103e7565b6040516101589190611f01565b60405180910390f35b6101696104c9565b6040516101769190611fac565b60405180910390f35b61019960048036038101906101949190612004565b61055b565b6040516101a69190612072565b60405180910390f35b6101c960048036038101906101c491906120b9565b6105a1565b005b6101e560048036038101906101e091906120f9565b6106b8565b005b61020160048036038101906101fc91906120f9565b610718565b005b61021d60048036038101906102189190612004565b610738565b60405161022a9190612072565b60405180910390f35b61024d6004803603810190610248919061214c565b6107be565b60405161025a9190612188565b60405180910390f35b61026b610875565b005b6102876004803603810190610282919061214c565b610889565b6040516102949190612188565b60405180910390f35b6102a5610a16565b6040516102b29190612072565b60405180910390f35b6102c3610a40565b6040516102d09190612188565b60405180910390f35b6102e1610a45565b6040516102ee9190611fac565b60405180910390f35b610311600480360381019061030c91906121cf565b610ad7565b005b61032d60048036038101906103289190612344565b610aed565b005b61034960048036038101906103449190612004565b610b4f565b6040516103569190611fac565b60405180910390f35b610367610bb7565b6040516103749190611fac565b60405180910390f35b610385610c45565b6040516103929190611fac565b60405180910390f35b6103b560048036038101906103b091906123c7565b610c65565b6040516103c29190611f01565b60405180910390f35b6103e560048036038101906103e0919061214c565b610cf9565b005b60007f80ac58cd000000000000000000000000000000000000000000000000000000007bffffffffffffffffffffffffffffffffffffffffffffffffffffffff1916827bffffffffffffffffffffffffffffffffffffffffffffffffffffffff191614806104b257507f5b5e139f000000000000000000000000000000000000000000000000000000007bffffffffffffffffffffffffffffffffffffffffffffffffffffffff1916827bffffffffffffffffffffffffffffffffffffffffffffffffffffffff1916145b806104c257506104c182610d7c565b5b9050919050565b6060600080546104d890612436565b80601f016020809104026020016040519081016040528092919081815260200182805461050490612436565b80156105515780601f1061052657610100808354040283529160200191610551565b820191906000526020600020905b81548152906001019060200180831161053457829003601f168201915b5050505050905090565b600061056682610de6565b6004600083815260200190815260200160002060009054906101000a900473ffffffffffffffffffffffffffffffffffffffff169050919050565b60006105ac82610738565b90508073ffffffffffffffffffffffffffffffffffffffff168373ffffffffffffffffffffffffffffffffffffffff160361061c576040517f08c379a0000000000000000000000000000000000000000000000000000000008152600401610613906124d9565b60405180910390fd5b8073ffffffffffffffffffffffffffffffffffffffff1661063b610e31565b73ffffffffffffffffffffffffffffffffffffffff16148061066a575061066981610664610e31565b610c65565b5b6106a9576040517f08c379a00000000000000000000000000000000000000000000000000000000081526004016106a09061256b565b60405180910390fd5b6106b38383610e39565b505050565b6106c96106c3610e31565b82610ef2565b610708576040517f08c379a00000000000000000000000000000000000000000000000000000000081526004016106ff906125fd565b60405180910390fd5b610713838383610f87565b505050565b61073383838360405180602001604052806000815250610aed565b505050565b60008061074483611280565b9050600073ffffffffffffffffffffffffffffffffffffffff168173ffffffffffffffffffffffffffffffffffffffff16036107b5576040517f08c379a00000000000000000000000000000000000000000000000000000000081526004016107ac90612669565b60405180910390fd5b80915050919050565b60008073ffffffffffffffffffffffffffffffffffffffff168273ffffffffffffffffffffffffffffffffffffffff160361082e576040517f08c379a0000000000000000000000000000000000000000000000000000000008152600401610825906126fb565b60405180910390fd5b600360008373ffffffffffffffffffffffffffffffffffffffff1673ffffffffffffffffffffffffffffffffffffffff168152602001908152602001600020549050919050565b61087d6112bd565b610887600061133b565b565b60008073ffffffffffffffffffffffffffffffffffffffff16600760003373ffffffffffffffffffffffffffffffffffffffff1673ffffffffffffffffffffffffffffffffffffffff16815260200190815260200160002060000160009054906101000a900473ffffffffffffffffffffffffffffffffffffffff1673ffffffffffffffffffffffffffffffffffffffff1614158061095a57503373ffffffffffffffffffffffffffffffffffffffff16610942610a16565b73ffffffffffffffffffffffffffffffffffffffff16145b610999576040517f08c379a000000000000000000000000000000000000000000000000000000000815260040161099090612767565b60405180910390fd5b60006109a56008611401565b9050600181106109ea576040517f08c379a00000000000000000000000000000000000000000000000000000000081526004016109e1906127d3565b60405180910390fd5b6109f4600861140f565b6000610a006008611401565b9050610a0c8482611425565b8092505050919050565b6000600660009054906101000a900473ffffffffffffffffffffffffffffffffffffffff16905090565b600181565b606060018054610a5490612436565b80601f0160208091040260200160405190810160405280929190818152602001828054610a8090612436565b8015610acd5780601f10610aa257610100808354040283529160200191610acd565b820191906000526020600020905b815481529060010190602001808311610ab057829003601f168201915b5050505050905090565b610ae9610ae2610e31565b8383611443565b5050565b610afe610af8610e31565b83610ef2565b610b3d576040517f08c379a0000000000000000000000000000000000000000000000000000000008152600401610b34906125fd565b60405180910390fd5b610b49848484846115af565b50505050565b6060610b5a82610de6565b6000610b6461160b565b90506000815111610b845760405180602001604052806000815250610baf565b80610b8e8461169d565b604051602001610b9f92919061282f565b6040516020818303038152906040525b915050919050565b60098054610bc490612436565b80601f0160208091040260200160405190810160405280929190818152602001828054610bf090612436565b8015610c3d5780601f10610c1257610100808354040283529160200191610c3d565b820191906000526020600020905b815481529060010190602001808311610c2057829003601f168201915b505050505081565b6060604051806080016040528060528152602001612df560529139905090565b6000600560008473ffffffffffffffffffffffffffffffffffffffff1673ffffffffffffffffffffffffffffffffffffffff16815260200190815260200160002060008373ffffffffffffffffffffffffffffffffffffffff1673ffffffffffffffffffffffffffffffffffffffff16815260200190815260200160002060009054906101000a900460ff16905092915050565b610d016112bd565b600073ffffffffffffffffffffffffffffffffffffffff168173ffffffffffffffffffffffffffffffffffffffff1603610d70576040517f08c379a0000000000000000000000000000000000000000000000000000000008152600401610d67906128c5565b60405180910390fd5b610d798161133b565b50565b60007f01ffc9a7000000000000000000000000000000000000000000000000000000007bffffffffffffffffffffffffffffffffffffffffffffffffffffffff1916827bffffffffffffffffffffffffffffffffffffffffffffffffffffffff1916149050919050565b610def8161176b565b610e2e576040517f08c379a0000000000000000000000000000000000000000000000000000000008152600401610e2590612669565b60405180910390fd5b50565b600033905090565b816004600083815260200190815260200160002060006101000a81548173ffffffffffffffffffffffffffffffffffffffff021916908373ffffffffffffffffffffffffffffffffffffffff160217905550808273ffffffffffffffffffffffffffffffffffffffff16610eac83610738565b73ffffffffffffffffffffffffffffffffffffffff167f8c5be1e5ebec7d5bd14f71427d1e84f3dd0314c0f7b2291e5b200ac8c7c3b92560405160405180910390a45050565b600080610efe83610738565b90508073ffffffffffffffffffffffffffffffffffffffff168473ffffffffffffffffffffffffffffffffffffffff161480610f405750610f3f8185610c65565b5b80610f7e57508373ffffffffffffffffffffffffffffffffffffffff16610f668461055b565b73ffffffffffffffffffffffffffffffffffffffff16145b91505092915050565b8273ffffffffffffffffffffffffffffffffffffffff16610fa782610738565b73ffffffffffffffffffffffffffffffffffffffff1614610ffd576040517f08c379a0000000000000000000000000000000000000000000000000000000008152600401610ff490612957565b60405180910390fd5b600073ffffffffffffffffffffffffffffffffffffffff168273ffffffffffffffffffffffffffffffffffffffff160361106c576040517f08c379a0000000000000000000000000000000000000000000000000000000008152600401611063906129e9565b60405180910390fd5b61107983838360016117ac565b8273ffffffffffffffffffffffffffffffffffffffff1661109982610738565b73ffffffffffffffffffffffffffffffffffffffff16146110ef576040517f08c379a00000000000000000000000000000000000000000000000000000000081526004016110e690612957565b60405180910390fd5b6004600082815260200190815260200160002060006101000a81549073ffffffffffffffffffffffffffffffffffffffff02191690556001600360008573ffffffffffffffffffffffffffffffffffffffff1673ffffffffffffffffffffffffffffffffffffffff168152602001908152602001600020600082825403925050819055506001600360008473ffffffffffffffffffffffffffffffffffffffff1673ffffffffffffffffffffffffffffffffffffffff16815260200190815260200160002060008282540192505081905550816002600083815260200190815260200160002060006101000a81548173ffffffffffffffffffffffffffffffffffffffff021916908373ffffffffffffffffffffffffffffffffffffffff160217905550808273ffffffffffffffffffffffffffffffffffffffff168473ffffffffffffffffffffffffffffffffffffffff167fddf252ad1be2c89b69c2b068fc378daa952ba7f163c4a11628f55a4df523b3ef60405160405180910390a461127b83838360016118d2565b505050565b60006002600083815260200190815260200160002060009054906101000a900473ffffffffffffffffffffffffffffffffffffffff169050919050565b6112c5610e31565b73ffffffffffffffffffffffffffffffffffffffff166112e3610a16565b73ffffffffffffffffffffffffffffffffffffffff1614611339576040517f08c379a000000000000000000000000000000000000000000000000000000000815260040161133090612a55565b60405180910390fd5b565b6000600660009054906101000a900473ffffffffffffffffffffffffffffffffffffffff16905081600660006101000a81548173ffffffffffffffffffffffffffffffffffffffff021916908373ffffffffffffffffffffffffffffffffffffffff1602179055508173ffffffffffffffffffffffffffffffffffffffff168173ffffffffffffffffffffffffffffffffffffffff167f8be0079c531659141344cd1fd0a4f28419497f9722a3daafe3b4186f6b6457e060405160405180910390a35050565b600081600001549050919050565b6001816000016000828254019250508190555050565b61143f8282604051806020016040528060008152506118d8565b5050565b8173ffffffffffffffffffffffffffffffffffffffff168373ffffffffffffffffffffffffffffffffffffffff16036114b1576040517f08c379a00000000000000000000000000000000000000000000000000000000081526004016114a890612ac1565b60405180910390fd5b80600560008573ffffffffffffffffffffffffffffffffffffffff1673ffffffffffffffffffffffffffffffffffffffff16815260200190815260200160002060008473ffffffffffffffffffffffffffffffffffffffff1673ffffffffffffffffffffffffffffffffffffffff16815260200190815260200160002060006101000a81548160ff0219169083151502179055508173ffffffffffffffffffffffffffffffffffffffff168373ffffffffffffffffffffffffffffffffffffffff167f17307eab39ab6107e8899845ad3d59bd9653f200f220920489ca2b5937696c31836040516115a29190611f01565b60405180910390a3505050565b6115ba848484610f87565b6115c684848484611933565b611605576040517f08c379a00000000000000000000000000000000000000000000000000000000081526004016115fc90612b53565b60405180910390fd5b50505050565b60606009805461161a90612436565b80601f016020809104026020016040519081016040528092919081815260200182805461164690612436565b80156116935780601f1061166857610100808354040283529160200191611693565b820191906000526020600020905b81548152906001019060200180831161167657829003601f168201915b5050505050905090565b6060600060016116ac84611aba565b01905060008167ffffffffffffffff8111156116cb576116ca612219565b5b6040519080825280601f01601f1916602001820160405280156116fd5781602001600182028036833780820191505090505b509050600082602001820190505b600115611760578080600190039150507f3031323334353637383961626364656600000000000000000000000000000000600a86061a8153600a858161175457611753612b73565b5b0494506000850361170b575b819350505050919050565b60008073ffffffffffffffffffffffffffffffffffffffff1661178d83611280565b73ffffffffffffffffffffffffffffffffffffffff1614159050919050565b60018111156118cc57600073ffffffffffffffffffffffffffffffffffffffff168473ffffffffffffffffffffffffffffffffffffffff16146118405780600360008673ffffffffffffffffffffffffffffffffffffffff1673ffffffffffffffffffffffffffffffffffffffff16815260200190815260200160002060008282546118389190612bd1565b925050819055505b600073ffffffffffffffffffffffffffffffffffffffff168373ffffffffffffffffffffffffffffffffffffffff16146118cb5780600360008573ffffffffffffffffffffffffffffffffffffffff1673ffffffffffffffffffffffffffffffffffffffff16815260200190815260200160002060008282546118c39190612c05565b925050819055505b5b50505050565b50505050565b6118e28383611c0d565b6118ef6000848484611933565b61192e576040517f08c379a000000000000000000000000000000000000000000000000000000000815260040161192590612b53565b60405180910390fd5b505050565b60006119548473ffffffffffffffffffffffffffffffffffffffff16611e2a565b15611aad578373ffffffffffffffffffffffffffffffffffffffff1663150b7a0261197d610e31565b8786866040518563ffffffff1660e01b815260040161199f9493929190612c8e565b6020604051808303816000875af19250505080156119db57506040513d601f19601f820116820180604052508101906119d89190612cef565b60015b611a5d573d8060008114611a0b576040519150601f19603f3d011682016040523d82523d6000602084013e611a10565b606091505b506000815103611a55576040517f08c379a0000000000000000000000000000000000000000000000000000000008152600401611a4c90612b53565b60405180910390fd5b805181602001fd5b63150b7a0260e01b7bffffffffffffffffffffffffffffffffffffffffffffffffffffffff1916817bffffffffffffffffffffffffffffffffffffffffffffffffffffffff191614915050611ab2565b600190505b949350505050565b600080600090507a184f03e93ff9f4daa797ed6e38ed64bf6a1f0100000000000000008310611b18577a184f03e93ff9f4daa797ed6e38ed64bf6a1f0100000000000000008381611b0e57611b0d612b73565b5b0492506040810190505b6d04ee2d6d415b85acef81000000008310611b55576d04ee2d6d415b85acef81000000008381611b4b57611b4a612b73565b5b0492506020810190505b662386f26fc100008310611b8457662386f26fc100008381611b7a57611b79612b73565b5b0492506010810190505b6305f5e1008310611bad576305f5e1008381611ba357611ba2612b73565b5b0492506008810190505b6127108310611bd2576127108381611bc857611bc7612b73565b5b0492506004810190505b60648310611bf55760648381611beb57611bea612b73565b5b0492506002810190505b600a8310611c04576001810190505b80915050919050565b600073ffffffffffffffffffffffffffffffffffffffff168273ffffffffffffffffffffffffffffffffffffffff1603611c7c576040517f08c379a0000000000000000000000000000000000000000000000000000000008152600401611c7390612d68565b60405180910390fd5b611c858161176b565b15611cc5576040517f08c379a0000000000000000000000000000000000000000000000000000000008152600401611cbc90612dd4565b60405180910390fd5b611cd36000838360016117ac565b611cdc8161176b565b15611d1c576040517f08c379a0000000000000000000000000000000000000000000000000000000008152600401611d1390612dd4565b60405180910390fd5b6001600360008473ffffffffffffffffffffffffffffffffffffffff1673ffffffffffffffffffffffffffffffffffffffff16815260200190815260200160002060008282540192505081905550816002600083815260200190815260200160002060006101000a81548173ffffffffffffffffffffffffffffffffffffffff021916908373ffffffffffffffffffffffffffffffffffffffff160217905550808273ffffffffffffffffffffffffffffffffffffffff16600073ffffffffffffffffffffffffffffffffffffffff167fddf252ad1be2c89b69c2b068fc378daa952ba7f163c4a11628f55a4df523b3ef60405160405180910390a4611e266000838360016118d2565b5050565b6000808273ffffffffffffffffffffffffffffffffffffffff163b119050919050565b6000604051905090565b600080fd5b600080fd5b60007fffffffff0000000000000000000000000000000000000000000000000000000082169050919050565b611e9681611e61565b8114611ea157600080fd5b50565b600081359050611eb381611e8d565b92915050565b600060208284031215611ecf57611ece611e57565b5b6000611edd84828501611ea4565b91505092915050565b60008115159050919050565b611efb81611ee6565b82525050565b6000602082019050611f166000830184611ef2565b92915050565b600081519050919050565b600082825260208201905092915050565b60005b83811015611f56578082015181840152602081019050611f3b565b60008484015250505050565b6000601f19601f8301169050919050565b6000611f7e82611f1c565b611f888185611f27565b9350611f98818560208601611f38565b611fa181611f62565b840191505092915050565b60006020820190508181036000830152611fc68184611f73565b905092915050565b6000819050919050565b611fe181611fce565b8114611fec57600080fd5b50565b600081359050611ffe81611fd8565b92915050565b60006020828403121561201a57612019611e57565b5b600061202884828501611fef565b91505092915050565b600073ffffffffffffffffffffffffffffffffffffffff82169050919050565b600061205c82612031565b9050919050565b61206c81612051565b82525050565b60006020820190506120876000830184612063565b92915050565b61209681612051565b81146120a157600080fd5b50565b6000813590506120b38161208d565b92915050565b600080604083850312156120d0576120cf611e57565b5b60006120de858286016120a4565b92505060206120ef85828601611fef565b9150509250929050565b60008060006060848603121561211257612111611e57565b5b6000612120868287016120a4565b9350506020612131868287016120a4565b925050604061214286828701611fef565b9150509250925092565b60006020828403121561216257612161611e57565b5b6000612170848285016120a4565b91505092915050565b61218281611fce565b82525050565b600060208201905061219d6000830184612179565b92915050565b6121ac81611ee6565b81146121b757600080fd5b50565b6000813590506121c9816121a3565b92915050565b600080604083850312156121e6576121e5611e57565b5b60006121f4858286016120a4565b9250506020612205858286016121ba565b9150509250929050565b600080fd5b600080fd5b7f4e487b7100000000000000000000000000000000000000000000000000000000600052604160045260246000fd5b61225182611f62565b810181811067ffffffffffffffff821117156122705761226f612219565b5b80604052505050565b6000612283611e4d565b905061228f8282612248565b919050565b600067ffffffffffffffff8211156122af576122ae612219565b5b6122b882611f62565b9050602081019050919050565b82818337600083830152505050565b60006122e76122e284612294565b612279565b90508281526020810184848401111561230357612302612214565b5b61230e8482856122c5565b509392505050565b600082601f83011261232b5761232a61220f565b5b813561233b8482602086016122d4565b91505092915050565b6000806000806080858703121561235e5761235d611e57565b5b600061236c878288016120a4565b945050602061237d878288016120a4565b935050604061238e87828801611fef565b925050606085013567ffffffffffffffff8111156123af576123ae611e5c565b5b6123bb87828801612316565b91505092959194509250565b600080604083850312156123de576123dd611e57565b5b60006123ec858286016120a4565b92505060206123fd858286016120a4565b9150509250929050565b7f4e487b7100000000000000000000000000000000000000000000000000000000600052602260045260246000fd5b6000600282049050600182168061244e57607f821691505b60208210810361246157612460612407565b5b50919050565b7f4552433732313a20617070726f76616c20746f2063757272656e74206f776e6560008201527f7200000000000000000000000000000000000000000000000000000000000000602082015250565b60006124c3602183611f27565b91506124ce82612467565b604082019050919050565b600060208201905081810360008301526124f2816124b6565b9050919050565b7f4552433732313a20617070726f76652063616c6c6572206973206e6f7420746f60008201527f6b656e206f776e6572206f7220617070726f76656420666f7220616c6c000000602082015250565b6000612555603d83611f27565b9150612560826124f9565b604082019050919050565b6000602082019050818103600083015261258481612548565b9050919050565b7f4552433732313a2063616c6c6572206973206e6f7420746f6b656e206f776e6560008201527f72206f7220617070726f76656400000000000000000000000000000000000000602082015250565b60006125e7602d83611f27565b91506125f28261258b565b604082019050919050565b60006020820190508181036000830152612616816125da565b9050919050565b7f4552433732313a20696e76616c696420746f6b656e2049440000000000000000600082015250565b6000612653601883611f27565b915061265e8261261d565b602082019050919050565b6000602082019050818103600083015261268281612646565b9050919050565b7f4552433732313a2061646472657373207a65726f206973206e6f74206120766160008201527f6c6964206f776e65720000000000000000000000000000000000000000000000602082015250565b60006126e5602983611f27565b91506126f082612689565b604082019050919050565b60006020820190508181036000830152612714816126d8565b9050919050565b7f596f7520617265206e6f7420616e2061646d696e206f72206f776e65722e0000600082015250565b6000612751601e83611f27565b915061275c8261271b565b602082019050919050565b6000602082019050818103600083015261278081612744565b9050919050565b7f4d617820737570706c7920726561636865640000000000000000000000000000600082015250565b60006127bd601283611f27565b91506127c882612787565b602082019050919050565b600060208201905081810360008301526127ec816127b0565b9050919050565b600081905092915050565b600061280982611f1c565b61281381856127f3565b9350612823818560208601611f38565b80840191505092915050565b600061283b82856127fe565b915061284782846127fe565b91508190509392505050565b7f4f776e61626c653a206e6577206f776e657220697320746865207a65726f206160008201527f6464726573730000000000000000000000000000000000000000000000000000602082015250565b60006128af602683611f27565b91506128ba82612853565b604082019050919050565b600060208201905081810360008301526128de816128a2565b9050919050565b7f4552433732313a207472616e736665722066726f6d20696e636f72726563742060008201527f6f776e6572000000000000000000000000000000000000000000000000000000602082015250565b6000612941602583611f27565b915061294c826128e5565b604082019050919050565b6000602082019050818103600083015261297081612934565b9050919050565b7f4552433732313a207472616e7366657220746f20746865207a65726f2061646460008201527f7265737300000000000000000000000000000000000000000000000000000000602082015250565b60006129d3602483611f27565b91506129de82612977565b604082019050919050565b60006020820190508181036000830152612a02816129c6565b9050919050565b7f4f776e61626c653a2063616c6c6572206973206e6f7420746865206f776e6572600082015250565b6000612a3f602083611f27565b9150612a4a82612a09565b602082019050919050565b60006020820190508181036000830152612a6e81612a32565b9050919050565b7f4552433732313a20617070726f766520746f2063616c6c657200000000000000600082015250565b6000612aab601983611f27565b9150612ab682612a75565b602082019050919050565b60006020820190508181036000830152612ada81612a9e565b9050919050565b7f4552433732313a207472616e7366657220746f206e6f6e20455243373231526560008201527f63656976657220696d706c656d656e7465720000000000000000000000000000602082015250565b6000612b3d603283611f27565b9150612b4882612ae1565b604082019050919050565b60006020820190508181036000830152612b6c81612b30565b9050919050565b7f4e487b7100000000000000000000000000000000000000000000000000000000600052601260045260246000fd5b7f4e487b7100000000000000000000000000000000000000000000000000000000600052601160045260246000fd5b6000612bdc82611fce565b9150612be783611fce565b9250828203905081811115612bff57612bfe612ba2565b5b92915050565b6000612c1082611fce565b9150612c1b83611fce565b9250828201905080821115612c3357612c32612ba2565b5b92915050565b600081519050919050565b600082825260208201905092915050565b6000612c6082612c39565b612c6a8185612c44565b9350612c7a818560208601611f38565b612c8381611f62565b840191505092915050565b6000608082019050612ca36000830187612063565b612cb06020830186612063565b612cbd6040830185612179565b8181036060830152612ccf8184612c55565b905095945050505050565b600081519050612ce981611e8d565b92915050565b600060208284031215612d0557612d04611e57565b5b6000612d1384828501612cda565b91505092915050565b7f4552433732313a206d696e7420746f20746865207a65726f2061646472657373600082015250565b6000612d52602083611f27565b9150612d5d82612d1c565b602082019050919050565b60006020820190508181036000830152612d8181612d45565b9050919050565b7f4552433732313a20746f6b656e20616c7265616479206d696e74656400000000600082015250565b6000612dbe601c83611f27565b9150612dc982612d88565b602082019050919050565b60006020820190508181036000830152612ded81612db1565b905091905056fe68747470733a2f2f7261772e67697468756275736572636f6e74656e742e636f6d2f49616e536d697468313333372f47656f636f696e576562332f6d6574612f6d6574612f636f6e74726163742e6a736f6ea2646970667358221220eee69a5bd143fd59234ef6d7119cf0fefe07b6f3825647525a348f84394ab5e364736f6c6343000811003368747470733a2f2f7261772e67697468756275736572636f6e74656e742e636f6d2f49616e536d697468313333372f47656f636f696e576562332f6d6574612f6d6574612f",
  "linkReferences": {},
  "deployedLinkReferences": {}
}